:020000040800F2
:10000000280B00209D010008A5010008A701000899
:10001000A9010008AB010008AD01000800000000C4
:10002000000000000000000000000000AF01000818
:10003000B101000800000000B3010008DD5700080E
:10004000B7010008B7010008B7010008B7010008B0
:10005000B7010008B7010008B7010008D90D000872
:10006000B7010008B7010008B7010008B701000890
:10007000B7010008B7010008B7010008B701000880
:10008000B7010008B7010008B7010008B701000870
:10009000B7010008B7010008B7010008B701000860
:1000A000B7010008B7010008B7010008B701000850
:1000B000A5580008B1580008B70100081D2C000819
:1000C000B7010008B7010008B7010008B701000830
:1000D000B7010008A55E0008B7010008B7010008D5
:1000E000B7010008B7010008B7010008B701000810
:1000F000B7010008B7010008B7010008B701000800
:10010000B7010008B7010008B7010008B7010008EF
:100110006D5B0008B7010008B7010008B7010008CF
:10012000B7010008B7010008B7010008B7010008CF
:10013000B7010008B7010008B7010008B7010008BF
:10014000B7010008B7010008B7010008B7010008AF
:10015000B7010008B7010008B7010008B70100089F
:10016000B7010008B7010008B7010008B70100088F
:10017000B7010008B7010008B7010008000000003F
:10018000B7010008B7010008DFF80CD000F002FC4E
:1001900000480047058F0008280B002006488047CC
:1001A00006480047FEE7FEE7FEE7FEE7FEE7FEE75C
:1001B000FEE7FEE7FEE7FEE7515800088901000868
:1001C0002DE9F05F0546002092469B46884606468C
:1001D000814640241BE0284641464746224600F01F
:1001E000A2FA53465A46C01A914110D311461846F6
:1001F000224600F089FA2D1A67EB01084F46224685
:100200000120002100F080FA17EB00094E41201E6A
:10021000A4F10104DFDC484631462A464346BDE8E6
:10022000F09F40EA01039B0703D009E008C9121FB1
:1002300008C0042AFAD203E011F8013B00F8013BA0
:10024000521EF9D270472DE9FE4F804681EA030025
:10025000C00F0C46009021F0004123F00045B8EBA0
:100260000200A94105D24046214690461C460B4655
:10027000024623F00040104347D0270DC7F30A0081
:10028000C3F30A510290401A019040286BDAC3F37D
:10029000130040F4801B0098924620B10023D2EB5B
:1002A000030A63EB0B0B01985946C0F1400250461C
:1002B00000F02AFA06460D4650465946019A00F0CB
:1002C00042FA10EB08006141002487EA115284EAE7
:1002D000E7731A4340D0009A62B3019A012A4FEAA9
:1002E000075215DC001B61EB02014FF0004202EAED
:1002F0000752CDE90042001C41F5801132462B46E1
:1003000000F079FA03B0BDE8F08F40462146F9E7E6
:10031000001B61EB0201001C41F5801300185B41DA
:100320002018A2F5001747EB030140EAD570B61973
:100330006D4111E06D084FEA360645EAC0754FEA97
:100340000752001B61EB0201001C41F580114908B6
:100350004FEA30000019514132462B4603B0BDE848
:10036000F04F00F039BA0098012240000023D0EB92
:10037000020263EBE073009821464FEAE074B8EBA9
:10038000000061EB0401E9E783F000435BE781F0E3
:10039000004158E72DE9FE4F81EA030404F00044D0
:1003A00021F0004100944FF0000B23F0004350EA8D
:1003B00001045ED052EA03045BD0C3F30A54C1F3D4
:1003C0000A552C44A4F2F3340194A0FB0254C1F367
:1003D000130141F48011C3F3130343F4801301FBB1
:1003E000024400FB034E840A970A44EA815447EA18
:1003F0008357A4FB076802958D0A05FB07854FEA22
:10040000932C04FB0C542705029D4FEA065847EA3B
:100410001637B5EB08056EEB070C870E920E47EA10
:10042000811742EA8312A7FB0201B6EB0B0164EBD2
:1004300000042B0D43EA0C335E1844EB1C50DA46E3
:100440005146E7FB0201C5F313044FEA0B3343EABD
:1004500014534FEA0432019C43EA0603A4F10C044E
:100460000294009CCDE900B400F0C5F903B0BDE8EA
:10047000F08F00200146F9E72DE9F04D81EA0304F1
:1004800004F0004B21F0004514464FF0000A23F021
:10049000004150EA050220D054EA01021DD0C5F304
:1004A0000A570246C5F31303C1F31300C1F30A56FA
:1004B00040F4801543F48013A7EB0608101BD646C2
:1004C00008F2FD3873EB050002D308F1010801E0E2
:1004D00092185B41B8F1000F03DA00200146BDE835
:1004E000F08D00204FF48011064684460EE0171B65
:1004F00073EB050705D3121B63EB050306434CEAB8
:10050000010C49084FEA300092185B4150EA01079C
:10051000EDD152EA030012D082EA040083EA050119
:10052000084305D0101BAB4106D20122002306E090
:1005300000224FF0004302E06FF0010253101AEB6B
:1005400006004CEB085110EB0A0041EB0B01BDE833
:10055000F04D00F041B930B404469623080021461E
:1005600004D0B62330BC002200F008B92046002198
:10057000F8E70EB5C10F80EAE0700844CA07002111
:1005800040F233438DE80E000A460B4600F033F983
:1005900003B000BD0EB540F2334102910021CDE918
:1005A00000110A460B4600F026F903B000BD70B5F5
:1005B000C1F30A5201F000450024C1F3130140F2D7
:1005C000FF3341F480119A4201DA002070BD40F2FD
:1005D00033439A42A2F2334203DC524200F0A3F8C2
:1005E00000E090402C43F1D0404270BDC1F30A526C
:1005F00010B5C1F3130140F2FF3341F480119A4268
:1006000001DA002010BD40F233439A42A2F2334295
:1006100003DC524200F087F810BD904010BD00F09E
:10062000004230F000400AD0C10D01F56071C0F306
:10063000160042EA0151C2084007114370470020EA
:100640000146704730B5041E71F1000404DB4FF021
:100650000044404264EB0101141E73F1000405DB09
:100660001C464FF00043524263EB04038B4208BF29
:10067000824230BD30B5041E71F1000404DB4FF03E
:100680000044404264EB0101141E73F1000405DBD9
:100690001C464FF00043524263EB0403994208BFEB
:1006A000904230BD01F0004330B421F0004150EAE7
:1006B000010206D00A0DA2F56072C1F31301002AEF
:1006C00002DC30BC00207047440F44EAC104C10082
:1006D000E01830BC00EBC25000F047B830B50B4614
:1006E000014600202022012409E021FA02F59D4262
:1006F00005D303FA02F5491B04FA02F52844151E36
:10070000A2F10102F1DC30BD202A04DB203A00FA1C
:1007100002F1002070479140C2F1200320FA03F358
:10072000194390407047202A04DB203A21FA02F056
:100730000021704721FA02F3D040C2F1200291401B
:10074000084319467047202A06DBCB17203A41FAA6
:1007500002F043EAE07306E041FA02F3D040C2F14E
:10076000200291400843194670470029A8BF7047EE
:10077000401C490008BF20F00100704710B4B0FAD7
:1007800080FC00FA0CF050EA010404BF10BC704772
:1007900049B1CCF1200421FA04F411FA0CF118BF8C
:1007A000012121430843A3EB0C01CB1D4FEA00615B
:1007B0004FEA102042BF002010BC704700EBC3502E
:1007C00010440029A4BF10BC7047401C490008BF5A
:1007D00020F0010010BC704710B5141E73F1000426
:1007E00008DA401C41F1000192185B411A4301D123
:1007F00020F0010010BD2DE9F04D92469B4611B14D
:10080000B1FA81F202E0B0FA80F220329046FFF7AE
:100810007BFF04460F4640EA0A0041EA0B015346BB
:100820005A46084313D0114653EA010019D0C8F1C3
:1008300040025046FFF777FF05460E4650465946A0
:100840004246FFF761FF084305D0012004E020463F
:100850003946BDE8F08D0020054346EAE0762C439A
:1008600037430A986305E40AA0EB08000022FD0A5A
:1008700044EA47540A3002D500200146E9E7010561
:1008800010196941DDE9084500196941BDE8F04DDD
:10089000A2E770B521F0004303430CD0C1F30A5521
:1008A0000024D5EB040564EB0403D617AD1AB3415D
:1008B00002DB0020014670BD201841EB025170BDE3
:1008C0002DE9F04D00231A461B1A8A4103DB002054
:1008D0000146BDE8F08DC1F30A52C1F3130141F4A2
:1008E00080154FF0000BD10702D100186D41521E48
:1008F0000027044640F2FF11384601EB620A3E46EB
:100900008046024600204FF48011FFF70CFFC21909
:100910007141BB1846EB0100B4EB030C75EB000C06
:1009200004D3E41A65EB000517460E46241908F1B6
:1009300001006D4180463428E3DDF91946EB0600DD
:10094000091BA84103D24FF0FF32134601E00022F9
:1009500013461BEB070046EB0A51BDE8F04DFFF7CD
:100960003BBFC1F30A52C1F3130140F2FF3341F41C
:1009700080119A4202DA00200146704740F2334368
:100980009A42A2F2334202DC5242FFF7CCBEFFF79A
:10099000BBBE0000064C074D06E0E06840F00103D6
:1009A00094E8070098471034AC42F6D3FFF7F0FB09
:1009B00088980008A898000810B5806B90F83D1042
:1009C000252906D05FF0150180F83D1000F09AFA55
:1009D00010BD3521F8E710B5806B042180F83D107B
:1009E000016C41F00201016400F08EFA10BD10B5F7
:1009F000806B00F088FA10BD434910B5D1F804238C
:100A000022F44032C1F80423D1F8042343681A4386
:100A1000C1F8042301684A6822F480724A600168C0
:100A20004A68036942EA03224A6001684A6822F080
:100A300040724A6001684A6883681A434A600168E4
:100A40008A6822F400628A6001688A68C3681A436F
:100A50008A6001688A6822F070628A6001688A6828
:100A6000036B1A438A6001688A6822F040528A60E8
:100A700001688A68C36A1A438A6001688A6822F03A
:100A800002028A6001688A68836942EA43028A60D6
:100A9000416A002901684A680FD042F400624A6046
:100AA00001684A6822F460424A6001684A68174C4B
:100AB000836A04EB43331A4301E022F400624A6084
:100AC0000168CA6A22F47002CA620168CA6A038CA9
:100AD0000F4C04EB03531A43CA6201688A6822F47C
:100AE00000728A6001688A68C36942EA43228A60A8
:100AF00001688A6822F480628A6001688A684069B5
:100B000042EA8020886010BD0020014000E0FFFF25
:100B10000000F0FF2DE9F04105462DED048B002487
:100B20004FF400662F482E4F9FED2F8A90ED010A5B
:100B30009FED2E9B02292ED0F8EE400A804680EED3
:100B4000880A10EE100AFFF76AFD53EC192BFFF725
:100B50001EFC9FED281B53EC112BFFF78BFD16D2CB
:100B600098ED010AF8EE400A80EE880A10EE100AAD
:100B7000FFF755FD53EC192BFFF709FC9FED1F1BE9
:100B800053EC112BFFF706FCFFF730FD0446A5429E
:100B90001DD201221CE0F8EE400A80EE881AF2EE27
:100BA000080A30EEC11AB5EEC01AF1EE10FAEEDD09
:100BB000B8EE400A80EE081A30EEC10ADFED110AE5
:100BC00020EE200ABCEEC00A10EE104ADFE7002239
:100BD000BDEC048B31463846BDE8F04100F0CDBB9A
:100BE0000000024004000020000058430000000004
:100BF000000027400000000000000000000000008E
:100C0000000069400000C84210B504462DED048B79
:100C10009CB001466C226846FFF703FB9DED010A7C
:100C2000DDED030A70EE608ACDED068A9DED0D0ABA
:100C300068EE800A9DED080A9FED471A00EE810AD2
:100C40008DED080ADDED129AF0EEC00AF4EEE90A25
:100C5000F1EE10FA05DD07F0CBFFDDED120A20EE14
:100C6000200A8DED080ADDED0C0AB0EE408A9DEDFC
:100C70000E0A20EEA89ADDED000A60EE608ADDED36
:100C8000140AB0EEC90AB4EEE00AF1EE10FA07DD7C
:100C9000B0EE490A07F0ACFFDDED140A20EE209A11
:100CA000B0EEC80AB4EEE90AF1EE10FA07DDB0EED4
:100CB000480A07F09DFFDDED120A20EE208ADDEDE7
:100CC000130AB0EEE80AB4EEE00AF1EE10FA07DD1E
:100CD000B0EE680A07F08CFFDDED130A60EE208AA3
:100CE00039EE080A8DED159A8DED168ACDED178A2D
:100CF00030EE280ADDED100AB4EEE00AF1EE10FA4B
:100D00000DD29DED111AB4EEC10AF1EE10FA06DD16
:100D1000FDEEC00ACDED180A8DED190A11E0B4EE12
:100D2000E00AF1EE10FA06DADDED110AB4EEE00A9F
:100D3000F1EE10FA05D8BDEEE00A8DED180ACDED02
:100D4000190A6C2269462046FFF76BFA18981CB006
:100D5000BDEC048B10BD00006F12833B30B50468FE
:100D6000256825F480252560046863608368402B2E
:100D7000036803D099600068C26030BD9A60006863
:100D8000C16030BD3EB5074C012102220094CDE97F
:100D9000012182B20223AF21034800F093FDB4F990
:100DA00000003EBD24000020980000200EB5084A37
:100DB000022311800121CDE90023029182B2AF21EB
:100DC000044800F05BFEBDE80E400A2000F0A8B920
:100DD0002400002098000020022000F0DDB900006F
:100DE00030B590F83C20012A19D0012280F83C202F
:100DF0000A6807230468092A13D9E5680A3A02EB4E
:100E0000420293409D43E5600B788A680A3B03EBFE
:100E100043039A400368DC682243DA6010E0022052
:100E200030BD256902EB420293409D4325610B785A
:100E30008A6803EB43039A4003681C6922431A61E2
:100E40004A681F23072A13D20468656B521E02EBFF
:100E5000820293409D4365630B790A885B1E92B2C0
:100E600003EB83039A4003685C6B22435A6327E0D9
:100E700004680D2A12D2256BD21F02EB8202934026
:100E80009D4325630B790A88DB1F92B203EB830332
:100E90009A4003681C6B22431A6311E0E56A0D3A1D
:100EA00002EB820293409D43E5620B790A880D3B79
:100EB00092B203EB83039A400368DC6A2243DA624E
:100EC0000F4A0368934208D10B68122B05D1D2F860
:100ED000043343F48003C2F80433036893420AD115
:100EE0000968102901D0112905D1D2F8041341F461
:100EF0000001C2F80413002180F83C10084630BD00
:100F00000020014070477047704710B5040003D0BF
:100F100094F83D0010B104E0012010BD204600F01F
:100F20000FF8022084F83D002046FFF765FD002001
:100F30002064012184F83D1084F83C0010BD0000BD
:100F400070B506460068144986B0884222D113481D
:100F5000016841F4807101600220009003200025A7
:100F6000CDE9010569460E4800F022F90E4C0D4806
:100F7000C4E90005A5608014E560C4E90450800060
:100F8000A0618011C4E907052046656200F05AF8A7
:100F9000B463A66306B070BD00200140443802402F
:100FA00000040240106402400802002070B50446AC
:100FB00090F83C0000250E46012824D0012084F83A
:100FC0003C002068416841F0806141602068816890
:100FD00041F480718160A16B17481346C863A16B0F
:100FE000164832460864A16B154888642168A06BD6
:100FF0004C3100F05FF8122084F83D0020688168D1
:10100000C90702D00CE0022070BD816841F00101E7
:1010100081604FF4077000BF6D1CADB28542FAD9F4
:10102000E06A20B92068816841F080418160002039
:1010300084F83C0070BD0000B9090008EF09000801
:10104000D709000870B5D0B10221446A80F8351084
:1010500003681A6816490A40D0E901152943D0E906
:101060000356354329434569294385692943C569A1
:101070002943056A29431143042C02D005E00120CD
:1010800070BDD0E90B2422431143196003685969EC
:10109000426A21F007011143042A01D1826A1143F7
:1010A00059610021C164012180F83510002070BD14
:1010B0003F8010F070B5044690F8340001282DD020
:1010C000012084F83400022084F835002068056887
:1010D00025F0010505602046FFF740FE2068016805
:1010E00041F0100101602068016841F008010160D1
:1010F0002068016841F0040101602068416941F005
:10110000800141612068016841F0020101602068AE
:10111000016841F001010160002070BD022070BD36
:1011200031B500F02FF9044600F02CF90099001BAE
:101130008842F9D338BD00002DE9F0410546022868
:101140001BD1124C124E134FA089012805D12946FC
:10115000384600F009F9012811D0A08902280CD1E5
:101160002946384600F000F9002806D13068406A68
:1011700060800020A0810120A073BDE8F08130686C
:10118000406A20800220A081F7E700009C03002035
:1011900010010020000C0240044910B50A68024208
:1011A00002D00860FFF7C8FF10BD0000143C0140EA
:1011B0002DE9F04FDFF880B100224FF001084FF029
:1011C000030A4FF00F090BF1040E00BF0B6808FA79
:1011D00002F42340A3426FD14D68022D01D0122D9D
:1011E0000ED1D50800EB850CDCF820505607F70E21
:1011F00009FA07F6B5430E69BE402E43CCF82060CD
:10120000066855000F790AFA05FC07F0030726EA7D
:101210000C06AF40374307604E68012E05D0022E02
:1012200003D0112E01D0122E0ED18668CF6826EA87
:101230000C06AF40374387604668A6430C79C4F379
:101240000014944034434460C6688C6826EA0C0657
:10125000AC403443C4604C68E40066D5374C256824
:1012600045F480452560364C22F003052E19D6F84A
:10127000084895072F0F09FA07F5AC43314DA842EE
:1012800001D1002529E0304DA84201D1012524E0FB
:101290002E4DA84201D102251FE02D4DA84201D1BB
:1012A00003251AE02B4DA84201D1042515E02A4D53
:1012B000A84202D1052510E037E0284DA84201D10F
:1012C00006250AE0264DA84201D1072505E0254D57
:1012D000A84201D1082500E00925BD402543C6F8F4
:1012E0000858DBF800405D464E689C43F60300D585
:1012F0001C432C60DEF8004075464E689C43B603E4
:1013000000D51C432C600C4D08352C684E689C435E
:10131000F60200D51C432C60074D0C352C684E6836
:101320009C43B60200D51C432C60521C102AFFF4CB
:101330004DAFBDE8F08F0000003C01404438024052
:10134000003001400000024000040240000802405A
:10135000000C02400010024000140240001802403D
:10136000001C0240002002400069084000D001201B
:10137000704742694A40426170470AB181617047D3
:101380000904FBE7014800687047000000000020E6
:1013900038B501688A69D243D20711D04A69C2F3CD
:1013A00040034A684C69C2F34022C4F300158C69BB
:1013B000C4F380048BB382B348698869009038BD58
:1013C0008A69D24352074A6928D4C2F3C0144A68D2
:1013D000C2F380234A694968C2F38002C1F3402105
:1013E0000CB103B13AB1002AE9D00029E7D0BDE839
:1013F000384001F047BD416A4A1C426202680978E0
:101400001161418D491E4185418D0029D7D1006868
:10141000416821F48061416038BD19E0C2F3801356
:101420004A68C2F380244A694968C2F38002C1F362
:1014300040210BB104B13AB1002AEDD00029EBD024
:10144000BDE8384001F0F0BBBDE8384001F03EBCDB
:1014500005B3FAB10446486820F4E06048602068AB
:1014600041690091016841F0010101602068016853
:1014700021F480610160232301222449204601F0E8
:10148000EBFD0028C8D1012084F83500204600F08B
:1014900089FBC1E74A69DCB1C2F3C0144A68C2F3F0
:1014A00080234A694968C2F38002C1F340210CB12C
:1014B00003B11AB1002AAFD00029ADD0418D002967
:1014C000AAD0416A4A1C426202680978116119E097
:1014D000C2F380154A68C2F380234A694C68C2F39C
:1014E0008002C4F340240DB103B11AB1002A93D095
:1014F000002C91D0428D002A8ED00A69416A4B1C83
:1015000043620A70418D491E418585E70200100043
:1015100010B5040003D094F8350010B104E00120A8
:1015200010BD204600F014FB022084F8350020682E
:10153000016821F00101016000F0A8FC3249226835
:10154000B0FBF1F15160314A6368934206D94FF420
:10155000967359434FF47A73B1FBF3F12368491C36
:101560001962616891420BD84900B0FBF1F2C2F3F5
:101570000B02042A01D204201AE0B0FBF1F017E0BC
:10158000A36893B301EBC10202EB0112B0FBF2F2CC
:1015900042F4804212052FD043B301EBC10202EBAB
:1015A0000111B0FBF1F040F4804000BF40F4004076
:1015B0002168C861D4E90701084321680860D4E9BB
:1015C0000310084321688860D4E9050108432168B5
:1015D000C8602068016841F0010101600020A0633B
:1015E000012084F83500002010BD00E006E001EB8A
:1015F0004102B0FBF2F2CDE70120D9E701EB410156
:10160000B0FBF1F0D2E7000040420F00A0860100DD
:1016100010210148FFF7ADBE0000024070470000F6
:101620002DE9F84F044690F83500DDF828B01E4645
:101630001546012870D1E5B1DEB120688069C0434C
:10164000800769D594F83400012865D04FF001086F
:1016500084F83480222084F835000027A7635A4696
:10166000204601F077FB38B1A06B84F83470042871
:101670007DD10120BDE8F88FDFF860A1012E1DD0DB
:101680002068DFF85891022E0168A9F13C092BD09F
:1016900041F4806101602068416980690090032EF7
:1016A0006BD8012E17D0022E2AD05B460022494665
:1016B000204601F0D1FC002859D13AE020680168A9
:1016C00021F48061016020684169816900910168AD
:1016D00041F4007101605B4600225146204601F052
:1016E000BBFC00286FD113E021F480610160206809
:1016F000016841F4006101602068416980690090DF
:101700005B4600224946204601F0A6FC78BB04E077
:101710002068006928704AE05DE02068016841F4B3
:101720000071016020680069287020680069687095
:101730003DE02068016821F4806101602068006953
:1017400005F8010B761EB6B25B46002249462046DC
:1017500001F082FC58B92068016841F40071016011
:101760002068006905F8010B2068006901E02AE0A3
:1017700003E005F8010BB61E15E05B46002251465A
:10178000204601F069FCF0B92068006905F8010BFA
:101790002068761EB6B24169C943490704D400697E
:1017A00005F8010B761EB6B2002E7FF478AF2068E4
:1017B000016821F4006101605B460122084920466E
:1017C00001F04AFC08B1032054E784F8358084F81E
:1017D000347000204EE702204CE70000400001007A
:1017E000020010002DE9F84F044690F83500DDF8AE
:1017F00028A01D46164601285BD1E6B1DDB1206860
:101800008069C043800754D594F83400012850D033
:101810004FF0010884F83480122084F83500002746
:10182000A7635246204601F0F3FA38B1A06B84F862
:101830003470042835D10120BDE8F88F2068416953
:101840008069DFF874900090534600224946204694
:1018500001F002FC28BB216816F8010B0861206822
:101860006D1EADB24169C943490705D435B116F8BB
:10187000011B01616D1EADB2002DE5D15346002262
:101880004946204601F0E8FB58B92068016841F458
:1018900000710160534601220849204601F0DCFB3B
:1018A00008B10320C8E784F8358084F8347000203C
:1018B000C2E70220C0E70000800001000200100023
:1018C000704770472DE9F84F04460AA890E8600871
:1018D00094F83500012879D1EDB1E6B1206880692E
:1018E000C043800772D594F8340001286ED04FF0C1
:1018F000010884F83480422084F835000027A7636B
:101900002046CDF800B001F0EFFA38B1A06B84F8B2
:10191000347004287CD10120BDE8F88FDFF854A191
:10192000012E18D0DFF84C912068A9F13C09022E55
:1019300027D0416980690090032E6BD8012E17D003
:10194000022E2BD05B4600224946204601F084FB44
:1019500000285DD13BE02068016821F480610160CE
:101960002068416981690091016841F4007101605A
:101970005B4600225146204601F06EFB00286FD1E5
:1019800014E0016821F4806101602068016841F47D
:101990000061016020684169806900905B46002217
:1019A0004946204601F058FB90BB03E020680069DF
:1019B000287049E02068016841F4007101602068E6
:1019C000006928702068006968703DE050E0206878
:1019D000016821F4806101602068006905F8010B4D
:1019E000761EB6B25B4600224946204601F034FB23
:1019F00070B92068016841F40071016020680069D5
:101A000005F8010B2068006905F8010BB61E17E008
:101A100026E0FFE75B4600225146204601F01CFB12
:101A2000F0B92068006905F8010B2068761EB6B28F
:101A30004169C943490704D4006905F8010B761EC2
:101A4000B6B2002E7FF478AF2068016821F40061FF
:101A500001605B4601220849204601F0FDFA08B109
:101A6000032059E784F8358084F83470002053E768
:101A7000022051E740000100020010002DE9F84F5C
:101A80000446DDE90A6590F83500DDF8309001285C
:101A900058D1EEB1E5B120688069C043800751D5C7
:101AA00094F8340001284DD04FF0010884F83480B8
:101AB000322084F835000027A7632046CDF8009037
:101AC00001F082FA38B1A06B84F83470042831D167
:101AD0000120BDE8F88FDFF870A04B460022514688
:101AE000204601F0B9FA28BB216816F8010B0861FD
:101AF00020686D1EADB24169C943490705D435B1AF
:101B000016F8011B01616D1EADB2002DE5D14B46EB
:101B100000225146204601F09FFA58B9206801681A
:101B200041F4007101604B4601220849204601F052
:101B300093FA08B10320CCE784F8358084F8347038
:101B40000020C6E70220C4E7800001000200100068
:101B500000B50068104985B088421AD10F48016865
:101B600041F400110160C02000901220019001207A
:101B70000290002003900420049069460848FFF773
:101B800017FB002211461F2000F058F81F2000F01C
:101B900049F805B000BD0000005400404038024044
:101BA000000402407047000002480168491C0160BF
:101BB00070470000000000200B4810B5016841F498
:101BC00000710160016841F480610160016841F4C5
:101BD00080710160032000F051F8002000F006F849
:101BE00000F015F8002010BD003C024010B504467E
:101BF00000F032F94FF47A71B0FBF1F000F047FBDE
:101C000000222146501E00F019F8002010BD10B52A
:101C1000032000F033F80022BDE810401146501EAA
:101C200000F00CB800F01F02012191404009800033
:101C300000F1E020C0F8001170470000F0B40E4B36
:101C40001B680C46C3F30223C3F10705042D00D91A
:101C50000425191D072901D2002300E0DB1E0126FF
:101C600006FA05F1491E214099409E40761E164015
:101C70003143F0BC02F083B90CED00E0064900F0FE
:101C8000070208684FF6FF03184040EA0220034AA3
:101C900010430860704700000CED00E00000FA05FA
:101CA0002DE9F047DFF8A8A105460E46DAF8000056
:101CB000684C00F00F016748083406F0FF0941F254
:101CC0008838B14254D28AF80090DAF8001001F056
:101CD0000F01B1426FD12978890705D52168AA681B
:101CE00021F0F001114321602978C90728D06968E3
:101CF000012914D00068022914D0800700285ADA7C
:101D0000206820F0030008432060FFF73BFB0646F5
:101D1000686801280ED00228474618D023E00068E2
:101D20008003EBE78001E9E7FFF72CFB801BB8425B
:101D300001D964E047462068C0F381000128F3D14F
:101D40006EE000BFFFF71EFB801BB84257D820682B
:101D5000C0F381000228F5D162E000BFFFF712FB5B
:101D6000801BB8424BD8206810F00C0FF6D157E01A
:101D70002978890705D52168AA6821F0F001114367
:101D800021602978C90741D06968012914D0006809
:101D9000022914D08007002840DA206820F00300D0
:101DA00008432060FFF7EEFA0746686801280ED066
:101DB000022818D026E031E000688003EBE78001BC
:101DC000E9E700BFFFF7DEFAC11B414517D82068DD
:101DD000C0F381000128F5D118E000BFFFF7D2FA67
:101DE000C11B41450BD82068C0F381000228F5D102
:101DF0000CE000BFFFF7C6FAC11B414502D9032022
:101E0000BDE8F087206810F00C0FF3D18AF800903D
:101E1000DAF8000000F00F00B04201D00120EFE737
:101E20002878400705D52068E96820F4E050084389
:101E300020602878000706D52068296920F46040D2
:101E400040EAC10020600020FFF7D0FE0020D7E765
:101E5000003C02400038024000B500F043F8084959
:101E60000968F02292FAA2F201F0F001B2FA82F2CD
:101E7000D140044A515CC8400349086000BD0000DD
:101E800008380240E09500083C00002000B5FFF74C
:101E9000E3FF074909684FF4E05292FAA2F201F415
:101EA000E051B2FA82F2D140024A515CC84000BD12
:101EB00008380240E095000800B5FFF7CDFF07495C
:101EC00009684FF4604292FAA2F201F46041B2FA5A
:101ED00082F2D140024A515CC84000BD083802403D
:101EE000E095000830B51948006810F00C0118485A
:101EF00012D0184C04290ED008290DD11349091FFE
:101F00000A6802F03F030A68550247F6C07204D51A
:101F1000B4FBF3F003E0204630BDB0FBF3F00B68F8
:101F20000968134092FAA2F2B2FA82F2D3405843FF
:101F30004FF4403292FAA2F201F44031B2FA82F246
:101F4000D140491C4900B0FBF1F030BD08380240D7
:101F50000024F40040787D012DE9F84F0446007814
:101F6000DFF814A3C54DC0074FF000064BD0DAF8D8
:101F700000105046C1F38101012908D00068C0F368
:101F8000810002280AD1281D0068400206D5286871
:101F9000800338D56068002871D034E0DFF8DC9227
:101FA00009F1020989F80060FFF7ECF9804641F277
:101FB000883705E0FFF7E6F9A0EB0800B8427DD8C6
:101FC00028688003F6D4207989F80000606868B139
:101FD000FFF7D8F9804605E0FFF7D4F9A0EB080039
:101FE000B842ECD828688003F6D50CE0FFF7CAF9B0
:101FF000804605E0FFF7C6F9A0EB0800B842DED83E
:1020000028688003F6D420789D4F80074FF0010B9D
:1020100045D5DAF80010504611F00C0F4FF0F809D2
:1020200009D00068C0F3810002280BD19248001F3C
:102030000068400206D42868800714D5E0680128AB
:102040001DD110E0E068D8B1C7F800B0FFF79AF9E9
:10205000804605E0FFF796F9A0EB08006428AED8AB
:1020600028688007F6D5286899FAA9F22169B2FA9A
:1020700082F220F0F8009140084328600FE0F8E079
:102080003E60FFF77FF9804606E000BFFFF77AF970
:10209000A0EB0800642811D828688007F6D42078BF
:1020A000000729D5DFF8D0917648616909F16C09FC
:1020B00099B1C0F800B0FFF765F900E085E080460F
:1020C00006E000BFFFF75EF9A0EB080064287CD8AB
:1020D000D9F800008007F5D50EE00660FFF752F949
:1020E000804605E0FFF74EF9A0EB080064286CD8A5
:1020F000D9F800008007F5D42078400756D55E480F
:102100003830016841F080510160DFF87C91D9F8E6
:10211000001041F48071C9F80010FFF733F98046D0
:1021200006E000BFFFF72EF9A0EB080064284CD8AA
:10213000D9F80000C005F5D5DFF83C8108F1680842
:1021400088F80060FFF71EF941F28839009005E039
:10215000FFF718F90099411A494536D8D8F8000018
:102160008007F5D4207A88F80000A068012803D001
:10217000FFF708F9009015E0FFF704F9009005E07B
:10218000FFF700F90099411A49456AD8D8F80000CC
:102190008007F5D50AE000BFFFF7F4F80099411A6F
:1021A00049455ED8D8F800008007F5D4A069E0B3AF
:1021B000DAF80010C1F3810102295AD002283E66E4
:1021C00004D0FFF7DFF804464EE04AE0FFF7DAF804
:1021D000064604E0FFF7D6F8801B642841D828683B
:1021E0008001F7D4D4E90710084347F6C07292FA89
:1021F000A2F2616AB2FA82F29140A26A4FF0FF3312
:1022000003EB52024FF4403393FAA3F3B3FA83F390
:102210009A40114308434FF0706292FAA2F2E16AC9
:10222000B2FA82F29140084300E020E040F0005111
:102230001148001F0160C7F860B0FFF7A3F804461B
:1022400005E000BFFFF79EF8001B642809D8286846
:102250008001F7D50BE000BFFFF794F8001B64285E
:1022600002D90320BDE8F88F28688001F4D400204B
:10227000F8E70120F6E70000083802400038024085
:1022800000004742800E474200700040704710B582
:10229000401EB0F1807F01D3012010BD4FF0E0243B
:1022A00060610F21601701F06AFE0020A061072025
:1022B0002061002010BD10B5FFF7E8FF10BD70478A
:1022C000704730B590F83820012A20D0012280F8DC
:1022D0003820022380F8393003685C6824F07004E9
:1022E0005C6003685C680D682C435C6003689C68F4
:1022F00024F080049C6003689C6849680C439C60DF
:1023000080F83920002180F83810084630BD0220BE
:1023100030BD10B5040003D094F8390010B104E0CA
:10232000012010BD204600F00DF8022084F839008D
:10233000211D206803F0C2FA012084F83900002032
:1023400010BD000070B501681C4886B0B1F1804F27
:1023500010D01B4A91420BD1016841F0020101608B
:10236000002211461D20FFF769FC1D20FFF75AFCD3
:1023700006B070BD016841F00101016022200090AB
:1023800002250024CDE901540126CDE90346694622
:102390000C48FEF70DFF4FF440600090CDE901546A
:1023A000CDE9034669460848FEF702FF00221146C0
:1023B0001C20FFF743FC1C20D8E7000040380240F7
:1023C0000004004000000240000402400168CA68A6
:1023D00042F00102CA600068016841F00101016039
:1023E0000020704770B5044690F83800012817D0D7
:1023F000012584F83850022084F83900206882686A
:1024000022F0770222F47F4282600868502837D099
:102410000DDC202859D005DC88B3102841D151E0CB
:10242000022070BD302853D040283AD13FE06028C8
:102430002ED070280BD0B0F5805F03D0B0F5005FD0
:102440002FD110E02068816821F0070115E0CB68EA
:10245000D1E90121206803F09CFA2168886840F0E6
:10246000770088601DE0CB68D1E90121206803F086
:1024700090FA2068816841F48041816011E01EE09B
:10248000CA684968206803F04DFB5021206806E0C7
:10249000CA684968206803F056FB6021206803F091
:1024A00082FA84F83950002084F8380070BDCA6878
:1024B0004968206803F036FB40212068EFE70021DF
:1024C0002068ECE710212068E9E720212068E6E792
:1024D00030212068E3E7704770B504460068016961
:1024E0004FF00005C943890715D4C168C94389075E
:1024F00011D4E91E016101202076206880698007DF
:10250000204602D0FFF7E7FF04E000F0C3F82046C2
:1025100000F0A5F9257620680169C943490717D459
:10252000C168C943490713D46FF004010161022057
:1025300020762068806910F4407F204602D0FFF7A3
:10254000CAFF04E000F0A6F8204600F088F92576DE
:1025500020680169C943090716D4C168C94309073E
:1025600012D46FF008010161042020762068C06950
:102570008007204602D0FFF7AEFF04E000F08AF8A3
:10258000204600F06CF9257620680169C943C90628
:1025900017D4C168C943C90613D46FF01001016193
:1025A000082020762068C06910F4407F204602D0C1
:1025B000FFF791FF04E000F06DF8204600F04FF9BE
:1025C000257620680169C943C90708D1C168C94394
:1025D000C90704D1891E0161204600F05DF9206819
:1025E0000169C943090609D4C168C943090605D46C
:1025F0006FF0800101612046FFF761FE20680169EC
:10260000C943490609D4C168C943490605D46FF0D6
:1026100040010161204600F040F920680169C9438A
:1026200089060BD4C168C943890607D46FF020011D
:1026300001612046BDE87040FFF742BE70BD70B535
:10264000044690F8380001280DD0012584F8385050
:10265000022084F8390042B1042A0AD0082A0CD09A
:102660000C2A11D10DE0022070BD206803F0A4F9FE
:102670000AE0206803F0CCF906E0206803F0FAF9DC
:1026800002E0206803F026FA84F83950002084F82C
:10269000380070BD074A0168914209D1007E0128C7
:1026A00006D1486B00F57A60486303490020086052
:1026B00070470000000400403800002010B50400FE
:1026C00003D094F8390010B104E0012010BD204679
:1026D00000F00CF8022084F83900211D206803F076
:1026E000EDF8012084F83900002010BD704700008B
:1026F00010B50268044631B1042908D0082920D059
:102700000C2908D121E0D06840F0020002E0D06836
:1027100040F00400D0600122206803F02FF90D4939
:102720002068884202D00C49884203D1416C41F4B0
:10273000004141642068016841F00101016000200E
:1027400010BDD06840F00800E4E7D06840F0100009
:10275000E0E70000000001400004014070B50446BD
:1027600090F838000D4601280DD0012684F8386015
:10277000022084F8390042B1042A18D0082A2AD04D
:102780000C2A4DD139E0022070BD206803F014F905
:102790002068816941F0080181612068816921F028
:1027A00004018161206881692A69114311E0206870
:1027B00003F02EF92068816941F40061816120688D
:1027C000816921F480618161206881692A6941EA17
:1027D0000221816124E0206803F04CF92068C1697E
:1027E00041F00801C1612068C16921F00401C161A3
:1027F0002068C1692A69114311E0206803F06AF971
:102800002068C16941F40061C1612068C16921F497
:102810008061C1612068C1692A6941EA0221C16100
:1028200084F83960002084F8380070BD10B50400C9
:1028300003D094F8390010B104E0012010BD204607
:1028400000F00CF8022084F83900211D206803F004
:1028500035F8012084F83900002010BD704770471A
:1028600010B504460068012203F088F80849206882
:10287000884202D00749884203D1416C41F40041AB
:1028800041642068016841F001010160002010BD31
:10289000000001400004014070477047704700008D
:1028A00038B501680446086810F0010FC86800F4E4
:1028B000807007D030B1086848680090E06B40F045
:1028C0000100E06308684A69C0F3400002F00102B9
:1028D00038B132B1086848680090E06B40F00400FD
:1028E000E0630868C0F38002486900F001003AB173
:1028F00030B1086848680090E06B40F00200E06387
:102900000868C0F3C002486900F001003AB130B174
:10291000086848680090E06B40F00800E0630868D1
:10292000C968C0F3401001F0200118B111B1204670
:1029300003F022F921680868C968C0F3C01001F0EB
:10294000800118B111B1204603F026FA2168086809
:10295000CA68C0F3801002F040020125C0B1BAB1CC
:10296000CA68204622F04002CA6094F83910322921
:1029700017D00168CA6822F48072CA6001684A6987
:1029800022F001024A6180F8395000BF00F044F99A
:10299000E06B002804D084F839502046FFF77EFF12
:1029A00038BD222180F83910F0E710B5040003D0BB
:1029B00094F8390010B104E0012010BD204600F069
:1029C00021F8022084F839002068C16821F4005100
:1029D000C160204603F024F92068016921F4904188
:1029E00001612068416921F02A0141612068C168C4
:1029F00041F40051C1600020E063012084F83900F7
:102A0000002010BD10B51F4C0368002002210122D8
:102A100086B0A34217D11C4B1C6844F400241C60F0
:102A2000CDE902204FF44063CDE900310820049045
:102A300069461648FEF7BCFB002211463420FFF71A
:102A4000FDF834201AE0124CA34219D10E4B1B1D85
:102A50001C6844F010041C60CDE902204FF4C063F0
:102A6000CDE900310720049069460A48FEF7A0FB33
:102A7000002211462520FFF7E1F82520FFF7D2F8C4
:102A800006B010BD004C0040403802400008024033
:102A9000001001400000024090F83930012B01D0B5
:102AA000122B2CD139B332B390F83830012B26D009
:102AB000012380F8383081628285C2850021C1639C
:102AC00090F83920122A18D05FF0220280F83920BD
:102AD0000268D36843F48073D3600268536943F09B
:102AE0000103536180F838100068C16841F020018B
:102AF000C16000207047012070473222E6E70220C3
:102B00007047000000680B49884211D10A480B4900
:102B10000B4A0078087001211170732803D109490C
:102B2000002081F86A00012203490748FFF7B4BF7B
:102B300070470000001001400C0000202900002018
:102B400028000020E40500208C0100202DE9F0473A
:102B5000044690F8390099460D46012801D02228F4
:102B600058D12DB322B394F83800012852D0012651
:102B700084F838600027E76394F8390022281AD0D7
:102B80005FF0120084F83900A284E2844FF4805888
:102B9000E08C4B46401EE084A0684FF000024045A8
:102BA0004FF08001204613D103F029F908BB04E05F
:102BB0000120BDE8F0873220E4E728882168C0F3CF
:102BC00008004860206908B16D1C08E0AD1C06E0F3
:102BD00003F015F968B9216815F8010B4860E08C1D
:102BE0000028D5D14B4600224021204603F007F9AA
:102BF00008B10320DDE794F83900322806D084F8C4
:102C0000396000BF84F838700020D2E7222084F8B1
:102C10003900F7E70220CCE7704700000148FEF7D3
:102C2000B7BB00009800002010B5418D0446006835
:102C3000032903D0618D02290FD004E0016821F43B
:102C40008061016020680169606A421C62620170F3
:102C5000608D401E6085002010BD016841F4007148
:102C6000016020680169606A421C62620170608DC7
:102C7000401E608520680169606A421C62620170C2
:102C8000608D401E60852068416821F4407141607C
:102C9000232301220C49204600F0DEF908B103206D
:102CA00010BD2068016821F40061016094F83510BE
:102CB0000120422984F83500204602D0FEF7A8FC06
:102CC000C9E7FEF7FDFDC6E70200100010B5418D13
:102CD00004460068032908D90169606A421C6262DF
:102CE0000170608D401E60852DE0022917D00329F8
:102CF00015D0416821F4E061416020680169606A93
:102D0000421C62620170608D401E60852323012297
:102D10000F49204600F0A0F930B1032010BD4168F2
:102D200021F4806141600EE02068016821F40061B7
:102D3000016094F835100120422984F835002046BE
:102D400003D0FEF765FC002010BDFEF7B9FDFAE7E1
:102D5000020010002DE9F843044600680D46914634
:102D6000016841F4806101602068016841F480716C
:102D7000016013464FF0011700223946204600F04B
:102D80006BF998BB206907F10108B0F5804F10D0AE
:102D90000620216800EAD51646F0F00008614A4690
:102DA000F91D204600F09EF938B1A06B04282CD004
:102DB0001CE0E8B240F001001DE02168E8B20861C3
:102DC0004A464146204600F08DF90028EDD12068A2
:102DD000416981690091016841F4807101604B464D
:102DE00000223946204600F037F910B10320BDE833
:102DF000F88346F0F100216808614A4641462046C2
:102E000000F070F90028D0D1F1E70120EFE70000D1
:102E100070B5044600680D461646016841F480719D
:102E20000160134600224FF00111204600F014F912
:102E300098B92069B0F5804F11D00620216800EACA
:102E4000D51040F0F000086132460D49204600F0F0
:102E500049F938B1A06B042810D0032070BD05F0EB
:102E6000FE0000E0E8B22168086105493246891F8A
:102E7000204600F037F90028ECD170BD012070BD6C
:102E80000800010010B5418D0446006841B1616A37
:102E90004A1C626209780161608D401E60851BE0FA
:102EA000416821F4E06141602068016841F40071EB
:102EB0000160232301220B49204600F0CDF808B120
:102EC000032010BD94F835100120322984F8350014
:102ED000204603D0FEF7A2FB002010BDFEF7F1FC58
:102EE000FAE70000020010002DE9F84F04460068E0
:102EF0000F4698460168164641F4806101602068DB
:102F0000016841F4807101604FF0011900224946C7
:102F100020460A9B00F0A0F8E8BB216807F0FE00FD
:102F2000086109F1010A514620460A9A00F0DAF8D0
:102F300018B1A06B042842D031E020684169806953
:102F40000090DFF880B00022594620460A9B00F02E
:102F500083F800BBF5B2B8F1010F09D02168300A3F
:102F600008610022594620460A9B00F075F890B986
:102F7000206805610022594620460A9B00F06CF843
:102F800048B92068016841F4807101600022494617
:102F900020460A9B00E002E000F05EF810B103203A
:102FA000BDE8F88F2168F8B240F001000861514691
:102FB00020460A9A00F096F80028BAD1F0E70120DE
:102FC000EEE70000800001002DE9F84304460068A8
:102FD0000D46DDF8209001689846164641F4807150
:102FE00001604B4600224FF00111204600F034F8FA
:102FF00050BB216805F0FE0008614A46154920468D
:1030000000F070F828B1A06B04281DD10120BDE8A4
:10301000F8832068416980690E4F00907E374B46E7
:1030200000223946204600F017F868B9F5B2B8F129
:10303000010F0BD02168300A08614B460022394647
:10304000204600F009F808B10320E0E72068056198
:103050000020DCE7020001002DE9F05F1E469046EB
:103060000C460546FEF78EF981464FF0000A4FF0F8
:10307000010BC4F30747B8F1000F09D024E0701C1E
:1030800006D0D6B1FEF77EF9A0EB0900B04214D805
:103090002868012F06D0806924EA00000004000C93
:1030A0001BD0ECE74069F7E7701C0DD02EB1FEF79E
:1030B00069F9A0EB0900B04206D985F835B085F86A
:1030C00034A00320BDE8F09F2868012F07D0806955
:1030D00024EA00000004000CE6D00020F2E740697A
:1030E000F6E700002DE9F04791460D460446FEF74D
:1030F00049F9824600274FF00108C5F3074628E04A
:1031000020684069C043400511D42068016841F43B
:103110000071016021686FF4806048610420A06341
:1031200084F8358084F834700120BDE8F087B9F167
:10313000FF3F0ED0B9F1000F05D0FEF723F9A0EB49
:103140000A01494505D984F8358084F83470032094
:10315000EBE72068012E07D0D0F8180025EA000020
:103160000004000CE1D0CBE74069F7E70FB41C483E
:10317000A0F1D80190ED030AA0F16C0280ED040AE1
:103180009DED060A80ED030A91ED030A81ED040A24
:103190009DED040AB1EE400A81ED030A92ED030AA7
:1031A00082ED040A9DED050AB1EE400A82ED030AA4
:1031B000DDED1B0A9FED0B0A60EE800AC1ED000AEF
:1031C000DDED1A0A20EE800ADFED070A82ED000A23
:1031D0009DED1C0A20EE200A80ED000A04B0704725
:1031E00030030020E12E65C2E12E65422DE9F04159
:1031F0002D4C0E46010020682C4A00F101002C4F96
:103200004FF000054FF40048206005D01E2301292F
:1032100013D002292FD125E02D2190FBF1F301FBE2
:10322000130129B9792803DD41461046FEF7A1F8BC
:103230002068B0F5C47F0EDC1DE090FBF3F103FBCA
:10324000110129B93D2803DD41461046FEF791F8EA
:103250002068D1280FDD002241463846FEF78DF860
:10326000256008E090FBF3F103FB110018B941461B
:103270001046FEF77EF80F4890F87E100E480129A0
:1032800005D0BDE8F04100221021FEF776B80A21F2
:1032900096FBF1F1890704D1BDE8F0411021FEF75A
:1032A00068B8BDE8F0810000040000200010024072
:1032B00000040240640500200000024010B50446EE
:1032C0002DED068B90ED160A9FED288A80ED170AEA
:1032D00090ED130A20EE080A10EE100AFDF79FF990
:1032E0009FED23AB41EC100BB0EE4A1AF0EE6A1AD8
:1032F00003F05AFCB0EE409A94ED120AF0EE609A98
:10330000B8EEC00A20EE080A10EE100AFDF787F9A1
:1033100041EC100BB0EE4A1AF0EE6A1A03F044FCCE
:103320009FED158B51EC100B53EC182BFDF732F879
:1033300053EC192BFDF7A0F853EC182BFDF724F8EC
:1033400041EC180B206DFDF76AF953EC182BFDF7D3
:1033500021F8FDF7A7F900EE100ADFED090A80EE6B
:10336000201A84ED161ABDEC068B10BD00401C46D9
:10337000EBE2361AC05BC83F000000000088C34083
:10338000000082422DE9FF47044690F838100320E0
:1033900001254FF0000903AE4FF47A7804F1640779
:1033A00007297CD2DFE801F00416411C3E404400AE
:1033B000CDE9006501234822EE213846CDF808808A
:1033C000FEF75CFB14F8380F401C207084F828903E
:1033D000BDE8FF87022084F8380084F86090F7E7A2
:1033E000CDE9006001230022EE21CDF808803846A7
:1033F000FEF768FA9DF80D109DF80C00012301EB13
:10340000002100EB012044F81C0FCDE90065582293
:10341000EE213846CDF80880FEF730FB207F401CB7
:103420002077D5E7052000E0062084F83800CFE7B4
:10343000CDE9006001230022CDF80880EE21384656
:10344000FEF740FA9DF80D109DF80C0001EB0021ED
:1034500000EB01202062204600F054F8A16C606D62
:103460009FED141A091A00EE101A01234822F8EEF3
:10347000C00A00EE100AEE213846B8EEC00A00EE8F
:10348000810ABDEEC00A84ED120A84ED150ACDE969
:103490000065CDF80880FEF7F1FA204600E006E06E
:1034A000FFF70CFF84F8385084F8605090E784F8F8
:1034B00038908DE78114BB3D2DE9FF470546002478
:1034C00003AE4FF47A774FF002084FF0A00900F1F5
:1034D000640A00BF09EB4400CDE9006882B2012311
:1034E000EE2150460297FEF7EDF99DF80D009DF88C
:1034F0000C1000EB012045F82400641C072CE9DBCC
:10350000BDE8FF872DE9F0410446006A6169494240
:1035100000EB0120C11705460E46C4E90C01FDF77A
:103520001AF800EE900A9FED290A20EE801AD4EDD9
:10353000060AF8EEE00A20EE800A61EE000A9FED2E
:10354000240AB4EE001A00EE810ABDEEC00A84ED32
:103550000F0A2269A2FB057CD31703FB05C002FBFF
:103560000600790A41EAC051A06880030A18226463
:10357000E36828463146A3FB00564FEAE37707FB92
:10358000006003FB01004FEA805141EA9520616829
:103590004FEA4131401860644FEAE07300EB53504A
:1035A000E1694FEAE0204FEAE17301EB93514FEA02
:1035B000A12100FB01F0A0EB02004FEAE07100EB5B
:1035C000D1404FEA6030A064BDE8F0810000803A4D
:1035D0000000FA442DE9F04704462DED048B84B039
:1035E000DFED438A434FB0EE689AB0EE688A5EE042
:1035F00000208DF80E008DF80D008DF80C004FF0B6
:10360000010803AE4FF47A750096CDE9018504F107
:10361000640043464822EE218246FEF72FFA0A2034
:10362000FDF77EFD4FF003090096CDE901950123DA
:103630000022EE215046FEF745F99DF80D109DF849
:103640000C00012301EB002100EB0120E06100965A
:10365000CDE901855822EE215046FEF70FFA0A20E7
:10366000FDF75EFD0096CDE9019501230022EE21D4
:103670005046FEF727F99DF80D109DF80C0001EB60
:10368000002100EB012020622046FFF73BFF94ED74
:10369000120AB8EEC00A30EE099A94ED0F0AB8EE9D
:1036A000C00A70EE288AB7EE000A38EE008A18EEDB
:1036B000100AB8429CDBDFED100A9FED101A89EE6C
:1036C000200AC8EE810A9FED0E1A84ED130ABDEEA2
:1036D000C00A70EE810AC4ED140A84ED150AE0698F
:1036E0006062206AA06204B0BDEC048BBDE8F08784
:1036F00000000000000048420000484200409C4595
:103700000080884370B504460D462A226430FCF7D9
:1037100088FD688DA4F88E00092205F12C0104F1C2
:103720009000FCF77EFD95F8350084F89900A86BB1
:10373000C4F89C002046FFF7BFFE2046BDE870405D
:10374000FFF748BF7FB50E480C490024C0E90014BC
:103750008460046144620125C46285610562C561BB
:103760004561C460FDF7D1FB0920CDE9000569463C
:1037700002940348FDF734FB7FBD000000200140A8
:103780005400002030B5234885B0016841F0100195
:103790000160016841F001010160016841F002012E
:1037A0000160016841F004010160016841F0080115
:1037B0000160C013009001250024CDE90154694641
:1037C00015480394FDF7F4FC4FF401600090CDE937
:1037D0000154694611480394FDF7EAFC0095CDE9D0
:1037E000015403940E4C69462046FDF7E1FC02218A
:1037F0000C480291CDE9001069462046FDF7D8FC3F
:10380000002211460720FEF719FA0720FEF70AFAF0
:1038100005B030BD303802400010024000000240C8
:10382000000C02400000311010B51F488EB04FF060
:1038300080410024C0E900141C4984604FF47A726E
:103840000968B1FBF2F1C0E90314FEF762FD4FF421
:103850008050079007A91448FEF7C4FD1248FEF7F0
:10386000E5FF3020CDE90B040BA90F48FEF729FD39
:103870006020CDE900040294002269460A480494BD
:10388000FEF76CFF042269460748FEF767FF08222F
:1038900069460548FEF762FF0C2269460248FEF7BA
:1038A0005DFF0EB010BD0000D40000203C000020E1
:1038B00010B518488EB0164901601749174A002400
:1038C0000968B1FBF2F1491EC0E90114611EC0E9AB
:1038D0000314FEF71EFD4FF48050079007A90D4812
:1038E000FEF780FD0B48FEF7E9FE0B940BA9094893
:1038F0000C94FEF7E6FC4FF47A60CDE900400294A8
:103900000022694603480494FEF799FE0EB010BDEC
:1039100000040040100100203C00002080841E00B4
:1039200070B504002AD0022084F8350020680168B0
:1039300021F001010160FEF7A9FA35492368B0FBC7
:10394000F1F25A68B0FBF1F192B222F03F0289B273
:103950000A435A60226813684FF6FE752B401360C5
:103960002C4B62689A420BD85200B0FBF2F080B246
:10397000042800D20420491C226823E0012070BDE5
:10398000A3685BB102EBC20303EB0212B0FBF2F0DF
:1039900080B240F48040020506D007E002EB42020C
:1039A000B0FBF2F080B2F6E740F001004FF49672FF
:1039B00051434FF47A72B1FBF2F1491C226840F492
:1039C000004089B211622168C8612068016841F035
:1039D00001010160226810684FF6F53180B208409D
:1039E000A18B238C194389B201431160D4E90310E0
:1039F0000843216888602068016841F00101016086
:103A00000020A063012084F83500002070BD000074
:103A100040420F00A08601002DE9F04F8DB0054611
:103A200000924948484ADFF81CB101230024DFF81E
:103A300018A13030203212279E034FF0040C4FF0B3
:103A4000020959451CD1DAF8008048F00208CAF88A
:103A50000080DAF8008028F00208CAF80080C5F873
:103A600000B0016841F400110160106840F00200EC
:103A70001060CDE90973C020089008A933481FE001
:103A8000DFF8CCB0594523D1DAF8008048F020089F
:103A9000CAF80080DAF8008028F02008CAF8008010
:103AA000C5F800B0016841F480010160106840F081
:103AB00020001060CDE9097303200890254808A96B
:103AC000CDE90B3CFDF774FBCDE90246019428E0FB
:103AD000DFF8848041452FD1C5F80080016841F4AA
:103AE00000010160106840F001001060106840F0B3
:103AF00004001060CDE909734FF480700890CDE99F
:103B00000B3C08A91548FDF753FB4FF400700890D3
:103B100008A91348FDF74CFB4FF44040CDE90240A3
:103B2000019604940594069420226946281D079462
:103B3000FCF777FB85F835902846FFF7F1FE0DB0CE
:103B4000BDE8F08F005400401038024000040240ED
:103B50000058004000140240005C00400000024099
:103B60000008024000B5D1ED010A91ED100AD0ED38
:103B7000001AD0ED012A80EE806AD1ED020A90EDA4
:103B8000023A90ED032AD1ED075A91ED085AD1ED92
:103B9000094A0246C0EE803AD1ED030AB5EEC06A8A
:103BA00080EE804AF1EE10FA09D1F5EEC03AF1EE5E
:103BB00010FA04D1B5EEC04AF1EE10FA3BD026EE71
:103BC000060A03EEA30A04EE040A05F085F926EEC0
:103BD000006A63EE803A24EE004AB6EE000A21EE57
:103BE000A21A11EEA10A62EE820A03EE021A41EE57
:103BF000C30A02EE020A63EE806A44EE416A24EED2
:103C0000204A26EE011A06EE404A9FED2C0A03EEEA
:103C1000E01A82ED0B0A82ED0C0A82ED0D0AD2ED5C
:103C20000E0A9FED270A20EE800A40EE265A00EE8B
:103C3000045A40EE014ADFED230A25EEA00A25EEE4
:103C4000201A64EEA00A62EEC03A43EE413A42EE18
:103C5000603A33EEA14A61EE803A43EE203A42EEFA
:103C6000413A73EEA24A61EE813A42EEE03A61EEE9
:103C7000A00A42EE810A42EE003A43EE400A24EEE8
:103C8000040A73EE833A04EEA40A70EE821A03EE7D
:103C9000A30A01EEA10A05F01FF924EE001A64EE52
:103CA000800A23EE802A21EE800A82ED001AC2EDFE
:103CB000010A82ED022A82ED030A00BD0000000025
:103CC0003333B33F6F12033B70B50446C81701EBA3
:103CD0009076D017A4EBA60502EB907203EBD3719C
:103CE00004EBA60303EBA20405EBA20004EB6106C0
:103CF000A5EBA20404EB6105A3EBA202A0EB61001B
:103D0000A2EB61044FF4FF61884200DB08468E425B
:103D100000DB0E468D4200DB0D468C4200DB0C467C
:103D20004FF47A71884200DC08468E4200DC0E4671
:103D30008D4200DC0D468C4200DC0C46022100F076
:103D4000C3FD0121304600F0BFFD0421284600F0EC
:103D5000BBFD2046BDE87040032100F0B5BD1FB596
:103D60000A464FF47A74012303A98DE81A0010F86B
:103D70005C1BFDF7A7FD9DF80C0004B010BD000012
:103D800070B504463B21FFF7EAFF2B4D3C216870DC
:103D90002046FFF7E4FF2870B5F900003D2100EE52
:103DA000100A2046B8EEC00A84ED010AFFF7D7FFDB
:103DB00068703E212046FFF7D2FF2870B5F9000059
:103DC0003F2100EE100A2046B8EEC00A84ED020A38
:103DD000FFF7C5FF687040212046FFF7C0FF28703D
:103DE000B5F90000D4ED010A00EE100A9FED131A98
:103DF000B8EEC02A94ED040A70EEC00A00EE810A03
:103E000084ED010AD4ED021AD4ED050A71EEE01A30
:103E100041EE810AC4ED020AD4ED061A32EE612A9F
:103E200042EE011AC4ED031A84ED040AC4ED050A3A
:103E3000C4ED061A70BD000026000020D16B2B3E99
:103E400070B504464321FFF78AFF3B4D442168705B
:103E50002046FFF784FF2870B5F90000452100EEE9
:103E6000100A2046B8EEC00A84ED0A0AFFF777FF71
:103E7000687046212046FFF772FF2870B5F90000F0
:103E8000472100EE100A2046B8EEC00A84ED0B0A66
:103E9000FFF765FF687048212046FFF760FF287034
:103EA000B5F9000094ED0D1A00EE100A2348F8EE63
:103EB000C00A94ED0A0A30EE410A84ED0A0A94ED34
:103EC0000B1AD4ED0E1A31EE611A84ED0B1AD4EDF3
:103ED0000F1A70EEE10AF0EEC01A11EE901ADFED43
:103EE000181AC4ED0C0A814201DCB0EE610AB0EE92
:103EF000C12A12EE101A84ED0A0A814201DCB0EEEA
:103F0000611AB0EEE02A12EE101A84ED0B1A81420B
:103F100001DCF0EE610ADFED0B1AC4ED0C0A20EEB5
:103F2000210A84ED070A21EE210A84ED080A20EE19
:103F3000A10A84ED090A70BD260000200000A041FE
:103F4000000000000B808B3A17B583B00A464FF48F
:103F50007A74012305A98DE81A0010F85C1BFDF79F
:103F60008DFD06B010BD10B50446FFF709FF2046D1
:103F7000FFF766FF2046BDE8104002F0F9B80907D8
:103F8000090E002806DA00F00F0000F1E02080F8AA
:103F9000141D704700F1E02080F800147047000005
:103FA0000FB400232DE9F04100F13F0508AA6C1C75
:103FB00015E000BF32F8041B90F87B6077180E0AFA
:103FC000374480F87B7090F87C70795590F87C10BD
:103FD0000E5590F87C10891C80F87C105B1C9DF8B5
:103FE0001C108B42E6DBBDE8F0015DF814FB0622F5
:103FF00091FBF2F302FB1312002A08D00F2291FB6F
:10400000F2F302FB1311002901D100F036B870471A
:10401000002211468318521C83F83D10202AF9DB38
:1040200080F87A10022280F87B1080F87C20FF2331
:1040300000F83D3F43708270C17070470FB42A2270
:1040400070B5044605A9149DFCF7EBF8BDF83E00D9
:104050006085092210A904F12C00FCF7E2F89DF814
:10406000490084F835001398A06384F83C5020463A
:1040700070BC5DF814EBFFF7CBBF38B5044600F019
:104080002BF894F87C0004F13F02411C84F83F10A7
:1040900094F87B100125C943491C8154009594F87C
:1040A0003C102023921E2046FDF79CFB30B184F883
:1040B0007E502046BDE83840FFF7AABF009594F82F
:1040C0003C10012304F17D022046FDF7A9FA0020EF
:1040D00084F87E00EDE700002DE9F04381462DEDE8
:1040E000048B91B090F87D009FEDFD9ADFEDFD9A75
:1040F000FD4DDFEDFE8AFE4CB2EE048A422870D000
:1041000039DC2946B2EE040AD1ED170A60EE801AB6
:10411000DFEDF40A91ED192A61EEA00ABDEEE01A76
:10412000D1ED180A60EE800A60EE800A22EE000AE5
:10413000FDEEE00A9FEDED2A2146332820EE020A2B
:10414000897BBDEEC00A70D00CDC30286ED004DC58
:1041500021286CD0232827D1A8E031286BD0322821
:1041600022D16FE0382872D0392871D0402870D021
:10417000412819D114E0522844D008DC43282BD020
:10418000452822D0472812D048280DD148E063287E
:104190002AD0672812D072283BD07A2804D12AE08E
:1041A000607810B100206070AFE00120FBE7A078DC
:1041B00010B10020A070A8E00120FBE7E07810B16A
:1041C0000020E070A1E00120FBE7207910B1002081
:1041D00020719AE00120FBE7E07918B10020E0713E
:1041E00093E079E00120FAE7207A10B100202072F4
:1041F0008BE00120FBE7A07A10B10020A07284E0E0
:104200000120FBE7A07910B10020A0717DE0012022
:10421000FBE7607910B10020607176E00120FBE7D8
:10422000607A30B1002060726FE015E05BE01AE068
:1042300001E00120F7E7E07A10B10020E07264E0CD
:104240000120FBE7207B28B1002020735DE058E0CF
:1042500050E018E00120F8E7607B10B100206073A7
:1042600053E00120FBE719B10020A07310B14CE02E
:104270000120FAE78DED061ACDED070A8DED080A4B
:1042800006A900200FE0E07B18B10020E07311B117
:104290003BE00120FAE78DED061ACDED070A8DED22
:1042A000080A06A9012001F007F82EE069B921EEFD
:1042B000891A06A90220BDEEC11A8DED061ACDEDB0
:1042C000070A8DED080A00F0F7FF207C10B10020EE
:1042D00020741AE00120FBE7207D10B1002020753A
:1042E00013E00120FBE7607C10B1002060740CE05B
:1042F0000120FBE7A07C10B10020A07405E00120A4
:10430000FBE7E07C30B10020E0746078794E012852
:1043100002D017E00120F7E796ED030A0321484693
:10432000BDEEC00A8DED000A96ED020ABDEEC00A90
:1043300010EE103A96ED010ABDEEC00A10EE102AFA
:10434000FFF72EFEA078012815D196ED090A03216A
:104350004846BDEEC00A8DED000A96ED080ABDEE96
:10436000C00A10EE103A96ED070ABDEEC00A10EE34
:10437000102AFFF715FEE0785F4F01281BD197ED5B
:104380000E0A20EE280ABDEEC00A8DED000A96ED59
:10439000150ADFED5A0A0321484620EE200ABDEE39
:1043A000C00A10EE103A96ED100ABDEEC00A10EEEB
:1043B000102AFFF7F5FD207901281BD197ED060A99
:1043C0000321484620EE080ABDEEC00A8DED000A22
:1043D00097ED050A20EE080ABDEEC00A10EE103A6D
:1043E00097ED040A20EE080ABDEEC00A10EE102A6E
:1043F000FFF7D6FDA079012810D1288902AEEB89FC
:10440000AA89698986E80F00E988A888CDE90001B2
:104410006B882A8808214846FFF7C2FD6079012889
:104420001BD1D5ED110A95ED130A0421FDEEE00A2A
:10443000BDEEC00A4846CDED000A8DED010A95EDAE
:104440000F0ABDEEC00A10EE103A95ED0C0ABDEE53
:10445000C00A10EE102AFFF7A3FD607A01280AD1E6
:104460002748012190ED010A4846BDEEC00A10EE32
:10447000102AFFF795FDE07A224E012823D106A9E4
:10448000002000F083FE96ED0C0A0321484620EE42
:10449000080ABDEEC00A8DED060A96ED0D0A20EE63
:1044A000080ABDEEC00A8DED070A96ED0E0A20EE51
:1044B000080ABDEEC00A8DED080A8DED000ADDE99F
:1044C0000623FFF76DFD207B0F4F01283AD106A987
:1044D00000F05CFE97ED0C0A20EE080A16E00000E2
:1044E0000000164300004843E40500200000C842D5
:1044F00030050020F8030020AC03002000007A44BF
:104500009C03002058020020C4020020BDEEC00A17
:10451000032148468DED060A97ED0D0A20EE080AA4
:10452000BDEEC00A8DED070A97ED0E0A20EE080ACF
:10453000BDEEC00A8DED080A8DED000ADDE9062307
:10454000FFF72EFD607BDFF85482012823D106A9F6
:10455000022000F01BFE98ED0C0A0321484620EED5
:10456000080ABDEEC00A8DED060A98ED0D0A20EE90
:10457000080ABDEEC00A8DED070A98ED0E0A20EE7E
:10458000080ABDEEC00A8DED080A8DED000ADDE9CE
:104590000623FFF705FDA07B012825D195ED170A1D
:1045A0000321484620EE290A20EE080ABDEEC00A83
:1045B0008DED060A95ED180A20EE080A20EE080A8D
:1045C000BDEEC00A8DED070A95ED190A20EE280A06
:1045D00020EE080ABDEEC00A8DED080A8DED000A36
:1045E000DDE90623FFF7DCFCE07B012825D195ED12
:1045F000170A0321484620EE290A20EE080ABDEEDC
:10460000C00A8DED060A95ED180A20EE080A20EE84
:10461000080ABDEEC00A8DED070A95ED190A20EED5
:10462000280A20EE080ABDEEC00A8DED080A8DEDBD
:10463000000ADDE90623FFF7B3FC207C012825D121
:1046400095ED170A0321484620EE090A20EE080AD4
:10465000BDEEC00A8DED060A95ED180A20EE080A97
:1046600020EE080ABDEEC00A8DED070A95ED190A85
:1046700020EE280A20EE080ABDEEC00A8DED080AD9
:104680008DED000ADDE90623FFF78AFC607C012836
:1046900025D196ED010A042120EE080ABDEEC00ADC
:1046A0008DED060A96ED030A20EE080ABDEEC00A5B
:1046B0008DED070A96ED060A20EE080ABDEEC00A47
:1046C0008DED080A306E00EB8000400009908DED02
:1046D000000A0190DDE906234846FFF761FCA07C53
:1046E00001281FD197ED010A0321484620EE080A50
:1046F000BDEEC00A8DED060A97ED030A20EE080A0A
:10470000BDEEC00A8DED070A97ED060A20EE080AF5
:10471000BDEEC00A8DED080A8DED000ADDE9062325
:10472000FFF73EFCE07C01281FD198ED010A032130
:10473000484620EE080ABDEEC00A8DED060A98ED47
:10474000030A20EE080ABDEEC00A8DED070A98EDB7
:10475000060A20EE080ABDEEC00A8DED080A8DEDAE
:10476000000ADDE90623FFF71BFC207D012810D19C
:104770000B480068FBF70EFF9FED0A1B53EC112B53
:10478000FBF77AFEFBF713FF024601214846FFF7CD
:1047900007FC11B0BDEC048BBDE8F08330030020B2
:1047A000080000209A999999999935402DE9F34F7D
:1047B00087B0DFF8B4A02D4F4FF496794FF4006B1B
:1047C0000DF11708012501F16C064846FCF7A8FC1D
:1047D0000024079804F028FE68283AD004215046A7
:1047E000FCF7C7FD59463846FCF7C3FD8DF8175056
:1047F000012342461E2130460095FCF7F3FF50B3DB
:104800004FF400415046FCF7B4FD10213846FCF748
:10481000B0FD022CD9D3002210213846FCF7ADFDA3
:10482000002204215046FCF7A8FD00224FF400416D
:104830000F48FCF7A2FD002259463846FCF79DFDC3
:104840000023D0220B490C4804F0A6FA09B0BDE8B9
:10485000F08F0124CAE7102301AA1E2130460095DB
:10486000FCF7DEFE641CD4E70010024000000240AA
:104870000004024098000020F803002010B5104CFE
:104880006160C4E902200F4A12685208B2FBF1F1DC
:10489000C160FDF73EFDE068FDF798FD0021E0688E
:1048A000FDF7DEFF0421E068FDF7DAFF0821E0688C
:1048B000FDF7D6FFE068BDE810400C21FDF7D0BF42
:1048C000140000203C000020134A0129D2E90232E2
:1048D0000CD0022911D0032916D0042905D1D168A2
:1048E0004143B1FBF3F0116808647047D16841435C
:1048F000B1FBF3F0116848637047D1684143B1FBE5
:10490000F3F0116888637047D1684143B1FBF3F05D
:104910001168C86370470000140000200648074A69
:10492000016B914205DA406C0549884201D90120AA
:104930007047002070470000E40500200000484256
:104940000000A8C10A480B4A016B91420DDA0A4ADD
:10495000416C914209DD094AC16B914205D9C06C95
:104960000749884201D901207047002070470000A4
:10497000E4050020000048420000A8410000A8C152
:10498000000028C1F0B5818B8289A1F5FA739A42A3
:1049900016DD838DCC1804F5FA74944210D9511A9F
:1049A00000EE101AF8EEC00A00EE103AB8EE401A07
:1049B00080EE810ADFEDBD0A20EE200A80ED0C0AB0
:1049C000418B4289A1F5FA73B6EE000ADFEDB80A11
:1049D0009A4216DD438DCC1804F5FA74944210D92E
:1049E000511A01EE101AF8EEC11A01EE103AB8EEA3
:1049F000412A81EE821A31EE401A21EE201A80ED12
:104A00000F1AC18BC289A1F5FA739A4218DDC38DC2
:104A1000CC1804F5FA74944212D9511A01EE101A06
:104A2000F8EEC11A01EE103AB8EE412A81EE821A70
:104A300031EE401ADFED9F1A21EE211A80ED111A96
:104A4000018B0289A1F5FA739A4218DD038DCC1807
:104A500004F5FA74944212D9511A01EE101AF8EEC4
:104A6000C11A01EE103AB8EE412A81EE821A31EEF7
:104A7000400AB3EE0E1A20EE010A80ED130AC18A35
:104A8000C288A1F5FA739A4212DDC48C0D1905F59E
:104A9000FA7595420CD9551A00EE105AB8EEC01AA4
:104AA00000EE104AB8EE400AC1EE001AC0ED161A28
:104AB000848A8588A4F5FA76B54212DD868CA7191A
:104AC00007F5FA77AF420CD92C1B00EE104AB8EE6E
:104AD000C01A00EE106AB8EE400AC1EE001AC0ED2E
:104AE000151A448A4588A4F5FA76B54212DD468C3B
:104AF000A71907F5FA77AF420CD92C1B00EE104A24
:104B0000B8EEC01A00EE106AB8EE400AC1EE001A04
:104B1000C0ED171A048A0588A4F5FA76B54212DDAD
:104B2000068CA71907F5FA77AF420CD92C1B00EEBB
:104B3000104AB8EEC01A00EE106AB8EE400AC1EE94
:104B4000001AC0ED181A9A4212DDC38CCC1804F575
:104B5000FA7494420CD9511A00EE101AB8EEC01A29
:104B600000EE103AB8EE400AC1EE001AC0ED191A74
:104B7000416D4FF07C52914201DD012100E00021A6
:104B800000EE101AB8EE400A80ED150A816D9142D0
:104B900001DD012100E0002100EE101AB8EE400A0C
:104BA00080ED160A90ED130AB0EEC01A11EE101A3D
:104BB0009FED411AB1F17E5F01DCB0EE410A80ED5C
:104BC000130AB0EEC00A10EE101A3C4A914209DDF9
:104BD000B2EE0E0A04F00CF8D0ED131A20EE210A02
:104BE00080ED130A90ED0C0A354A10EE101A91422E
:104BF00004DD90ED0D0A80ED0C0A06E0B5EEC00A6A
:104C0000F1EE10FA01D880ED0C1A90ED0F0A2D4943
:104C1000B0EEC01A11EE102A8A4205DD03F0E8FF5B
:104C200020EE200A80ED0F0A90ED110AB0EEC01AB6
:104C300011EE102A8A4205DD03F0DAFF20EE200A89
:104C400080ED110AD0ED0C0A90ED0D0ADFED1E1A71
:104C500070EEC00A00EEA10A80ED0C0A90ED0F1A6A
:104C6000D0ED100A31EE601A41EE210AC0ED0F0AB4
:104C700090ED112A90ED121A32EE412A02EE211A1D
:104C800080ED111AD0ED132A90ED142A72EEC22A8B
:104C900002EEA12A80ED132A80ED0D0AC0ED100A64
:104CA00080ED121A80ED142AF0BD00000000FA43D6
:104CB00000007042000070C200000000000070415F
:104CC0000000FA4300007042B290C53E2DE9F04367
:104CD0009DB0044601297DD100207A4A014606ADE7
:104CE0000DF1380645F8202046F82010401C082811
:104CF000F8DB4FF0010884F86A8073A17B4801F06B
:104D0000A1FA01F0C5F840F2DC50FCF709FA04F111
:104D10006C094BE08DF86B8001230DF16B021E21B5
:104D20004846CDF80080FCF75DFD20BB102316AA95
:104D30001E214846CDF80080FCF772FC002016AB1F
:104D400013F8101061F3070703EB4001497861F392
:104D50000F27B9B224F8101056F820208A4201DA41
:104D600046F8201055F820208A4201DD45F8201031
:104D7000401C0828E4DB20890DF1080CE389A28996
:104D800061898CE80F00E188A088CDE90001638883
:104D9000228857A1554801F055FA01F079F81820FA
:104DA000FCF7BEF910215948FCF7E3FA94F86A00C1
:104DB0000128AFD05FF0000004EB400235F820106E
:104DC000118236F82030401C591A11840828F3DB70
:104DD000E38B00E073E0208B02ADA28B618B85E852
:104DE0000F00E18AA08ACDE90001638A228A48A1E6
:104DF0003E4801F027FA01F04BF8208DE38DA28D9B
:104E0000618D85E80F00E18CA08CCDE90001638CF9
:104E1000228C49A1354801F015FA01F039F8B4F9AE
:104E200010100E20FBF7C2FFB4F912101020FBF790
:104E3000BDFFB4F914101220FBF7B8FFB4F9161037
:104E40001420FBF7B3FFB4F918101620FBF7AEFFE0
:104E5000B4F91A101820FBF7A9FFB4F91C101A2096
:104E6000FBF7A4FFB4F91E101C20FBF79FFFB4F959
:104E700020101E20FBF79AFFB4F922102020FBF728
:104E800095FFB4F924102220FBF790FFB4F9261007
:104E90002420FBF78BFFB4F928102620FBF786FFB0
:104EA000B4F92A102820FBF781FFB4F92C102A202E
:104EB000FBF77CFFB4F92E102C20FBF777FF1DB019
:104EC000BDE8F08320A1070052432063616C696252
:104ED0003A28666F7220456E6420706C6561736558
:104EE0002073656E64202773272900008C0600203C
:104EF00025642C25642C25642C25642C25642C2504
:104F0000642C25642C25640D000000000000024084
:104F10006368616E6E656C206F66667365743A25B2
:104F2000642C25642C25642C25642C25642C256494
:104F30002C25642C25640D006368616E6E656C2001
:104F40007363616C65203A25642C25642C25642CE0
:104F500025642C25642C25642C25642C25640D00E7
:104F60000FB42A2270B5044605A96C30149DFBF7D6
:104F700058F9BDF83E00A4F89600092210A904F1E2
:104F80009800FBF74EF99DF8490084F8A1001398AA
:104F9000C4F8A40029462046FFF798FE204670BCBE
:104FA0005DF814EB00F03CB8F0B505460A2091FB23
:104FB000F0F200FB121087B000280FD101268DF807
:104FC000176005F16C0033460DF117021E210746EC
:104FD0000096FCF707FC18B185F86B6007B0F0BDD0
:104FE000102301AA1E2138460096FCF719FB002168
:104FF0000DF1040010F8112062F3070400EB4102E8
:10500000527862F30F2425F81140491C0829F1DB7E
:105010002846FFF7B7FC002085F86B00DEE70000AC
:1050200010B5044686B00E20FBF7ACFE208210209F
:10503000FBF7A8FE60821220FBF7A4FEA0821420DA
:10504000FBF7A0FEE0821620FBF79CFE20831820D1
:10505000FBF798FE60831A20FBF794FEA0831C20C8
:10506000FBF790FEE0831E20FBF78CFE20842020BF
:10507000FBF788FE60842220FBF784FEA0842420B6
:10508000FBF780FEE0842620FBF77CFE20852820AD
:10509000FBF778FE60852A20FBF774FEA0852C20A4
:1050A000FBF770FEE085208B0DF1080CE38BA28BE3
:1050B000618B8CE80F00E18AA08ACDE90001638A48
:1050C000228A0EA1184801F0BDF800F0E1FE208D03
:1050D0000DF1080CE38DA28D618D8CE80F00E18C41
:1050E000A08CCDE90001638C228C10A10E4801F048
:1050F000A9F806B0BDE8104000F0CABE52433A0D10
:105100006368616E6E656C206F66667365743A25C0
:10511000642C25642C25642C25642C25642C2564A2
:105120002C25642C25640D008C0600206368616EBC
:105130006E656C207363616C65203A25642C256470
:105140002C25642C25642C25642C25642C25642CAA
:1051500025640D000FB4B3EE041A9DED130A0A483E
:10516000C0EE010A90ED010A30EE600A80ED010AFE
:105170009DED0F0AD83880ED010A9DED110A6C30C3
:1051800080ED010A04B070473003002010B50C46D2
:1051900080B1012818D002280BD12E20FBF7F2FD98
:1051A00020603020FBF7EEFD60603220FBF7EAFD67
:1051B000A06010BD3420FBF7E5FD20603620FBF732
:1051C000E1FD60603820F1E73A20FBF7DBFD20606D
:1051D0003C20FBF7D7FD60603E20E7E70FB42DE9E8
:1051E000F0412DED028B179CE07B401CC0B2E073B8
:1051F000A189002541B1102800D9A581BDEC028B01
:10520000BDE8F0015DF814FBA07B01281FD12188C7
:1052100060889FED230ADFED230A8142A0EB0100A5
:1052200002D34FF6FF71084401EE100A1E49B8EE92
:10523000C11AC1EE001A21EEA00A10EE100A84ED88
:10524000010A884201DAA57301E00220A073174F1A
:10525000012211463846FCF790F80898406A86B259
:105260000898406A9FED128B20800898406A80B2AF
:10527000801BFBF77EF941EC100B01F089FC53EC2D
:10528000182B51EC100BFBF7DDF9EED300220121B6
:105290003846FCF772F80120A081E573AEE7000004
:1052A00000004843333353400000E143000C024008
:1052B0000000000000003E4010B50C460A680021C6
:1052C000022A00DA21606268022A00DA6160A268BC
:1052D000022A00DAA160A0B1012820D002282CD136
:1052E000208801B22E20FBF761FDA08801B230209A
:1052F000FBF75CFD208901B23220BDE81040FBF7CE
:1053000055BD208801B23420FBF750FDA08801B2C2
:105310003620FBF74BFD208901B23820EDE72088CD
:1053200001B23A20FBF742FDA08801B23C20FBF716
:105330003DFD208901B23E20DFE710BD10499FED01
:105340000F0A01F16C0281ED0D0A01F1D80082ED26
:105350000D0A80ED0D0A80ED080A90ED030A80ED3C
:10536000010A80ED0A0A80ED1A0A91ED030A81ED27
:105370001A0A92ED030A82ED1A0A70470000000033
:10538000580200202DE9F047E7490020E74C0A7851
:1053900086B0012A66D14A78482A56D009DCA2F1A3
:1053A0004102072A5CD2DFE802F011572D5B265B31
:1053B0001800672A18D004DC522A38D0632A4FD14B
:1053C00027E0722A3AD07A2A4AD129E0627812B1CB
:1053D0000022627044E00122FBE7A27812B10022B1
:1053E000A2703DE00122FBE7E27812B10022E270F8
:1053F00036E00122FBE7227912B1002222712FE070
:105400000122FBE7E27912B10022E27128E00122D9
:10541000FBE7227A12B10022227221E00122FBE78F
:10542000A27A12B10022A2721AE00122FBE7A2794D
:1054300012B10022A27113E00122FBE7627912B1DE
:10544000002262710CE00122FBE7627A12B10022B5
:10545000627205E00122FBE7227B42B10022227347
:1054600000220A706178B24D012902D01BE00122AE
:10547000F5E795ED030AAD48AEA1BDEEC00A64386C
:105480008DED000A95ED020ABDEEC00A10EE103A4D
:1054900095ED010ABDEEC00A10EE102A00F0D2FE12
:1054A00000F0F6FC0120A178012919D195ED0C0A34
:1054B0009E48A0A1BDEEC00A64388DED000A95EDAE
:1054C0000B0ABDEEC00A10EE103A95ED0A0ABDEEC9
:1054D000C00A10EE102A00F0B5FE00F0D9FC012041
:1054E000E178DFF85C92012921D199ED0E0ADFED18
:1054F000950A20EE200ABDEEC00A8DED000A95ED5A
:10550000150ADFED910A894890A120EE200A64383F
:10551000BDEEC00A10EE103A95ED100ABDEEC00ABD
:1055200010EE102A00F08EFE00F0B2FC012021796E
:10553000012921D1D9ED060AB2EE040A7B4860EEBA
:10554000800A7CA16438FDEEE00ACDED000AD9EDB9
:10555000050A60EE800AFDEEE00A10EE903AD9ED01
:10556000040A20EE800ABDEEC00A10EE102A00F0F8
:1055700069FE00F08DFC0120E179DFF8DC81012972
:105580000ED108F10C0169482EC98DE82E00D8E92A
:10559000012372A1643800F055FE00F079FC01206F
:1055A000217AA246012920D1D8F85800FBF737F814
:1055B00004460D46D8F85000FBF731F806460F4672
:1055C000D8F84C00FBF72BF80A468DE8C500CDE96A
:1055D0000445564866A16438D8F84830D8F83C20CD
:1055E00000F030FE00F054FC01209AF80A105546F5
:1055F000012921D1D9F84400FBF711F898ED170AD9
:10560000D8ED160A0F46064670EE600A9FED5F1A47
:1056100080EE810A10EE100AFBF701F841EC100B46
:10562000424853EC102B5AA16438CDE9006700F0D2
:1056300009FE00F02DFC0120A979584C012914D154
:10564000208902AEE389A289618986E80F00E1889A
:10565000A088CDE9000135486388228850A16438CC
:1056600000F0F0FD00F014FC0120697901291FD140
:10567000D4ED110A94ED130A2C48FDEEE00ABDEEBC
:10568000C00A4AA1CDED000A8DED010A94ED0F0A82
:105690006438BDEEC00A10EE103A94ED0C0ABDEE6F
:1056A000C00A10EE102A00F0CDFD00F0F1FB012041
:1056B000697A01290ED0297B01291DD0002830D01C
:1056C0001A483EA1643800F0BDFD06B0BDE8F047C1
:1056D00000F0DEBB3A484068FAF7A1FF41EC100B3E
:1056E000124853EC102B37A1643800F0ABFD00F0EA
:1056F000CFFB297B0129E3D134480068FAF74AFF40
:105700009FED331B53EC112BFAF7B6FEFAF74FFF60
:105710000246064830A1643800F094FD00F0B8FB62
:10572000CEE706B0BDE8F08728000020F006002094
:10573000F803002025642C25642C25642C0000002F
:10574000AC0300200000C84200007A4425642C25E8
:10575000642C2564000000009004002025642C25A2
:10576000642C25642C25642C25642C256400000001
:1057700025642C25642C25302E32662C25302E32C3
:10578000662C25302E33662C00000000A69BC43CFE
:1057900025302E32662C25302E326600E40500209E
:1057A00025642C25642C25642C25642C25642C254B
:1057B000642C25642C25642C000000000D000000E2
:1057C0009C03002025302E32662C000008000020AB
:1057D0009A9999999999354025642C0010B5FCF750
:1057E000E3F9BDE81040FCF766BD000030B516488F
:1057F00091B0016841F0805101601448016841F4A2
:10580000404101600120039002240620049000948E
:10581000002506941020CDE907504FF4A870CDE97B
:10582000090404200B906846FCF796FB0CA90D2098
:1058300081E831004FF4A0500F90109005210CA882
:10584000FCF72EFA11B030BD403802400070004025
:105850001048016841F4700101600F48016841F08F
:10586000010101600C4A00210832116002680B4BF3
:105870001A400260031D0A4A1A60026822F480225C
:10588000026005480C300160024958068039086002
:105890007047000088ED00E000380240FFFFF6FE90
:1058A000103000240148FCF717BE0000D40000208F
:1058B0000148FCF711BE000010010020F0B502689D
:1058C000234B244D244E254F254C4FF0804C9842BD
:1058D00009D0604507D0A84205D0B04203D0B842F5
:1058E00001D0A04204D122F0700E4A6842EA0E02B2
:1058F00098421BD0604519D0A84217D0B04215D0AD
:10590000B84213D0A04211D0164DA8420ED0164D69
:10591000A8420BD0154DA84208D0154DA84205D07D
:10592000144DA84202D0144DA84203D122F4407570
:10593000CA682A4302608A68C2620A688262984220
:1059400001D0A04201D10969016301214161F0BD8B
:10595000000001400004004000080040000C00402E
:105960000004014000400140004401400048014063
:1059700000180040001C00400020004010B501232A
:10598000046A8B409C430462036A8A4013430362A7
:1059900010BD10B5846842EA032224F47F440A4310
:1059A0002243826010BD826822F070020A4342F0F6
:1059B000070181607047000030B5026A22F00102E1
:1059C0000262026A436884690D6824F07304254307
:1059D00022F002048A6822430B4CA04202D00B4CF6
:1059E000A0420BD122F00804CA6823F4407322437A
:1059F0004C6922F004021C438B6923434360856198
:105A000049684163026230BD00000140000401406A
:105A100030B5026A22F010020262026A43688469A9
:105A20000D6824F4E64444EA05248D6822F020023F
:105A300042EA05120D4DA84202D00D4DA8420ED1EA
:105A4000CD6822F0800242EA05124D6923F44063DA
:105A500043EA85038D6922F0400243EA85034360EF
:105A6000846149688163026230BD0000000001402A
:105A70000004014030B5026A22F480720262036AB7
:105A80004268C46923F4007324F073050C682C4346
:105A90008D6843EA05230D4DA84202D00C4DA84263
:105AA0000ED1CD6823F4006343EA05234D6922F447
:105AB000405242EA05128D6923F4806342EA0512DE
:105AC0004260C4614968C163036230BD00000140A7
:105AD0000004014030B5026A22F480520262046A76
