:020000040800F2
:10000000D01100209D010008A5010008A7010008EB
:10001000A9010008AB010008AD01000800000000C4
:10002000000000000000000000000000AF01000818
:10003000B101000800000000B301000829470008D2
:10004000B7010008B7010008B7010008B7010008B0
:10005000B7010008B7010008B7010008450C000807
:10006000B7010008B7010008B7010008B701000890
:10007000990B0008A50B0008B7010008B70100089C
:10008000B10B0008B7010008B7010008B70100086C
:10009000B7010008B7010008B70100084B0C0008C1
:1000A000B7010008B7010008B7010008B701000850
:1000B000B7010008F1470008B70100081D33000828
:1000C000B7010008B7010008B7010008B701000830
:1000D000B7010008B7010008B7010008B701000820
:1000E000B7010008B7010008B7010008B701000810
:1000F000B7010008B7010008B7010008B701000800
:10010000B7010008B7010008B7010008B7010008EF
:10011000B7010008B7010008B7010008B7010008DF
:10012000B7010008B7010008BD0B0008B7010008BF
:10013000B7010008B7010008B7010008B7010008BF
:10014000B7010008B7010008B7010008B7010008AF
:10015000B7010008B7010008B7010008B70100089F
:10016000B7010008B7010008B7010008B70100088F
:10017000B7010008B7010008B7010008000000003F
:10018000B7010008B7010008DFF80CD000F05EFBF3
:100190000048004781710008D011002006488047C0
:1001A00006480047FEE7FEE7FEE7FEE7FEE7FEE75C
:1001B000FEE7FEE7FEE7FEE79D470008890100082D
:1001C0002DE9F05F0546002092469B46884606468C
:1001D000814640241BE0284641464746224600F01F
:1001E0002EFA53465A46C01A914110D3114618466A
:1001F000224600F015FA2D1A67EB01084F462246F9
:100200000120002100F00CFA17EB00094E41201EDE
:10021000A4F10104DFDC484631462A464346BDE8E6
:10022000F09F40EA01039B0703D009E008C9121FB1
:1002300008C0042AFAD203E011F8013B00F8013BA0
:10024000521EF9D270472DE9FE4F804681EA030025
:10025000C00F0C46009021F0004123F00045B8EBA0
:100260000200A94105D24046214690461C460B4655
:10027000024623F00040104347D0270DC7F30A0081
:10028000C3F30A510290401A019040286BDAC3F37D
:10029000130040F4801B0098924620B10023D2EB5B
:1002A000030A63EB0B0B01985946C0F1400250461C
:1002B00000F0B6F906460D4650465946019A00F040
:1002C000CEF910EB08006141002487EA115284EA5C
:1002D000E7731A4340D0009A62B3019A012A4FEAA9
:1002E000075215DC001B61EB02014FF0004202EAED
:1002F0000752CDE90042001C41F5801132462B46E1
:1003000000F005FA03B0BDE8F08F40462146F9E75A
:10031000001B61EB0201001C41F5801300185B41DA
:100320002018A2F5001747EB030140EAD570B61973
:100330006D4111E06D084FEA360645EAC0754FEA97
:100340000752001B61EB0201001C41F580114908B6
:100350004FEA30000019514132462B4603B0BDE848
:10036000F04F00F0C5B90098012240000023D0EB07
:10037000020263EBE073009821464FEAE074B8EBA9
:10038000000061EB0401E9E783F000435BE781F0E3
:10039000004158E72DE9FE4F81EA030404F00044D0
:1003A00021F0004100944FF0000B23F0004350EA8D
:1003B00001045ED052EA03045BD0C3F30A54C1F3D4
:1003C0000A552C44A4F2F3340194A0FB0254C1F367
:1003D000130141F48011C3F3130343F4801301FBB1
:1003E000024400FB034E840A970A44EA815447EA18
:1003F0008357A4FB076802958D0A05FB07854FEA22
:10040000932C04FB0C542705029D4FEA065847EA3B
:100410001637B5EB08056EEB070C870E920E47EA10
:10042000811742EA8312A7FB0201B6EB0B0164EBD2
:1004300000042B0D43EA0C335E1844EB1C50DA46E3
:100440005146E7FB0201C5F313044FEA0B3343EABD
:1004500014534FEA0432019C43EA0603A4F10C044E
:100460000294009CCDE900B400F051F903B0BDE85E
:10047000F08F00200146F9E72DE9F04D81EA0304F1
:1004800004F0004B21F0004514464FF0000A23F021
:10049000004150EA050220D054EA01021DD0C5F304
:1004A0000A570246C5F31303C1F31300C1F30A56FA
:1004B00040F4801543F48013A7EB0608101BD646C2
:1004C00008F2FD3873EB050002D308F1010801E0E2
:1004D00092185B41B8F1000F03DA00200146BDE835
:1004E000F08D00204FF48011064684460EE0171B65
:1004F00073EB050705D3121B63EB050306434CEAB8
:10050000010C49084FEA300092185B4150EA01079C
:10051000EDD152EA030012D082EA040083EA050119
:10052000084305D0101BAB4106D20122002306E090
:1005300000224FF0004302E06FF0010253101AEB6B
:1005400006004CEB085110EB0A0041EB0B01BDE833
:10055000F04D00F0CDB80EB5C10F80EAE070084450
:10056000CA07002140F233438DE80E000A460B46CD
:1005700000F0CDF803B000BD0EB540F2334102915A
:100580000021CDE900110A460B4600F0C0F803B087
:1005900000BD00F0004230F000400AD0C10D01F56E
:1005A0006071C0F3160042EA0151C20840071143CE
:1005B000704700200146704730B5041E71F10004F9
:1005C00004DB4FF00044404264EB0101141E73F160
:1005D000000405DB1C464FF00043524263EB04036A
:1005E0008B4208BF824230BD01F0004330B421F09D
:1005F000004150EA010206D00A0DA2F56072C1F373
:100600001301002A02DC30BC00207047440F44EA8A
:10061000C104C100E01830BC00EBC25000F031B89A
:10062000202A04DB203A00FA02F1002070479140B2
:10063000C2F1200320FA03F3194390407047202AA7
:1006400004DB203A21FA02F00021704721FA02F37C
:10065000D040C2F120029140084319467047202A39
:1006600006DBCB17203A41FA02F043EAE07306E0DA
:1006700041FA02F3D040C2F12002914008431946EA
:1006800070470029A8BF7047401C490008BF20F0F0
:100690000100704710B4B0FA80FC00FA0CF050EA88
:1006A000010404BF10BC704749B1CCF1200421FA09
:1006B00004F411FA0CF118BF012121430843A3EB04
:1006C0000C01CB1D4FEA00614FEA102042BF002011
:1006D00010BC704700EBC35010440029A4BF10BCED
:1006E0007047401C490008BF20F0010010BC704753
:1006F00010B5141E73F1000408DA401C41F100012A
:1007000092185B411A4301D120F0010010BD2DE980
:10071000F04D92469B4611B1B1FA81F202E0B0FA77
:1007200080F220329046FFF77BFF04460F4640EAF6
:100730000A0041EA0B0153465A46084313D01146BA
:1007400053EA010019D0C8F140025046FFF777FF85
:1007500005460E46504659464246FFF761FF08439C
:1007600005D0012004E020463946BDE8F08D002088
:10077000054346EAE0762C4337430A986305E40ACA
:10078000A0EB08000022FD0A44EA47540A3002D5D3
:1007900000200146E9E7010510196941DDE9084536
:1007A00000196941BDE8F04DA2E72DE9F04D0023A5
:1007B0001A461B1A8A4103DB00200146BDE8F08D72
:1007C000C1F30A52C1F3130141F480154FF0000B3D
:1007D000D10702D100186D41521E0027044640F295
:1007E000FF11384601EB620A3E4680460246002071
:1007F0004FF48011FFF723FFC2197141BB1846EB7C
:100800000100B4EB030C75EB000C04D3E41A65EBA8
:10081000000517460E46241908F101006D41804677
:100820003428E3DDF91946EB0600091BA84103D281
:100830004FF0FF32134601E0002213461BEB070086
:1008400046EB0A51BDE8F04DFFF752BF064C074D8D
:1008500006E0E06840F0010394E807009847103490
:10086000AC42F6D3FFF794FC087B0008287B000815
:1008700070B5C1F30A5201F000450024C1F3130121
:1008800040F2FF3341F480119A4201DA002070BD3A
:1008900040F233439A42A2F2334203DC5242FFF762
:1008A000CEFE00E090402C43F1D0404270BD0000ED
:1008B00010B5124C4FF482610128C4F884101CD189
:1008C0000F4806F037FF0E4890ED050A84ED050A43
:1008D000D4ED060A70EE600AC4ED000A84ED060A43
:1008E000A068012809D1204600F0ACF8B4F88400D3
:1008F000B4F8801008440349888110BD1804002012
:10090000A8030020300B002070B504462DED048BA9
:100910000D46D0ED058ADFED3B9A90ED049A28EE66
:10092000A90A10EE100AFFF734FE41EC100B05F097
:1009300043FA51EC100BFFF757FE29EE290A08EE97
:10094000100A10EE100AFFF724FE41EC100B05F020
:100950008FF9B0EE409A95ED100AF0EE609AB1EE84
:10096000400A10EE100AFFF714FE53EC192BFFF7A4
:1009700011FDFFF739FE00EE100AB7EE001A84ED04
:100980000F0AD5ED100A08EE081A60EEA00A40EE34
:10099000400A80EE810A10EE100AFFF7FAFD41ECE2
:1009A000100B05F0C9F951EC100BFFF71DFE00EE1E
:1009B000900AC4ED110A95ED100A94ED0F1A20EE7D
:1009C000000A01EE410A00EEE00A10EE100AFFF7FD
:1009D000E0FD41EC100B05F0AFF951EC100BFFF707
:1009E00003FE00EE100AF5EEC08A84ED100AF1EE67
:1009F00010FA03D2B1EE400A84ED100ABDEC048B6C
:100A000070BD000035FA8E3C70B50546D0F8340153
:100A1000002813D095F8040168B9094E0024306805
:100A2000401C3060281990F83C11284603F0C6F8A5
:100A3000641C192CF3DB0020C5F8340170BD0000E4
:100A40004000002010B504462DED048BA8B00146EF
:100A50009C226846FFF7E5FB9DED030ADDED050AE4
:100A600070EE608ACDED088A9DED120A68EE800A6C
:100A70009DED0A0A9FED471A00EE810A8DED0A0AE4
:100A8000DDED1A9AF0EEC00AF4EEE90AF1EE10FA82
:100A900005DD06F059FADDED1A0A20EE200A8DED8B
:100AA0000A0ADDED110AB0EE408A9DED130A20EE30
:100AB000A89ADDED000A60EE608ADDED1C0AB0EE5A
:100AC000C90AB4EEE00AF1EE10FA07DDB0EE490A09
:100AD00006F03AFADDED1C0A20EE209AB0EEC80AC4
:100AE000B4EEE90AF1EE10FA07DDB0EE480A06F0BE
:100AF0002BFADDED1A0A20EE208ADDED1B0AB0EE9E
:100B0000E80AB4EEE00AF1EE10FA07DDB0EE680A8A
:100B100006F01AFADDED1B0A60EE208A39EE080AAB
:100B20008DED1D9A8DED1E8ACDED1F8A30EE280ABF
:100B3000DDED180AB4EEE00AF1EE10FA0DD29DEDEB
:100B4000191AB4EEC10AF1EE10FA06DDFDEEC00A84
:100B5000CDED200A8DED220A11E0B4EEE00AF1EEAF
:100B600010FA06DADDED190AB4EEE00AF1EE10FA39
:100B700005D8BDEEE00A8DED200ACDED220A9C22BB
:100B800069462046FFF74DFB209828B0BDEC048B4A
:100B900010BD00000AD7A33B014800F085B8000053
:100BA000B8020020014800F07FB800006802002071
:100BB000014800F079B8000008030020014800F067
:100BC00073B800005803002030B50468256825F488
:100BD00080252560046863608368402B036803D028
:100BE00099600068C26030BD9A600068C16030BD25
:100BF0003EB5074C012102220094CDE9012182B2C9
:100C00000223AF21034801F071FAB4F900003EBDA0
:100C10004C000020780000200EB5084A0223118005
:100C20000121CDE90023029182B2AF21044801F0F5
:100C300039FBBDE80E400A2001F05AB84C000020F4
:100C400078000020022001F091B84FF4807001F08C
:100C50008DB800002DE9F04104460068016821F0DC
:100C60000101016001F078F9054600264FF47A771A
:100C700010E000BF01F070F9401BB8420AD954F8E7
:100C80004C0F40F0200044F81809032026706070D3
:100C9000BDE8F08120680068C007EBD104F8346F2C
:100CA000012060700020F3E72DE9F05FFB49074663
:100CB000FA4DFB4E00684A15DFF8E093DFF8E0A339
:100CC000DFF8D8B39302F64C483D60364FF0007C15
:100CD00009F118090AF1180AABF1300B88422BD937
:100CE000EE4954392EE048453BD100BF4FF008088B
:100CF0000AE0DFF8A88308F1300840453CD190466F
:100D000002E0984600E0E04611EA080F6FD0016863
:100D100049076CD5016821F004010160DF4938689A
:100D2000884265D9A04205D0A84203D0B04201D084
:100D300048453AD1082257E0D949A831884203D919
:100D4000D6495839096805E0D54948318842D5491E
:100D5000F8D94968A042C9D0A842C7D0B042C5D08E
:100D6000C1E75045CBD05845C9D0DFF8348308F1EE
:100D700078084045C3D0BCE7DFF8248308F1300889
:100D80004045BED0DFF81483A8F118084045B8D01C
:100D9000DFF80C8308F190084045B2D0DFF8FC8200
:100DA00008F148084045AED1ABE750451CD0584546
:100DB0001AD0BB497831884216D0B84930318842C0
:100DC00012D0B749303188420BD0B4491839884223
:100DD00007D0B3499031884203D0B04948318842A6
:100DE00001D11A4600E06246AC484C382FE099E049
:100DF000AB49A83188422CD9A04205D0A84203D0E3
:100E0000B04201D0484501D108221EE050451CD017
:100E100058451AD0A2497831884216D09F493031BE
:100E2000884212D09E49303188420BD09B491839F4
:100E3000884207D09A499031884203D09749483177
:100E4000884201D11A4600E0624694485038026058
:100E50005AE09349483188422BD9A04205D0A84294
:100E600003D0B04201D0484501D108221EE05045D0
:100E70001CD058451AD08A497831884216D0874903
:100E80003031884212D08649303188420BD08349B4
:100E90001839884207D082499031884203D07F496F
:100EA0004831884201D11A4600E062467D48C2605E
:100EB0002AE0A04205D0A84203D0B04201D0484564
:100EC00001D108221EE050451CD058451AD0744963
:100ED0007831884216D071493031884212D0704939
:100EE000303188420BD06D491839884207D06C499F
:100EF0009031884203D069494831884201D11A466D
:100F000000E0624667488260F86C40F00100F864D7
:100F1000042087F83500002087F83400B96C09B147
:100F200038468847604A5D493868D3114FF4800CD1
:100F3000884237D9594954393AE0484547D1904613
:100F40000CE0DFF8588108F1300840454AD100BF75
:100F50004FF0400802E0984600E0E04611EA080F32
:100F60006FD0416909066CD5416921F0800141616A
:100F70004A493868884265D9A0425FD0A8425DD00E
:100F8000B0425BD0484559D0504509D0584507D0AC
:100F900043497831884203D04049303188423AD1C0
:100FA00040224BE03E49A831884203D93B49583999
:100FB000096805E03A49483188423A49F8D9496810
:100FC000A042BCD0A842BAD0B042B8D0B5E7504594
:100FD000BED05845BCD0DFF8C88008F1780840453D
:100FE000B6D0AEE7DFF8B88008F130084045B2D09F
:100FF000DFF8A880A8F118084045ACD0DFF8A08041
:1010000008F190084045A6D0DFF8908008F1480824
:101010004045A2D19FE72249303188420BD01F4979
:101020001839884207D01E499031884203D01B49A5
:101030004831884201D11A4600E0624617484C38D0
:1010400036E0A1E01649A831884233D9A0422ED01B
:10105000A8422CD0B0422AD0484528D0504509D0CB
:10106000584507D00E497831884203D00B493031BA
:10107000884201D140221AE00949303188420BD020
:1010800006491839884207D005499031884203D073
:1010900002494831884209D11A4608E058640240A2
:1010A0001060024000600240010080006246F94882
:1010B00002605BE0F84988422CD9A04226D0A842C1
:1010C00024D0B04222D0484520D0504509D05845C0
:1010D00007D0F1493031884203D0EE49803188424F
:1010E00001D1402212E0EC49183988420BD0E9497D
:1010F0003831884207D0E8494831884203D0E54971
:101100009831884201D11A4600E06246E2485838D8
:10111000C2602BE0A04226D0A84224D0B04222D008
:10112000484520D0504509D0584507D0DA493031DC
:10113000884203D0D7498031884201D1402212E051
:10114000D549183988420BD0D2493831884207D066
:10115000D1494831884203D0CE499831884201D1E3
:101160001A4600E06246CC4858388260F86C40F07D
:101170000200F864042087F83500002087F8340066
:10118000B96C09B138468847C249C44A38685031F9
:1011900053114FF4807C4FF0807E884236D9BD4990
:1011A000091F39E0484545D190460AE0DFF8E4825E
:1011B00008F18008404548D1E04602E0984600E04A
:1011C000F04611EA080F6FD0016889076CD50168F5
:1011D00021F002010160AF4938685031884264D97A
:1011E000A0425ED0A8425CD0B0425AD0484558D008
:1011F000504509D0584507D0A7493031884203D01F
:10120000A4498031884239D162464AE0A24960311E
:10121000884203D99F490839096804E09E498842F9
:101220009F49F9D94968A042BED0A842BCD0B0427B
:10123000BAD0B7E75045BFD05845BDD0DFF8588287
:1012400008F130084045B7D0B0E7DFF84C82A8F18C
:1012500018084045B2D0DFF83C8208F13808404514
:10126000ACD0DFF8348208F148084045A6D0DFF85A
:10127000248208F198084045A2D19FE78649183991
:1012800088420BD083493831884207D0824948319F
:10129000884203D07F499831884201D11A4600E044
:1012A00072467C48001D2EE097E07B496031884201
:1012B0002BD9A04226D0A84224D0B04222D0484503
:1012C00020D0504509D0584507D073493031884265
:1012D00003D070498031884201D1624612E06E49E4
:1012E000183988420BD06B493831884207D06A4997
:1012F0004831884203D067499831884201D11A4663
:1013000000E072466348026059E0634988422BD985
:10131000A04226D0A84224D0B04222D0484520D0B6
:10132000504509D0584507D05B493031884203D039
:1013300058498031884201D1624612E05649183935
:1013400088420BD053493831884207D0524948313E
:10135000884203D04F499831884201D11A4600E0B3
:1013600072464F48C2602AE0A04226D0A84224D04C
:10137000B04222D0484520D0504509D0584507D02A
:1013800045493031884203D042498031884201D1F9
:10139000624612E04049183988420BD03D49383145
:1013A000884207D03C494831884203D039499831B6
:1013B000884201D11A4600E0724639488260F86CD2
:1013C00040F00400F864042087F83500002087F816
:1013D0003400B96C09B138468847DFF8B8C04FF41B
:1013E000806138680CF1500C8A020B04604534D9D6
:1013F000DFF8A0C0ACF1040C39E0484552D100BF81
:101400004FF010080AE0DFF88C8008F180084045B2
:1014100051D1884602E0904600E098461CEA080F49
:101420007ED0D0F800C05FEA0C7C79D5D0F800C03F
:101430005FEA4C384FF0310C73D5DFF8588008F173
:101440005008404575D9A04205D0A84203D0B0420B
:1014500001D0484546D1102168E0DFF83CC00CF1CE
:10146000600C604506D9DFF82CC0ACF1080CDCF844
:1014700000C007E0DFF820C06045DFF824C0F6D9DF
:10148000DCF804C0A042BBD0A842B9D0B042B7D06B
:10149000B3E7000008640240586002400400800086
:1014A000006002405045B4D05845B2D0DFF84C84BB
:1014B0004045AED0A7E7DFF84484A8F1480840458E
:1014C000A9D0DFF83C844045A5D0DFF8308408F18E
:1014D000180840459FD0DFF8288408F1600840458F
:1014E0009BD198E7504521D058451FD0DFF80C8498
:1014F00040451BD0DFF8088408F14808404515D066
:10150000FE49483988420AD0FD49884207D0FB4944
:101510001831884203D0FA496031884205D102E08F
:10152000ADE0BBE005E0114600E01946F448343870
:1015300031E0DFF8C88308F1300840452DD9A042DA
:1015400005D0A84203D0B04201D0484501D11021B6
:101550001FE050451DD058451BD0DFF8A083404503
:1015600017D0DFF89C8308F14808404511D0E349C3
:10157000483988420AD0E249884207D0DF49183109
:10158000884203D0DE496031884201D1114600E033
:101590001946DB483838016060E0DFF86083A8F165
:1015A000300840452DD9A04205D0A84203D0B04212
:1015B00001D0484501D110211FE050451DD05845AC
:1015C0001BD0DFF83883404517D0DFF8348308F1AB
:1015D0004808404511D0C949483988420AD0C8490D
:1015E000884207D0C5491831884203D0C4496031C8
:1015F000884201D1114600E01946C0488838C160D0
:101600002CE0A04205D0A84203D0B04201D048450A
:1016100001D110211FE050451DD058451BD0DFF8E7
:10162000DC82404517D0DFF8D88208F148084045F1
:1016300011D0B249483988420AD0B149884207D00E
:10164000AE491831884203D0AD496031884201D19A
:10165000114600E01946A948883881603868016859
:10166000090302D487F835C005E00068000302D5FD
:10167000412087F83500396C09B138468847DFF8D2
:1016800080C24FF4006138680CF1180C8A024FF0E8
:10169000006E604570D99A4B3C3B00E1D0F8008069
:1016A0005FEAC85805D4D0F8008028F00808C0F8D0
:1016B0000080DFF84C82386808F1180840452CD9C2
:1016C000A04205D0A84203D0B04201D0484501D184
:1016D00010211FE050451DD058451BD0DFF81C825B
:1016E000404517D0DFF8188208F14808404511D06E
:1016F0008249483988420AD08149884207D07F49C7
:101700001831884203D07E496031884201D11146A8
:1017100000E019467A48343832E0DFF8E08108F119
:10172000300840452ED9A04205D0A84203D0B0428F
:1017300001D0484501D1102120E050451ED0584528
:101740001CD0DFF8B881404518D0DFF8B48108F12B
:101750004808404512D06949483988420AD068494A
:10176000884207D065491831884203D06449603106
:10177000884202D1114601E08BE0194660483838B2
:1017800001606FE7DFF87481A8F1300840452DD97A
:10179000A04205D0A84203D0B04201D0484501D1B3
:1017A00010211FE050451DD058451BD0DFF84C815B
:1017B000404517D0DFF8488108F14808404511D06E
:1017C0004E49483988420AD04D49884207D04B4992
:1017D0001831884203D04A496031884201D111460C
:1017E00000E0194645488838C1603BE7A04205D073
:1017F000A84203D0B04201D0484501D110211FE0DA
:1018000050451DD058451BD0DFF8F080404517D01B
:10181000DFF8EC8008F14808404511D037494839D5
:1018200088420AD03649884207D034491831884264
:1018300003D033496031884201D1114600E0194696
:101840002E48883881600DE7484537D14FF0200891
:101850000AE0DFF8AC8008F14808404537D18846F7
:1018600002E0904600E0F04613EA080F7AD00368E1
:10187000DB0677D503685B0375D5604564D9A04264
:1018800005D0A84203D0B04201D048453CD1202128
:1018900057E01A4B3033984203D9194B403B1B6831
:1018A00005E0164B303B9842164BF8D95B68A042D6
:1018B000CCD0A842CAD0B042C8D0C5E75045CED09F
:1018C0005845CCD0DFF834804045C8D0C1E7DFF8B8
:1018D000348008F140084045C3D0DFF824804045FB
:1018E000BFD0DFF8188008F118084045B9D0DFF8FC
:1018F000108008F160084045B5D1B2E78860024029
:10190000406402400060024050451AD0584518D04B
:10191000BE4B984215D0BE4B984212D0BB494839B5
:1019200088420BD0BA494839884207D0B7491831A4
:10193000884203D0B6491831884201D1114600E0EF
:101940007146B3487C382EE0B04B303398422CD9E6
:10195000A04205D0A84203D0B04201D0484503D1EF
:1019600020211EE0FBE089E050451AD0584518D0F0
:10197000A64B984215D0A64B984212D0A34948399D
:1019800088420BD0A2494839884207D09F49183174
:10199000884203D09E491831884201D1114600E0A7
:1019A00071469B488038016058E0984B303B984224
:1019B0002AD9A04205D0A84203D0B04201D0484560
:1019C00001D120211CE050451AD0584518D08F4B2A
:1019D000984215D08E4B984212D08C494839884293
:1019E0000BD08B494839884207D088491831884242
:1019F00003D087491831884201D1114600E0714671
:101A000082488838C16029E0A04205D0A84203D0AE
:101A1000B04201D0484501D120211CE050451AD0E8
:101A2000584518D0794B984215D0794B984212D02E
:101A30007649483988420BD075494839884207D0E1
:101A400072491831884203D071491831884201D156
:101A5000114600E071466D48883881603868016839
:101A6000090301D4796C03E00068000377D5F96BB2
:101A7000002974D03846BDE8F05F08470368DB05ED
:101A800003D4036823F0100303603868604529D944
:101A9000A04205D0A84203D0B04201D0484501D1B0
:101AA00020211CE050451AD0584518D0574B984279
:101AB00015D0574B984212D05449483988420BD020
:101AC00053494839884207D050491831884203D0D9
:101AD0004F491831884201D1114600E071464C4807
:101AE0007C382CE0494B303398422AD9A04205D0AB
:101AF000A84203D0B04201D0484501D120211CE0CA
:101B000050451AD0584518D0404B984215D0404BFC
:101B1000984212D03D49483988420BD03C49483957
:101B2000884207D039491831884203D038491831E2
:101B3000884201D1114600E0714635488038016085
:101B400059E0324B303B98422BD9A04205D0A842F5
:101B500003D0B04201D0484502D120211DE053E01E
:101B600050451AD0584518D0284B984215D0284BCC
:101B7000984212D02549483988420BD02449483927
:101B8000884207D021491831884203D020491831B2
:101B9000884201D1114600E071461C488838C16076
:101BA00029E0A04205D0A84203D0B04201D0484568
:101BB00001D120211CE050451AD0584518D0134BB4
:101BC000984215D0124B984212D010494839884299
:101BD0000BD00F494839884207D00C491831884248
:101BE00003D00B491831884201D1114600E07146FB
:101BF000064888388160F86CF864112087F8350051
:101C0000002087F8340032E7BDE8F09F886002408A
:101C10008864024070B5D0B10221446A80F8351062
:101C200003681A6816490A40D0E901152943D0E92A
:101C30000356354329434569294385692943C569C5
:101C40002943056A29431143042C02D005E00120F1
:101C500070BDD0E90B242243114319600368596910
:101C6000426A21F007011143042A01D1826A11431B
:101C700059610021C164012180F83510002070BD38
:101C80003F8010F070B5044690F8340001282DD044
:101C9000012084F83400022084F8350020680568AB
:101CA00025F0010505602046FEF78EFF20680168DB
:101CB00041F0100101602068016841F008010160F5
:101CC0002068016841F0040101602068416941F029
:101CD000800141612068016841F0020101602068D3
:101CE000016841F001010160002070BD022070BD5B
:101CF00031B500F031F9044600F02EF90099001BCF
:101D00008842F9D338BD00002DE9F041144C074654
:101D1000144DB4F86C00144E012805D139463046F4
:101D200000F00CF9012814D0B4F86C0002280ED190
:101D30003946304600F002F9002808D12868406A88
:101D400060800020A4F86C00012084F86E00BDE8DB
:101D5000F0812868406A20800220A4F86C00F6E731
:101D6000A8030020F000002000040240044910B540
:101D70000A68024202D00860FFF7C6FF10BD0000EB
:101D8000143C01402DE9F04FDFF880B100224FF004
:101D900001084FF0030A4FF00F090BF1040E00BFCA
:101DA0000B6808FA02F42340A3426FD14D68022D5C
:101DB00001D0122D0ED1D50800EB850CDCF8205097
:101DC0005607F70E09FA07F6B5430E69BE402E43D3
:101DD000CCF82060066855000F790AFA05FC07F078
:101DE000030726EA0C06AF40374307604E68012E12
:101DF00005D0022E03D0112E01D0122E0ED18668EE
:101E0000CF6826EA0C06AF40374387604668A64392
:101E10000C79C4F30014944034434460C6688C6861
:101E200026EA0C06AC403443C4604C68E40066D536
:101E3000374C256845F480452560364C22F0030573
:101E40002E19D6F8084895072F0F09FA07F5AC4365
:101E5000314DA84201D1002529E0304DA84201D1E1
:101E6000012524E02E4DA84201D102251FE02D4D71
:101E7000A84201D103251AE02B4DA84201D1042527
:101E800015E02A4DA84202D1052510E037E0284D83
:101E9000A84201D106250AE0264DA84201D1072516
:101EA00005E0254DA84201D1082500E00925BD40E7
:101EB0002543C6F80858DBF800405D464E689C4351
:101EC000F60300D51C432C60DEF8004075464E68D2
:101ED0009C43B60300D51C432C600C4D08352C6880
:101EE0004E689C43F60200D51C432C60074D0C3510
:101EF0002C684E689C43B60200D51C432C60521CD3
:101F0000102AFFF44DAFBDE8F08F0000003C014007
:101F1000443802400030014000000240000402400A
:101F200000080240000C0240001002400014024071
:101F300000180240001C02400020024000690840D6
:101F400000D00120704742694A40426170470AB19F
:101F5000816170470904FBE7014800687047000091
:101F60000000002038B501688A69D243D20711D039
:101F70004A69C2F340034A684C69C2F34022C4F381
:101F800000158C69C4F380048BB382B348698869F7
:101F9000009038BD8A69D24352074A6928D4C2F3F7
:101FA000C0144A68C2F380234A694968C2F38002B8
:101FB000C1F340210CB103B13AB1002AE9D00029A4
:101FC000E7D0BDE8384001F045BA416A4A1C426298
:101FD000026809781161418D491E4185418D0029B2
:101FE000D7D10068416821F48061416038BD19E0B3
:101FF000C2F380134A68C2F380244A694968C2F375
:102000008002C1F340210BB104B13AB1002AEDD0F6
:102010000029EBD0BDE8384001F086B9BDE8384072
:1020200001F0D4B905B3FAB10446486820F4E06081
:102030004860206841690091016841F00101016038
:102040002068016821F48061016023230122244972
:10205000204601F0E9FA0028C8D1012084F83500B3
:10206000204600F089F9C1E74A69DCB1C2F3C01427
:102070004A68C2F380234A694968C2F38002C1F307
:1020800040210CB103B11AB1002AAFD00029ADD064
:10209000418D0029AAD0416A4A1C4262026809782F
:1020A000116119E0C2F380154A68C2F380234A69BE
:1020B0004C68C2F38002C4F340240DB103B11AB1DD
:1020C000002A93D0002C91D0428D002A8ED00A692C
:1020D000416A4B1C43620A70418D491E418585E768
:1020E0000200100070477047704770472DE9F84FA5
:1020F00004460AA890E8600894F83500012879D1D0
:10210000EDB1E6B120688069C043800772D594F8CC
:10211000340001286ED04FF0010884F8348042204A
:1021200084F835000027A7632046CDF800B001F001
:10213000C3F938B1A06B84F8347004287CD1012035
:10214000BDE8F88FDFF854A1012E18D0DFF84C91CC
:102150002068A9F13C09022E27D0416980690090CE
:10216000032E6BD8012E17D0022E2BD05B460022F7
:102170004946204601F058FA00285DD13BE020682E
:10218000016821F4806101602068416981690091E2
:10219000016841F4007101605B460022514620460F
:1021A00001F042FA00286FD114E0016821F4806147
:1021B00001602068016841F40061016020684169A4
:1021C000806900905B4600224946204601F02CFAC7
:1021D00090BB03E020680069287049E0206801682E
:1021E00041F400710160206800692870206800696E
:1021F00068703DE050E02068016821F48061016072
:102200002068006905F8010B761EB6B25B46002215
:102210004946204601F008FA70B92068016841F487
:10222000007101602068006905F8010B20680069F1
:1022300005F8010BB61E17E026E0FFE75B4600221B
:102240005146204601F0F0F9F0B92068006905F820
:10225000010B2068761EB6B24169C943490704D410
:10226000006905F8010B761EB6B2002E7FF478AF38
:102270002068016821F4006101605B460122084981
:10228000204601F0D1F908B1032059E784F83580E0
:1022900084F83470002053E7022051E74000010029
:1022A000020010002DE9F84F0446DDE90A6590F8B8
:1022B0003500DDF83090012858D1EEB1E5B1206845
:1022C0008069C043800751D594F8340001284DD06F
:1022D0004FF0010884F83480322084F8350000275C
:1022E000A7632046CDF8009001F056F938B1A06BF5
:1022F00084F83470042831D10120BDE8F88FDFF86C
:1023000070A04B4600225146204601F08DF928BBB3
:10231000216816F8010B086120686D1EADB2416995
:10232000C943490705D435B116F8011B01616D1E7B
:10233000ADB2002DE5D14B4600225146204601F0BA
:1023400073F958B92068016841F4007101604B4687
:1023500001220849204601F067F908B10320CCE7C3
:1023600084F8358084F834700020C6E70220C4E782
:102370008000010002001000704700000248016860
:10238000491C016070470000000000200B4810B598
:10239000016841F400710160016841F480610160ED
:1023A000016841F480710160032000F05BF80020B7
:1023B00000F006F800F015F8002010BD003C0240C7
:1023C00010B5044600F03CF94FF47A71B0FBF1F01F
:1023D00000F051FB00222146501E00F023F800209F
:1023E00010BD10B5032000F03DF80022BDE81040FC
:1023F0001146501E00F016B800F01F020121914056
:102400004009800000F1E020C0F88011704700F022
:102410001F02012191404009800000F1E020C0F836
:1024200000117047F0B40E4B1B680C46C3F3022337
:10243000C3F10705042D00D90425191D072901D270
:10244000002300E0DB1E012606FA05F1491E2140AB
:1024500099409E40761E16403143F0BC01F040BDCD
:102460000CED00E0064900F0070208684FF6FF0394
:10247000184040EA0220034A1043086070470000F9
:102480000CED00E00000FA052DE9F047DFF8A8A107
:1024900005460E46DAF80000684C00F00F01674868
:1024A000083406F0FF0941F28838B14254D28AF864
:1024B0000090DAF8001001F00F01B1426FD12978D5
:1024C000890705D52168AA6821F0F0011143216030
:1024D0002978C90728D06968012914D00068022921
:1024E00014D0800700285ADA206820F0030008433F
:1024F0002060FFF731FD0646686801280ED00228EB
:10250000474618D023E000688003EBE78001E9E745
:10251000FFF722FD801BB84201D964E047462068DE
:10252000C0F381000128F3D16EE000BFFFF714FD76
:10253000801BB84257D82068C0F381000228F5D12B
:1025400062E000BFFFF708FD801BB8424BD820684F
:1025500010F00C0FF6D157E02978890705D52168CE
:10256000AA6821F0F001114321602978C90741D000
:102570006968012914D00068022914D08007002856
:1025800040DA206820F0030008432060FFF7E4FCF5
:102590000746686801280ED0022818D026E031E0EE
:1025A00000688003EBE78001E9E700BFFFF7D4FC98
:1025B000C11B414517D82068C0F381000128F5D11F
:1025C00018E000BFFFF7C8FCC11B41450BD82068CD
:1025D000C0F381000228F5D10CE000BFFFF7BCFC7E
:1025E000C11B414502D90320BDE8F087206810F0E7
:1025F0000C0FF3D18AF80090DAF8000000F00F0019
:10260000B04201D00120EFE72878400705D52068C7
:10261000E96820F4E050084320602878000706D5D8
:102620002068296920F4604040EAC1002060002051
:10263000FFF7C6FE0020D7E7003C0240003802400A
:1026400000B500F043F808490968F02292FAA2F2B6
:1026500001F0F001B2FA82F2D140044A515CC84064
:102660000349086000BD0000083802408478000873
:102670006000002000B5FFF7E3FF074909684FF449
:10268000E05292FAA2F201F4E051B2FA82F2D140A1
:10269000024A515CC84000BD0838024084780008F6
:1026A00000B5FFF7CDFF074909684FF4604292FA81
:1026B000A2F201F46041B2FA82F2D140024A515CC6
:1026C000C84000BD083802408478000830B5194879
:1026D000006810F00C01184812D0184C04290ED0D4
:1026E00008290DD11349091F0A6802F03F030A683F
:1026F000550247F6C07204D5B4FBF3F003E0204660
:1027000030BDB0FBF3F00B680968134092FAA2F2F7
:10271000B2FA82F2D34058434FF4403292FAA2F216
:1027200001F44031B2FA82F2D140491C4900B0FBB9
:10273000F1F030BD083802400024F40040787D01FB
:102740002DE9F84F04460078DFF814A3C54DC00703
:102750004FF000064BD0DAF800105046C1F381016B
:10276000012908D00068C0F3810002280AD1281D81
:102770000068400206D52868800338D560680028C4
:1027800071D034E0DFF8DC9209F1020989F80060C9
:10279000FFF7E2FB804641F2883705E0FFF7DCFBFC
:1027A000A0EB0800B8427DD828688003F6D42079D1
:1027B00089F80000606868B1FFF7CEFB804605E04D
:1027C000FFF7CAFBA0EB0800B842ECD828688003EA
:1027D000F6D50CE0FFF7C0FB804605E0FFF7BCFB39
:1027E000A0EB0800B842DED828688003F6D4207831
:1027F0009D4F80074FF0010B45D5DAF80010504689
:1028000011F00C0F4FF0F80909D00068C0F38100F7
:1028100002280BD19248001F0068400206D42868A5
:10282000800714D5E06801281DD110E0E068D8B118
:10283000C7F800B0FFF790FB804605E0FFF78CFB80
:10284000A0EB08006428AED828688007F6D5286871
:1028500099FAA9F22169B2FA82F220F0F8009140C7
:10286000084328600FE0F8E03E60FFF775FB804604
:1028700006E000BFFFF770FBA0EB0800642811D84A
:1028800028688007F6D42078000729D5DFF8D09192
:102890007648616909F16C0999B1C0F800B0FFF799
:1028A0005BFB00E085E0804606E000BFFFF754FBDD
:1028B000A0EB080064287CD8D9F800008007F5D583
:1028C0000EE00660FFF748FB804605E0FFF744FB9B
:1028D000A0EB080064286CD8D9F800008007F5D474
:1028E0002078400756D55E483830016841F0805165
:1028F0000160DFF87C91D9F8001041F48071C9F8CB
:102900000010FFF729FB804606E000BFFFF724FB1D
:10291000A0EB080064284CD8D9F80000C005F5D514
:10292000DFF83C8108F1680888F80060FFF714FBC5
:1029300041F28839009005E0FFF70EFB0099411A3B
:10294000494536D8D8F800008007F5D4207A88F8B1
:102950000000A068012803D0FFF7FEFA009015E000
:10296000FFF7FAFA009005E0FFF7F6FA0099411A2E
:1029700049456AD8D8F800008007F5D50AE000BFBD
:10298000FFF7EAFA0099411A49455ED8D8F80000E5
:102990008007F5D4A069E0B3DAF80010C1F3810133
:1029A00002295AD002283E6604D0FFF7D5FA044621
:1029B0004EE04AE0FFF7D0FA064604E0FFF7CCFA13
:1029C000801B642841D828688001F7D4D4E9071017
:1029D000084347F6C07292FAA2F2616AB2FA82F232
:1029E0009140A26A4FF0FF3303EB52024FF44033A1
:1029F00093FAA3F3B3FA83F39A40114308434FF0D9
:102A0000706292FAA2F2E16AB2FA82F2914008434D
:102A100000E020E040F000511148001F0160C7F8BD
:102A200060B0FFF799FA044605E000BFFFF794FA9B
:102A3000001B642809D828688001F7D50BE000BF87
:102A4000FFF78AFA001B642802D90320BDE8F88F3B
:102A500028688001F4D40020F8E70120F6E70000A0
:102A6000083802400038024000004742800E4742CA
:102A700000700040704710B5401EB0F1807F01D358
:102A8000012010BD4FF0E02460610F21601701F0BC
:102A900027FA0020A06107202061002010BD10B59A
:102AA000FFF7E8FF10BD7047704730B590F8382049
:102AB000012A20D0012280F83820022380F8393002
:102AC00003685C6824F070045C6003685C680D68EF
:102AD0002C435C6003689C6824F080049C6003685D
:102AE0009C6849680C439C6080F83920002180F87C
:102AF0003810084630BD022030BD10B5040003D0A8
:102B000094F8390010B104E0012010BD204600F017
:102B10000DF8022084F83900211D206801F06EFEB6
:102B2000012084F83900002010BD000000B5144ACF
:102B30000168144885B0914203D1016841F0020157
:102B40001BE0114A914212D1016841F48071016089
:102B50008020009002200190002002900390092024
:102B6000049069460948FFF70DF905B000BD084A11
:102B70009142FAD1016841F080010160F5E700005F
:102B800000040040403802400020004000000240A5
:102B9000001C0040022180F8391001680A6842F0E8
:102BA00001020A60012180F8391000207047016895
:102BB000CA6842F00102CA600068016841F0010180
:102BC00001600020704770B5044690F83800012875
:102BD00017D0012584F83850022084F83900206885
:102BE000826822F0770222F47F42826008685028CF
:102BF00037D00DDC202859D005DC88B3102841D10E
:102C000051E0022070BD302853D040283AD13FE037
:102C100060282ED070280BD0B0F5805F03D0B0F5BF
:102C2000005F2FD110E02068816821F0070115E0D6
:102C3000CB68D1E90121206801F04BFE216888684A
:102C400040F0770088601DE0CB68D1E90121206861
:102C500001F03FFE2068816841F48041816011E00D
:102C60001EE0CA684968206801F0FCFE5021206817
:102C700006E0CA684968206801F005FF6021206805
:102C800001F031FE84F83950002084F8380070BD1E
:102C9000CA684968206801F0E5FE40212068EFE736
:102CA00000212068ECE710212068E9E72021206856
:102CB000E6E730212068E3E7704770B50446006816
:102CC00001694FF00005C943890715D4C168C9439C
:102CD000890711D4E91E01610120207620688069EE
:102CE0008007204602D0FFF7E7FF04E000F0C4F8B9
:102CF000204600F025F9257620680169C943490777
:102D000017D4C168C943490713D46FF004010161A6
:102D1000022020762068806910F4407F204602D08F
:102D2000FFF7CAFF04E000F0A7F8204600F008F91A
:102D3000257620680169C943090716D4C168C943CB
:102D4000090712D46FF00801016104202076206881
:102D5000C0698007204602D0FFF7AEFF04E000F014
:102D60008BF8204600F0ECF8257620680169C9430D
:102D7000C90617D4C168C943C90613D46FF010013E
:102D80000161082020762068C06910F4407F204649
:102D900002D0FFF791FF04E000F06EF8204600F04B
:102DA000CFF8257620680169C943C90708D1C168F1
:102DB000C943C90704D1891E0161204600F0C1F84A
:102DC00020680169C943090609D4C168C9430906D5
:102DD00005D46FF0800101612046FFF764FE206892
:102DE0000169C943490609D4C168C943490605D4E4
:102DF0006FF040010161204600F0A4F820680169ED
:102E0000C94389060BD4C168C943890607D46FF04A
:102E1000200101612046BDE87040FFF745BE70BD4E
:102E200070B5044690F8380001280DD0012584F8CB
:102E30003850022084F8390042B1042A0AD0082A06
:102E40000CD00C2A11D10DE0022070BD206801F0D9
:102E500053FD0AE0206801F07BFD06E0206801F0E8
:102E6000A9FD02E0206801F0D5FD84F8395000206A
:102E700084F8380070BD0000074A016891420AD109
:102E8000007E012807D1486B41F288321044486324
:102E9000024900200862704700040040080000203A
:102EA00010B5040003D094F8390010B104E00120FB
:102EB00010BD204600F00CF8022084F83900211DD6
:102EC000206801F09BFC012084F83900002010BD2F
:102ED0007047000010B50268044631B1042908D0DB
:102EE000082920D00C2908D121E0D06840F0020048
:102EF00002E0D06840F00400D0600122206801F0B8
:102F0000DDFC0D492068884202D00C49884203D17B
:102F1000416C41F4004141642068016841F00101C5
:102F20000160002010BDD06840F00800E4E7D068E0
:102F300040F01000E0E70000000001400004014004
:102F400070477047704710B504460068416921F02A
:102F5000800141612068416921F040014161206B9D
:102F600008B1FDF777FE606B08B1FDF773FE012035
:102F700084F83900002010BD704710B5040003D05C
:102F800094F8390010B104E0012010BD204600F093
:102F900021F8022084F839002068C16821F400512A
:102FA000C160204601F0B0FD2068016921F4904124
:102FB00001612068416921F02A0141612068C168EE
:102FC00041F40051C1600020E063012084F8390021
:102FD000002010BD2DE9F04F064602685948584BB5
:102FE00000240221470585B04FF0010C4FF48069A1
:102FF0004FF4807A4FF4403B9A421DD1026842F46C
:10300000002202604FF440608DE803100820CDE9F3
:10301000034069464C48FEF7B5FE4D4D4B4805F15F
:1030200018022860C5E90174C5E903496C6182E8AA
:10303000100C28466C627DE0464D0723DFF818E14E
:10304000AA4227D1026842F4003202606020CDE932
:103050000214CDE90001049369467046FEF792FE22
:103060003E4D3A4805F1180248302860C5E9017420
:10307000C5E903496C6182E8100C28466C62FEF7D2
:10308000C9FD7563002211462620AE63FFF7CAF919
:1030900026202AE0DFF8C880032542452AD10268AD
:1030A00042F48022026028028DE80310CDE9035328
:1030B00069467046FEF766FE2A4D244805F118025F
:1030C00018382860C5E90174C5E903496C6182E8D4
:1030D000100C28466C62FEF79DFD756300221146B8
:1030E0002720AE63FFF79EF92720FFF790F905B080
:1030F000BDE8F08F1C488242F9D11248001D0268D9
:1031000042F0100202604FF4C06004938DE8330077
:1031100069461648FEF736FE164D154805F11802A9
:103120002860C5E90174C5E903496C6182E8100CA7
:1031300028466C62FEF76EFD7563AE63D7E700004C
:10314000004C00404038024000080240406002400D
:103150006802002000440040000C024008030020E8
:1031600000480040B802002000100140000002406A
:10317000406402405803002070B5044690F83900BE
:10318000012801D0122832D169B362B394F8380013
:1031900001282CD0012084F83800A162A2850025E6
:1031A000E56394F8390012281FD0222084F83900F2
:1031B000636B1048D863636B0F481864636B0F48E8
:1031C000986408461346666B216802463046091D1E
:1031D000FEF758FD2068416941F04001416184F8E3
:1031E0003850002070BD012070BD3220DEE7022083
:1031F00070BD0000C94A0008FF4A0008AB4A000839
:103200000B4A01680120914201D10A490DE00A4AA6
:10321000914202D1094988647047094A9142FBD121
:1032200008490A69521C0A610749C1F8340170470C
:10323000004C0040B007002000480040EC0B00208C
:1032400000440040080000202409002070470000CE
:103250002DE9F047044690F8390099460D460128BB
:1032600001D0222858D12DB322B394F83800012878
:1032700052D0012684F838600027E76394F83900BB
:1032800022281AD05FF0120084F83900A284E28468
:103290004FF48058E08C4B46401EE084A0684FF00D
:1032A000000240454FF08001204613D101F0E8FCB8
:1032B00008BB04E00120BDE8F0873220E4E728885D
:1032C0002168C0F308004860206908B16D1C08E05F
:1032D000AD1C06E001F0D4FC68B9216815F8010BBB
:1032E0004860E08C0028D5D14B4600224021204682
:1032F00001F0C6FC08B10320DDE794F8390032285C
:1033000006D084F8396000BF84F838700020D2E716
:10331000222084F83900F7E70220CCE70148FEF7C5
:1033200021BE00007800002010B5418D04460068E1
:10333000032903D0618D02290FD004E0016821F434
:103340008061016020680169606A421C62620170EC
:10335000608D401E6085002010BD016841F4007141
:10336000016020680169606A421C62620170608DC0
:10337000401E608520680169606A421C62620170BB
:10338000608D401E60852068416821F44071416075
:10339000232301220C49204600F046F908B10320FE
:1033A00010BD2068016821F40061016094F83510B7
:1033B0000120422984F83500204602D0FEF792FE13
:1033C000C9E7FEF791FEC6E70200100010B5418D77
:1033D00004460068032908D90169606A421C6262D8
:1033E0000170608D401E60852DE0022917D00329F1
:1033F00015D0416821F4E061416020680169606A8C
:10340000421C62620170608D401E60852323012290
:103410000F49204600F008F930B1032010BD416883
:1034200021F4806141600EE02068016821F40061B0
:10343000016094F835100120422984F835002046B7
:1034400003D0FEF74FFE002010BDFEF74DFEFAE759
:103450000200100010B5418D0446006841B1616A58
:103460004A1C626209780161608D401E60851BE024
:10347000416821F4E06141602068016841F4007115
:103480000160232301220B49204600F0CDF808B14A
:10349000032010BD94F835100120322984F835003E
:1034A000204603D0FEF71FFE002010BDFEF71DFED4
:1034B000FAE70000020010002DE9F84F044600680A
:1034C0000F4698460168164641F480610160206805
:1034D000016841F4807101604FF0011900224946F2
:1034E00020460A9B00F0A0F8E8BB216807F0FE0028
:1034F000086109F1010A514620460A9A00F0DAF8FB
:1035000018B1A06B042842D031E02068416980697D
:103510000090DFF880B00022594620460A9B00F058
:1035200083F800BBF5B2B8F1010F09D02168300A69
:1035300008610022594620460A9B00F075F890B9B0
:10354000206805610022594620460A9B00F06CF86D
:1035500048B92068016841F4807101600022494641
:1035600020460A9B00E002E000F05EF810B1032064
:10357000BDE8F88F2168F8B240F0010008615146BB
:1035800020460A9A00F096F80028BAD1F0E7012008
:10359000EEE70000800001002DE9F84304460068D2
:1035A0000D46DDF8209001689846164641F480717A
:1035B00001604B4600224FF00111204600F034F824
:1035C00050BB216805F0FE0008614A4615492046B7
:1035D00000F070F828B1A06B04281DD10120BDE8CF
:1035E000F8832068416980690E4F00907E374B4612
:1035F00000223946204600F017F868B9F5B2B8F154
:10360000010F0BD02168300A08614B460022394671
:10361000204600F009F808B10320E0E720680561C2
:103620000020DCE7020001002DE9F05F1E46904615
:103630000C460546FEF790FC81464FF0000A4FF01D
:10364000010BC4F30747B8F1000F09D024E0701C48
:1036500006D0D6B1FEF780FCA0EB0900B04214D82A
:103660002868012F06D0806924EA00000004000CBD
:103670001BD0ECE74069F7E7701C0DD02EB1FEF7C8
:103680006BFCA0EB0900B04206D985F835B085F88F
:1036900034A00320BDE8F09F2868012F07D080697F
:1036A00024EA00000004000CE6D00020F2E74069A4
:1036B000F6E700002DE9F04791460D460446FEF777
:1036C0004BFC824600274FF00108C5F3074628E06F
:1036D00020684069C043400511D42068016841F466
:1036E0000071016021686FF4806048610420A0636C
:1036F00084F8358084F834700120BDE8F087B9F192
:10370000FF3F0ED0B9F1000F05D0FEF725FCA0EB6E
:103710000A01494505D984F8358084F834700320BE
:10372000EBE72068012E07D0D0F8180025EA00004A
:103730000004000CE1D0CBE74069F7E770B53B48E7
:1037400086B0016841F010010160016841F001019B
:103750000160016841F002010160016841F004016B
:103760000160016841F008010160C013009001256B
:103770000024CDE901542E4E694630460394FEF7ED
:1037800001FB4FF401600090CDE9015469462948DE
:103790000394FEF7F7FAE8020090CDE90154694678
:1037A00030460394FEF7EEFAA8030090CDE90154E9
:1037B000694630460394FEF7E5FA68030090CDE9C8
:1037C0000154694630460394FEF7DCFA402000902D
:1037D000CDE90154184E694630460394FEF7D2FAFB
:1037E00080200090CDE90154694630460394FEF7ED
:1037F000C9FA2802009011480190022002906946FF
:103800003046FEF7BFFA002211461720FEF70AFEE7
:103810001720FEF7FCFD68020090CDE901546946CF
:1038200030460394FEF7AEFA06B070BD3038024061
:10383000001002400000024000040240000031106D
:1038400010B50F4888B00D49016053210024C0E92C
:1038500001144FF6FF71C0E90314FFF74EF9084851
:10386000FFF71EFB0094019402940022694604486D
:103870000494FFF7D5FA08B010BD0000001C00400A
:103880002C01002010B516488EB014490160532158
:103890000024C0E901144FF6FF71C0E90314FFF7DB
:1038A0002CF94FF48050079007A90D48FFF78BF9CA
:1038B0000B48FFF7F5FA0B940BA909480C94FFF796
:1038C000F4F84FF47A60CDE9004002940022694692
:1038D00003480494FFF7A4FA0EB010BD00040040A2
:1038E000F000002070B504002AD0022084F83500D2
:1038F0002068016821F001010160FEF7BBFE354937
:103900002368B0FBF1F25A68B0FBF1F192B222F0F9
:103910003F0289B20A435A60226813684FF6FE7567
:103920002B4013602C4B62689A420BD85200B0FBBC
:10393000F2F080B2042800D20420491C226823E05F
:10394000012070BDA3685BB102EBC20303EB02125E
:10395000B0FBF2F080B240F48040020506D007E0F0
:1039600002EB4202B0FBF2F080B2F6E740F0010059
:103970004FF4967251434FF47A72B1FBF2F1491C45
:10398000226840F4004089B211622168C861206851
:10399000016841F001010160226810684FF6F531BD
:1039A00080B20840A18B238C194389B20143116076
:1039B000D4E903100843216888602068016841F059
:1039C000010101600020A063012084F8350000207F
:1039D00070BD000040420F00A086010030B50546D2
:1039E0008DB01A48009281422ED128601848016893
:1039F00041F40011016016481038016841F00201DD
:103A0000016012200024CDE9090403200B90C0209E
:103A1000089004200C9008A90E48FEF7B3F94FF463
:103A20008040CDE901044FF4404003900594069492
:103A3000202269460794281DFCF7F3FB022085F835
:103A400035000548FFF74EFF0DB030BD0054004073
:103A500040380240000402407800002000B5D1ED5B
:103A6000010A91ED100AD0ED001AD0ED012A80EE86
:103A7000806AD1ED020A90ED023A90ED032AD1ED71
:103A8000075A91ED085AD1ED094A0246C0EE803A34
:103A9000D1ED030AB5EEC06A80EE804AF1EE10FA6D
:103AA00009D1F5EEC03AF1EE10FA04D1B5EEC04AF4
:103AB000F1EE10FA3BD026EE060A03EEA30A04EE5E
:103AC000040A03F047FB26EE006A63EE803A24EE18
:103AD000004AB6EE000A21EEA21A11EEA10A62EE29
:103AE000820A03EE021A41EEC30A02EE020A63EEF4
:103AF000806A44EE416A24EE204A26EE011A06EE60
:103B0000404A9FED2C0A03EEE01A82ED0B0A82ED8B
:103B10000C0A82ED0D0AD2ED0E0AB2EE000A20EE7A
:103B2000800A40EE265A00EE045A40EE014ADFEDCC
:103B3000220A25EEA00A25EE201A64EEA00A62EE03
:103B4000C03A43EE413A42EE603A33EEA14A61EEAA
:103B5000803A43EE203A42EE413A73EEA24A61EED9
:103B6000813A42EEE03A61EEA00A42EE810A42EE6C
:103B7000003A43EE400A24EE040A73EE833A04EE60
:103B8000A40A70EE821A03EEA30A01EEA10A03F062
:103B9000E1FA24EE001A64EE800A23EE802A21EE78
:103BA000800A82ED001AC2ED010A82ED022A82ED3E
:103BB000030A00BD000000000000003B70B5044691
:103BC00090F8010100260D46052801D984F801610D
:103BD00094F83C01FF2806D194F83D01FF2802D15A
:103BE00094F83F0138B13548FFF7ADF9192234494F
:103BF0003248FFF7C1FA94F8012104210120062A76
:103C000008D2DFE802F003080F141940FF2D01D19C
:103C100084F8010170BDFF2D01D10220F8E784F87E
:103C2000016170BDED1E84F803510320F0E7002D03
:103C3000F5D184F8011170BD94F8031141B194F8E5
:103C40000201284484F8020184F806510520DFE7C8
:103C500094F80211294411F0FF0184F8021104D0F4
:103C6000C4F8086184F80261D9E7D4F87011491CDE
:103C7000C4F8701184F8016184F80401D4F80801D3
:103C8000C4E9426070BD94F80201284484F802013E
:103C900084F8075184F80111D4F80811B4F9060129
:103CA00044F8210094F80301801E84F80301D4F83D
:103CB0000801401CC4F8080170BD0000E8010020A4
:103CC000EC0800201FB50A460A24012303A98DE849
:103CD0001A0010F85C1BFEF709FA9DF80C0004B0FE
:103CE00010BD000070B504463B21FFF7EBFF2B4DE4
:103CF0003C2168702046FFF7E5FF2870B5F9000009
:103D00003D2100EE100A2046B8EEC00A84ED010AFB
:103D1000FFF7D8FF68703E212046FFF7D3FF2870D9
:103D2000B5F900003F2100EE100A2046B8EEC00AA7
:103D300084ED020AFFF7C6FF687040212046FFF7B6
:103D4000C1FF2870B5F90000D4ED010A00EE100A99
:103D50009FED131AB8EEC02A94ED040A70EEC00A63
:103D600000EE810A84ED010AD4ED021AD4ED050AB1
:103D700071EEE01A41EE810AC4ED020AD4ED061A92
:103D800032EE612A42EE011AC4ED031A84ED040AF0
:103D9000C4ED050AC4ED061A70BD00004400002001
:103DA00044AB4D3E70B504464321FFF78BFF3B4DBE
:103DB000442168702046FFF785FF2870B5F90000A0
:103DC000452100EE100A2046B8EEC00A84ED0A0A2A
:103DD000FFF778FF687046212046FFF773FF2870D1
:103DE000B5F90000472100EE100A2046B8EEC00ADF
:103DF00084ED0B0AFFF766FF687048212046FFF745
:103E000061FF2870B5F9000094ED0D1A00EE100A5C
:103E10002348F8EEC00A94ED0A0A30EE410A84ED18
:103E20000A0A94ED0B1AD4ED0E1A31EE611A84EDE4
:103E30000B1AD4ED0F1A70EEE10AF0EEC01A11EE73
:103E4000901ADFED181AC4ED0C0A814201DCB0EEC5
:103E5000610AB0EEC12A12EE101A84ED0A0A8142FC
:103E600001DCB0EE611AB0EEE02A12EE101A84ED19
:103E70000B1A814201DCF0EE610ADFED0B1AC4ED92
:103E80000C0A20EE210A84ED070A21EE210A84EDB6
:103E9000080A20EEA10A84ED090A70BD4400002042
:103EA0000000F041000000000B808B3A17B583B092
:103EB0000A460A24012305A98DE81A0010F85C1BA4
:103EC000FEF7F0F906B010BD10B50446FFF70AFF83
:103ED0002046FFF767FF2046BDE8104001F096B886
:103EE0000907090E002806DA00F00F0000F1E020B3
:103EF00080F8141D704700F1E02080F8001470472E
:103F00000648074A016C914205DAC06D05498842AE
:103F100001D901207047002070470000300B0020BD
:103F2000010070420000E0C00648074A016C91425F
:103F300005DAC06D0549884201DD01207047002087
:103F400070470000300B00200000A0420000E0405D
:103F500070B5828D84890021A2F5FA639C4217DD39
:103F6000838FD51805F5FA65A54211D9A21A00EE7E
:103F7000102AF8EEC00A00EE103AB8EE401A80EEB1
:103F8000810ADFEDC50A20EE200A80ED100A00E06C
:103F90000121428D4389A2F5FA64B6EE000ADFEDF5
:103FA000BF0AA34217DD448F151905F5FA659D4236
:103FB00011D99A1A01EE102AF8EEC11A01EE104A30
:103FC000B8EE412A81EE821A31EE401A21EE201A13
:103FD00080ED131A00E0491CC28DC389A2F5FA6472
:103FE000A34219DDC48F151905F5FA659D4213D951
:103FF0009A1A01EE102AF8EEC11A01EE104AB8EE34
:10400000412A81EE821A31EE401ADFEDA51A21EE27
:10401000211A80ED151A00E0491C028D0389A2F5D2
:10402000FA64A34219DD048F151905F5FA659D425E
:1040300013D99A1A01EE102AF8EEC11A01EE104AAD
:10404000B8EE412A81EE821A31EE400AB3EE041A2C
:1040500020EE010A80ED170A00E0491C028C03885B
:10406000A2F5FA64A34213DD048E151905F5FA656D
:104070009D420DD99A1A00EE102AB8EEC01A00EE31
:10408000104AB8EE400AC1EE001AC0ED191A00E05D
:10409000491C838C8288A3F5FA64A24213DD848EC6
:1040A0001D1905F5FA6595420DD9D31A00EE103A9F
:1040B000B8EEC01A00EE104AB8EE400AC1EE001A7F
:1040C000C0ED1B1A00E0491C438C4488A3F5FA6537
:1040D000AC4213DD458E5E1906F5FA66A6420DD98F
:1040E000E31A00EE103AB8EEC01A00EE105AB8EE1D
:1040F000400AC1EE001AC0ED1C1A00E0491CC48C35
:10410000C388A4F5FA65AB4213DDC58E661906F5C2
:10411000FA669E420DD91C1B00EE104AB8EEC01A7A
:1041200000EE105AB8EE400AC1EE001AC0ED1D1A9A
:1041300000E0491C002404290ED990F87C10491C89
:10414000C9B280F87C10042908D9022180F87B10BC
:10415000052180F87C1003E080F87C4080F87B40EB
:104160004FF47A74A34201D9012100E0002100EE4E
:10417000101AA242B8EE400A80ED190A01D20121BC
:1041800000E0002100EE101AB8EE400A80ED1A0A95
:1041900090ED170AB0EEC01A11EE101A9FED411AF9
:1041A000B1F1804F01DCB0EE410A80ED170AB0EEAC
:1041B000C00A10EE101A3C4A914209DDB2EE040A20
:1041C00002F0C2FED0ED171A20EE210A80ED170A88
:1041D00090ED100A354A10EE101A914204DD90ED70
:1041E000110A80ED100A06E0B5EEC00AF1EE10FAF1
:1041F00001D880ED101A90ED130A2D49B0EEC01AC7
:1042000011EE102A8A4205DD02F09EFE20EE200A01
:1042100080ED130A90ED150AB0EEC01A11EE102AC7
:104220008A4205DD02F090FE20EE200A80ED150A9C
:10423000D0ED100A90ED110ADFED1E1A70EEC00AE3
:1042400000EEA10A80ED100A90ED131AD0ED140AC9
:1042500031EE601A41EE210AC0ED130A90ED152AE5
:1042600090ED161A32EE412A02EE211A80ED151A4F
:10427000D0ED172A90ED182A72EEC22A02EEA12A7A
:1042800080ED172A80ED110AC0ED140A80ED161A90
:1042900080ED182A70BD00000000C84300002042D5
:1042A000000020C200000000000020410000C843C0
:1042B0000000204275FEA33E70B590B0044601296F
:1042C0007ED10020474A01466D4608AE45F82020C1
:1042D00046F82010401C0828F8DB012084F87A00FA
:1042E00040F2DC50FDF704FD17E03F4901F1BC004E
:1042F00003F02AF95FF0000056F8202034F810107F
:104300008A4201DA46F8201055F820208A4201DD61
:1043100045F82010401C0828EEDB94F87A000128AC
:10432000E3D0002004EB400235F82010118436F869
:104330002030401C591A11860828F3DBB4F92010EC
:104340000E20FCF769FCB4F922101020FCF764FC85
:10435000B4F924101220FCF75FFCB4F926101420E5
:10436000FCF75AFCB4F928101620FCF755FCB4F9F8
:104370002A101820FCF750FCB4F92C101A20FCF776
:104380004BFCB4F92E101C20FCF746FCB4F930109D
:104390001E20FCF741FCB4F932102020FCF73CFC55
:1043A000B4F934102220FCF737FCB4F9361024207D
:1043B000FCF732FCB4F938102620FCF72DFC00E0A5
:1043C0000EE0B4F93A102820FCF726FCB4F93C10B2
:1043D0002A20FCF721FCB4F93E102C20FCF71CFC31
:1043E00010B070BD20A10700300B002010B50446AE
:1043F000FFF762FF2046BDE81040AFF300804FF4A6
:104400009971018441848184C184018541858185BC
:10441000C18540F26E51018641868186C186018741
:1044200041878187C18770470FB42DE9F0475C4D04
:1044300000262DED028B9CB0359C94F86F00401C3B
:1044400084F86F006868401C686005287DDAB4F85D
:104450006C004FF00108002863D194F86E00012829
:1044600034D1218860889FED4F0ADFED4F0A8142E9
:104470004FF6FF72A0EB010100D3114401EE101AB8
:104480004A4BB8EEC11AC1EE001A21EEA00A10EE96
:10449000101A84ED030A994218DA022184F86E108A
:1044A00021899FED430A8842A0EB010100D8114405
:1044B00000EE901AB8EEE01AC1EE000A80EE801A03
:1044C00084ED011A2081204603F034F9DFF8E4A0DE
:1044D0004FF40079012249465046FDF738FD2698F1
:1044E000406A87B22698406A9FED338B20802698D9
:1044F000406A80B2C01BFCF72EF841EC100B01F0B3
:10450000ABFB53EC182B51EC100BFCF755F8EED32A
:10451000002249465046FDF71AFDA4F86C8084F845
:104520006F606868C82801DD012000E0002029686C
:10453000012900D00021084319D0392226A90DA84D
:10454000FBF76FFE9DF8D10000E023E08DF86D00D1
:1045500034220FA96846FBF764FEDDE90D239FEDC9
:10456000180A2146174800F0FDFDC5F80080B4F890
:104570006C00032801D1A4F86C6094F86F00102837
:1045800001D9A4F86C601CB0BDEC028BBDE8F0074B
:104590005DF814FB6E6024F86C6FA670F3E7000002
:1045A0003800002000004843333353400000E1430B
:1045B00000007A44000402400000000000003E4079
:1045C00000000000840700202DE9F00F4348444913
:1045D0004FF000084289D1F81C31C246134400F55F
:1045E00094721360C389D1F88010591A516081897F
:1045F00091600189D1604188116181885161C088D1
:104600009061384801239B4680F80080437080F811
:10461000058002F14801447901F80480641CE4B289
:104620004471192CF7D380F804800F240C70437167
:1046300080F802804FEA020980F8038090F802C0F7
:1046400059F82C400279072A04D980F8048042796D
:10465000521C4271C378457924FA03F202F0010733
:1046600002794E5D97403E434E55521C02715B1CD1
:10467000DAB2C2700B2AE5D30CF1010C0CF0FF0288
:104680008270102AD8D3D9F840304FF48062934218
:1046900003D3CB7D43F00103CB75D9F8440090429E
:1046A00003D3C87D40F00200C875BBF1000F03D0F2
:1046B000C87D40F00400C875BAF1000F03D0C87D72
:1046C00040F00800C87581F81880BDE8F00F01239C
:1046D000192205490548FEF7BBBD0000300B00203C
:1046E0005005002046000020A00C0020A80100205A
:1046F0000B489FED0A0A012180ED030A8160002129
:104700009FED080AC0F8801080ED220A80ED0A0AA9
:1047100080ED1E0A80ED080A704700000000DC42B0
:10472000180400200000000010B5FDF727FEBDE8CA
:104730001040FEF7B4B9000030B5164891B00168DA
:1047400041F0805101601448016841F4404101602A
:104750000120039002240620049000940025069472
:104760001020CDE907504FF4A870CDE909040420CA
:104770000B906846FDF7E4FF0CA90D2081E831009D
:104780004FF4A0500F90109005210CA8FDF77CFE6F
:1047900011B030BD40380240007000401048016840
:1047A00041F4700101600F48016841F001010160AE
:1047B0000C4A00210832116002680B4B1A4002605B
:1047C000031D0A4A1A60026822F48022026005482A
:1047D0000C300160024958068039086070470000BB
:1047E00088ED00E000380240FFFFF6FE10300024A4
:1047F0000148FEF762BA0000F0000020F0B5026840
:10480000234B244D244E254F254C4FF0804C98428D
:1048100009D0604507D0A84205D0B04203D0B842C5
:1048200001D0A04204D122F0700E4A6842EA0E0282
:1048300098421BD0604519D0A84217D0B04215D07D
:10484000B84213D0A04211D0164DA8420ED0164D3A
:10485000A8420BD0154DA84208D0154DA84205D04E
:10486000144DA84202D0144DA84203D122F4407541
:10487000CA682A4302608A68C2620A6882629842F1
:1048800001D0A04201D10969016301214161F0BD5C
:10489000000001400004004000080040000C0040FF
:1048A0000004014000400140004401400048014034
:1048B00000180040001C00400020004010B50123FB
:1048C000046A8B409C430462036A8A401343036278
:1048D00010BD10B5846842EA032224F47F440A43E1
:1048E0002243826010BD826822F070020A4342F0C7
:1048F000070181607047000030B5026A22F00102B2
:104900000262026A436884690D6824F073042543D7
:1049100022F002048A6822430B4CA04202D00B4CC6
:10492000A0420BD122F00804CA6823F4407322434A
:104930004C6922F004021C438B6923434360856168
:1049400049684163026230BD00000140000401403B
:1049500030B5026A22F010020262026A436884697A
:104960000D6824F4E64444EA05248D6822F0200210
:1049700042EA05120D4DA84202D00D4DA8420ED1BB
:10498000CD6822F0800242EA05124D6923F44063AB
:1049900043EA85038D6922F0400243EA85034360C0
:1049A000846149688163026230BD000000000140FB
:1049B0000004014030B5026A22F480720262036A88
:1049C0004268C46923F4007324F073050C682C4317
:1049D0008D6843EA05230D4DA84202D00C4DA84234
:1049E0000ED1CD6823F4006343EA05234D6922F418
:1049F000405242EA05128D6923F4806342EA0512AF
:104A00004260C4614968C163036230BD0000014077
:104A10000004014030B5026A22F480520262046A46
:104A20004268C3690D6823F4E64343EA05238D68B1
:104A300024F4005444EA0534084DA84202D0084D3D
:104A4000A84204D14D6922F4804242EA85124260B4
:104A5000C36149680164046230BD00000000014088
:104A60000004014010B5036A046A24F001040462E2
:104A7000846924F0F00444EA021423F00A020A4391
:104A80008461026210BD10B5036A23F01003036253
:104A90008369046A23F4704343EA023224F0A003DA
:104AA00043EA01118261016210BD10B5806B0021E3
:104AB000C185C184012180F83910C16B41F010011A
:104AC000C163FEF759FA10BD10B50146806B096845
:104AD0000968C9050ED40021C18501684A6922F020
:104AE00040024A6190F83910322906D05FF0010186
:104AF00080F83910FEF784FB10BD1221F8E710B5DD
:104B0000806BFEF7A3FB10BD2DE9F0410168044660
:104B1000086920F44052E068104308612268D068B8
:104B200049F20C6188432369A168E5691943636907
:104B30002B4319430143D1602168486920F4407236
:104B4000A06910434861E26964263225B2F5004F3E
:104B500049494A4822681DD0824201D08A426AD11E
:104B6000FDF79EFD00EBC00101EB00106168B0464F
:104B70008900B0FBF1F1B1FBF8F6FDF791FD00EB18
:104B8000C00101EB001061688900B0FBF1F7FDF78F
:104B900087FD69E0824201D08A4219D1FDF780FD8C
:104BA00000EBC00101EB00106168B0464900B0FBAA
:104BB000F1F1B1FBF8F6FDF773FD00EBC00101EB7D
:104BC000001061684900B0FBF1F7FDF769FD18E0DE
:104BD000FDF750FD00EBC00101EB00106168B0462D
:104BE0004900B0FBF1F1B1FBF8F6FDF743FD00EB36
:104BF000C00101EB001061684900B0FBF1F7FDF75F
:104C000039FD00EBC00101EB001061685FEA410172
:104C1000B0FBF1F1B1FBF8F06FF01801484307EB7E
:104C2000800005EB0011B1FBF8F0216866F31F105E
:104C30008860BDE8F081FDF71DFD00EBC00101EBD0
:104C400000106168B0468900B0FBF1F1B1FBF8F6E5
:104C5000FDF710FD00EBC00101EB00106168890059
:104C6000B0FBF1F7FDF706FD00EBC00101EB001012
:104C700061688900CCE70000001401400010014089
:104C80002DE9F0471D4690460E460446FDF764F9AF
:104C900007465FEA08004FF000094FF0010808D00E
:104CA00030E0681C05D095B1FDF756F9C01BA8424D
:104CB0000DD82068006836EA0000F2D127E0681CB1
:104CC00020D025B1FDF748F9C01BA8421AD92068A9
:104CD000C16821F08001C1602068C16821F0200115
:104CE000C1602068C16821F48071C1602068416999
:104CF00021F00101416184F8398084F83890032063
:104D0000BDE8F0872068006836EA0000D7D00020B0
:104D1000F6E7000070B504462DED0C8BB7EE009A57
:104D2000B0EE008AF0EE498A0D46B0EE680A90EDCA
:104D300001BAD0ED029A6BEE0B0A49EEA90A00EE19
:104D4000C80A10EE100AFBF724FC94ED000AD4ED1B
:104D5000030A41EC1A0B20EE0B0A09EEA00A20EE22
:104D6000080A10EE100AFBF714FC41EC100BB0EE31
:104D70004A1AF0EE6A1A00F077FE9FED99AB51ECFB
:104D8000100B53EC1A2BFBF705FB9FED97BB53EC75
:104D90001B2BFBF771FBFBF727FC606194ED000A0E
:104DA000D4ED020A94ED011A20EE200AD4ED030A94
:104DB00000EEC10A20EE080A10EE100AFBF7E9FB2C
:104DC00041EC100B00F034FB53EC1A2B51EC100BA0
:104DD000FBF7E0FA53EC1B2BFBF74EFBFBF704FC55
:104DE000206194ED02DAD4ED039A2DEE0D0A09EE5E
:104DF000A90A40EE488A18EE900AFBF7CAFB94ED28
:104E0000000AD4ED010A41EC1C0B20EE290A00EE49
:104E10008D0A20EE080A10EE100AFBF7BAFB41ECEF
:104E2000100BB0EE4C1AF0EE6C1A00F01DFE53ECB5
:104E30001A2B51EC100BFBF7ADFA53EC1B2BFBF7C5
:104E40001BFBFBF7D1FB00EE100A694984ED060A53
:104E5000D4ED070A70EEC00A10EE900A884205D918
:104E600094ED0A1A31EE491A84ED0A1A10EE900AEE
:104E70006049884205DDD4ED0A0A70EE890AC4ED66
:104E80000A0A84ED070AD4ED0A0A9FED5B1A294647
:104E9000204600EE810A84ED060A94ED040A84EDB2
:104EA000090A94ED050A84ED080AFBF72DFDD4EDFF
:104EB000010AD4ED031A94ED000A94ED021A60EE93
:104EC000A12A95ED013AD5ED023A95ED035AB0EEDF
:104ED000622A4C4900EE412A22EE082A22EE034AB9
:104EE00021EE213AB0EE432A00EE202A22EE082AD3
:104EF00002EE234A20EE002AF6EE003AF0EE424A95
:104F000041EEA14A74EEE34A64EE884A04EE854A13
:104F100084ED154AD5ED104A34EE644A84EE245AE5
:104F20009FED364ADFED364A45EE044AC4ED154A98
:104F3000F0EEE44A14EE900A884203DADFED324ADA
:104F4000C4ED154A60EE814AD5ED015A00EE603A93
:104F500095ED026AB0EE645A40EE614A00EE215AC5
:104F600040EE012A23EE083A64EE881A25EE085A2C
:104F700022EE880A25EE255AF0EE425A00EEA02ACB
:104F800041EE015A72EE630A75EEE35A60EE880A4A
:104F900065EE885A05EE865AD5ED035A03EE255A7A
:104FA000D5ED105A85EE253A23EE043A84ED143AF5
:104FB00095ED012A95ED031A60EE820A95ED022A1D
:104FC00041EE820A40EE010A95ED101A80EE810A48
:104FD00020EE040A84ED130ABDEC0C8B70BD0000BA
:104FE0000000000000806640000000C0CA210940A7
:104FF0000000A0C30000A0430000B443CDCC1C417E
:10500000295C8F3D0AD7A33C0000000010B590ED4D
:10501000010AD0ED020A044620EE000A00EEA00AC2
:10502000D0ED030A00EEA00A10EE100AFBF7B1FA69
:1050300041EC100B00F080FE51EC100BFBF7D4FAA2
:1050400000EE100A84ED110AD4ED120A94ED141A40
:1050500070EE600A70EE810A9FED151A60EE810A0B
:10506000C4ED130AC4ED140AF0EEE00A10EE900A43
:1050700084ED120AB0F1814F09DAD4ED100ADFEDA8
:105080000D1A30EE601A41EE210AC4ED100A94EDBB
:10509000101AC0EE010AB7EE000AC4ED110A30EE94
:1050A000600AB0EEC00AB0EEC00A84ED150A10BD69
:1050B000E06B633F6BCB743E70B505460C460D202C
:1050C000FDF79AF93A20FDF797F91020FDF794F9CA
:1050D0002720FDF791F92046FEF7F6FE2720FDF781
:1050E00096F90D20FDF793F93A20FDF790F910207D
:1050F000FDF78DF92146284602F034FB214628466B
:10510000FEF7ACFC21462846BDE87040FFF702BE22
:10511000C0ED061A80ED071A90ED002AD0ED032AA3
:1051200022EE222AD0ED012A00EEA22AD0ED080AB2
:1051300070EEA10AF7EE001A30EE420A70EE812AF4
:1051400081EEA21A21EE201A80ED091A01EE002A42
:1051500031EEC10A20EE200A80ED032A80ED080A14
:10516000704700003A4810B590ED030ADFED370AAA
:1051700080ED040A91F86E209FED361A022A06D0BF
:1051800000EE810A80ED030AB7EE000A10BD00228E
:1051900081F86E2091ED052A314B81ED112A91EDB8
:1051A000120A91ED011A72EE401A81EE810ADFEDCA
:1051B0002A1A71EE211AC1EE212A81ED0E0AD1EDD3
:1051C0000D1A30EE613AB0EE610A02EE830ADFEDAD
:1051D000232A31EE223A81ED0B0A70EE611A82EE3B
:1051E000831AD1ED102A71EEA21A21EE211A81ED57
:1051F0000F1A81ED0D0A81ED122A81ED101AB0EE21
:10520000C11A11EE101A99420ADC816A012904D1EF
:10521000B7EE001A80ED081A82629FED121A0BE0B9
:1052200011EE101A0E4A52421144B1F5D00F09D2B4
:1052300001219FED0D1A8162F0EE081A0448FFF774
:1052400067FFA1E7C0ED030A9EE700000000000031
:1052500084070020CDCCCC3E3661823D83F9A23D4F
:1052600000005041000082420080BB4510B504465A
:105270005648416E56489FED570AB1F17E5F11D0F6
:105280000021C4F8801084ED220A84ED0A0AC4F8D3
:105290001C1184ED490A84ED310A80ED100A80ED7D
:1052A000110A10BD4C49D0ED101A91ED031ADFED33
:1052B0004B0A4B4941EE201AC0ED101AD0ED111ADD
:1052C00091ED032A42EE201AF1EE410AC0ED111AC7
:1052D000C4ED050A91ED031AF8EE001A2046B1EE6E
:1052E000411A84ED2C1AC4ED031AC4ED2A1AD4ED28
:1052F000061AC4ED060A70EEE11AD4ED2D0A84ED0B
:105300002D1A31EE602AD4ED360A32EE601A9FED86
:10531000352A41EE020AC4ED270A94ED0F1A71EE08
:10532000C11A01EE821ADFED311A84ED001AC4EDC4
:10533000360A84ED0F1AF1EE000A9FED2B1AC4ED28
:10534000110A84ED121A84ED130AC4ED380A84EDB3
:10535000391A84ED3A0A9FED261AC4ED181A9FED0A
:10536000250A84ED191ADFED240A84ED1C0AC4ED28
:105370001A0A84ED1B0AC4ED3F1A84ED401A84ED2D
:10538000430AC4ED410A84ED420AFBF75BFB04F1DA
:105390009C00FBF757FBD4ED490A94ED4A0A9FEDB8
:1053A000171A70EEC00A00EE810A84ED490AD4EDA6
:1053B000221AD4ED230A71EEE01A41EE810AC4EDFF
:1053C000220AC4ED230A84ED4A0A10BD300B0020E6
:1053D000BC0C002000000000780D00200AD7A33B81
:1053E000A40D00206BCB743E9A99993F00002F4486
:1053F00000002FC4000048430000FA4344AB4D3E78
:1054000003B401984100009850EAC12018BF04205D
:105410004A0D18BF40F0010040F2FF72B2EB515F3D
:1054200008BF40F00200012808BF052002B0704705
:1054300070B5C1482DED020B2DED0E8B82B0119D84
:1054400025F000449FEDBEDB9FEDBFEB84423EDBC9
:10545000A4F140511098A1F17F6108430FD0BC48DE
:10546000844202DC28D1109830B39DED100B02B0BD
:10547000BDEC0E8B02B0BDE8704001F06DBA9DED41
:10548000100B53EC1D2B51EC100BFAF783FF9DED25
:10549000100B41EC180B53EC1E2B51EC100BFAF7D0
:1054A00079FF53EC182BFAF7CEFE41EC100B02B04B
:1054B000BDEC0E8B02B070BD012001F091FA02B07C
:1054C000BDEC0E8B02B0BDE8704001F059BAA148A6
:1054D0009FEDA18B844256DA9DED100BB4F1795FFC
:1054E0000ADA51EC100BFFF78BFF042808BF01F01C
:1054F00057FA9DED100BDAE753EC102B51EC100B23
:10550000FAF748FF41EC190B95480621B0EE490A1D
:10551000F0EE690A784400F063FF53EC192B51EC6C
:10552000100BFAF737FF41EC1A0B8E48B0EE490A20
:10553000F0EE690A0421784400F052FF53EC192B75
:1055400051EC100BFAF726FF53EC182BFAF77BFE01
:1055500041EC100B51EC1A0B53EC102BFAF78CFFAB
:10556000CDE900019DED000B53EC102B9DED100BD0
:1055700051EC100BFAF70EFF9DED101B53EC112BA5
:10558000FAF761FED2E09DED100B51EC100B01F02B
:10559000CFFC53EC182BFAF7FAFE9FED730BCDE915
:1055A000000153EC102B9DED000B51EC100BFAF7A2
:1055B000F1FE41EC190B6E480621B0EE490AF0EEFF
:1055C000690A784400F00CFF53EC192B51EC100BD6
:1055D000FAF7E0FE41EC1B0B6648B0EE490AF0EE2C
:1055E000690A0421784400F0FBFE53EC192B51ECBE
:1055F000100BFAF7CFFE53EC182BFAF724FE41EC10
:105600001C0B51EC190B02F05DF841EC180B5A48D9
:105610009FED5BABA04222DC53EC1C2B51EC1B0B2F
:10562000FAF72AFFCDE900019DED000B51EC180BB4
:1056300053EC102BFAF7AEFE53EC182BFAF703FEDF
:1056400053EC1A2BFAF7A6FE53EC1D2BFAF79CFE2F
:1056500053EC1E2BFAF79BFE41EC100B5FE08DED37
:10566000008B002000909DED000B51EC180B53ECCB
:10567000102BFAF7E8FD9DED000B41EC1E0B53ECEF
:10568000102B51EC100BFAF785FE53EC192BFAF79F
:105690007EFE53EC1E2BFAF7EFFE41EC190B53EC98
:1056A0001C2B51EC1B0BFAF7E7FE41EC1B0B53ECE8
:1056B0001A2B51EC190BFAF76DFE53EC1D2BFAF770
:1056C00066FE41EC190B53EC1A2B51EC180BFAF750
:1056D00061FE53EC1B2BFAF75DFE53EC192BFAF726
:1056E00053FE9DED000B41EC180B53EC1A2B51ECC3
:1056F000100BFAF74FFE9FED249B53EC192BFAF792
:1057000046FE41EC100B51EC180B53EC102BFAF742
:105710003BFE53EC192BFAF73AFE41EC100B002D2F
:105720003FF7C5AE51EC100B81F0004141EC100B7E
:10573000BDE60000000000000000F03F0000000097
:10574000075C143326A6913C182D4454FB21F93FE5
:105750000000F07F0000E03F000000000000F03F8C
:10576000802300008E230000000000000000E03FC6
:10577000D2220000E02200003333EF3F000000009F
:105780000000000000000040182D4454FB21E93FB8
:1057900070B59B482DED020B2DED068B079D25F076
:1057A0000044A04218DC9748844202DC0AD10698E3
:1057B00040B19DED060BBDEC068B02B0BDE870401C
:1057C00001F0CAB8002DCCBF9FED8F0B9FED900B61
:1057D000BDEC068B02B070BD8F48A04215DD8F482E
:1057E000A042D8BF4FF0FF3458DD9DED060B51ECC1
:1057F000100BFFF705FE042808BF01F0D1F89DED5E
:10580000060BBDEC068B02B070BD9DED060B51EC96
:10581000100B01F08DFBCDE9060181489FED828BD5
:10582000A0423CDD8248A0421FDD00249FED82ABF8
:105830009DED060B53EC1A2B51EC100BFAF703FD00
:105840009DED060B41EC190B53EC1A2B51EC100B90
:10585000FAF7A0FD53EC182BFAF796FD53EC192B31
:10586000FAF70AFECDE9060149E09DED060B012499
:1058700053EC182B51EC100BFAF7E5FC9DED060BE1
:1058800041EC190B53EC182B51EC100BFAF77CFD83
:1058900053EC192BFAF7F0FDCDE906012FE068482B
:1058A000A0421FDD02249FED689B9DED060B53EC8B
:1058B000192B51EC100BFAF76DFD53EC182BFAF77E
:1058C000C2FC9DED060B41EC180B53EC192B51EC6F
:1058D000100BFAF759FD53EC182BFAF7CDFDCDE973
:1058E00006010CE09DED060B032453EC102B9FEDFD
:1058F000580B51EC100BFAF7BFFDCDE906019DEDF9
:10590000060B53EC102B51EC100BFAF743FD41EC56
:10591000180B53EC182BFAF73DFD41EC190B4E48D0
:105920000621B0EE490AF0EE690A784400F058FD0D
:1059300053EC182B51EC100BFAF72CFD41EC180B23
:105940004648B0EE490AF0EE690A0521784400F0B5
:1059500047FD53EC192B51EC100BFAF71BFD41ECF2
:10596000100B51EC180B53EC102B002C0EDAFAF73D
:105970006AFC9DED061B53EC112BFAF70BFD9DED18
:10598000061B53EC112BFAF702FD35E0FAF75BFC2E
:105990009DED061B53EC112BFAF7FCFC41EC100BB0
:1059A0002F48784400EBC40090ED001B51EC100B25
:1059B00053EC112BFAF7E8FC9DED061B53EC112B71
:1059C000FAF7E2FC41EC100B2648784400EBC400E7
:1059D00090ED001B51EC100B53EC112BFAF7D7FC98
:1059E00041EC100B002DA2BFBDEC068B02B070BDC8
:1059F00051EC100B81F0004141EC100B01E700006D
:105A0000000010440000F07F182D4454FB21F93FA2
:105A1000182D4454FB21F9BF0000DC3F0000203E5C
:105A20000000F33F00000000000000000000F03F15
:105A30000000E63F00000000000000000000004001
:105A40000080034000000000000000000000F83F5C
:105A5000000000000000F0BF22200000D81F00005E
:105A6000621F00001A1F000070B56B4E2DED040B75
:105A70002DED028B82B0DDF81CC0DDE905235C4210
:105A80002CF000411C4341EAD474049D22F00040F4
:105A9000B44205D86C422C4340EAD474B4420BD9CA
:105AA0009DED061B9DED040B02B0BDEC028B04B016
:105AB000BDE8704000F05ABFACF14054A4F17F64DF
:105AC0001C430BD0022404EAAC7444EAD2740543AC
:105AD0009FED538B9FED542B07D015E09DED040BEC
