:020000040800F2
:10000000B82200209D010008A5010008A7010008F2
:10001000A9010008AB010008AD01000800000000C4
:10002000000000000000000000000000AF01000818
:10003000B101000800000000B3010008B953000836
:10004000B7010008B7010008B7010008B7010008B0
:10005000B7010008B7010008B70100087D0E0008CD
:10006000B7010008B7010008B7010008B701000890
:10007000DD0D0008E90D0008B7010008B701000810
:10008000B7010008B7010008B7010008B701000870
:10009000B7010008B7010008B7010008B701000860
:1000A000B7010008B7010008B7010008B701000850
:1000B000B701000881540008B70100085D39000845
:1000C000B7010008B7010008B7010008B701000830
:1000D000B7010008B7010008B7010008B701000820
:1000E000B7010008B7010008B7010008B701000810
:1000F000B7010008B7010008B7010008B701000800
:10010000B7010008B7010008B7010008B7010008EF
:10011000B7010008B7010008B7010008B7010008DF
:10012000B7010008B7010008F50D0008B701000885
:10013000B7010008B7010008B7010008B7010008BF
:10014000B7010008B7010008B7010008B7010008AF
:10015000B7010008B7010008B7010008B70100089F
:10016000B7010008B7010008B7010008B70100088F
:10017000B7010008B7010008B7010008000000003F
:10018000B7010008B7010008DFF80CD000F09EFBB3
:1001900000480047418B0008B822002006488047ED
:1001A00006480047FEE7FEE7FEE7FEE7FEE7FEE75C
:1001B000FEE7FEE7FEE7FEE72D5400088901000890
:1001C0002DE9F05F0546002092469B46884606468C
:1001D000814640241BE0284641464746224600F01F
:1001E0003EFA53465A46C01A914110D3114618465A
:1001F000224600F025FA2D1A67EB01084F462246E9
:100200000120002100F01CFA17EB00094E41201ECE
:10021000A4F10104DFDC484631462A464346BDE8E6
:10022000F09F40EA01039B0703D009E008C9121FB1
:1002300008C0042AFAD203E011F8013B00F8013BA0
:10024000521EF9D270472DE9FE4F804681EA030025
:10025000C00F0C46009021F0004123F00045B8EBA0
:100260000200A94105D24046214690461C460B4655
:10027000024623F00040104347D0270DC7F30A0081
:10028000C3F30A510290401A019040286BDAC3F37D
:10029000130040F4801B0098924620B10023D2EB5B
:1002A000030A63EB0B0B01985946C0F1400250461C
:1002B00000F0C6F906460D4650465946019A00F030
:1002C000DEF910EB08006141002487EA115284EA4C
:1002D000E7731A4340D0009A62B3019A012A4FEAA9
:1002E000075215DC001B61EB02014FF0004202EAED
:1002F0000752CDE90042001C41F5801132462B46E1
:1003000000F015FA03B0BDE8F08F40462146F9E74A
:10031000001B61EB0201001C41F5801300185B41DA
:100320002018A2F5001747EB030140EAD570B61973
:100330006D4111E06D084FEA360645EAC0754FEA97
:100340000752001B61EB0201001C41F580114908B6
:100350004FEA30000019514132462B4603B0BDE848
:10036000F04F00F0D5B90098012240000023D0EBF7
:10037000020263EBE073009821464FEAE074B8EBA9
:10038000000061EB0401E9E783F000435BE781F0E3
:10039000004158E72DE9FE4F81EA030404F00044D0
:1003A00021F0004100944FF0000B23F0004350EA8D
:1003B00001045ED052EA03045BD0C3F30A54C1F3D4
:1003C0000A552C44A4F2F3340194A0FB0254C1F367
:1003D000130141F48011C3F3130343F4801301FBB1
:1003E000024400FB034E840A970A44EA815447EA18
:1003F0008357A4FB076802958D0A05FB07854FEA22
:10040000932C04FB0C542705029D4FEA065847EA3B
:100410001637B5EB08056EEB070C870E920E47EA10
:10042000811742EA8312A7FB0201B6EB0B0164EBD2
:1004300000042B0D43EA0C335E1844EB1C50DA46E3
:100440005146E7FB0201C5F313044FEA0B3343EABD
:1004500014534FEA0432019C43EA0603A4F10C044E
:100460000294009CCDE900B400F061F903B0BDE84E
:10047000F08F00200146F9E72DE9F04D81EA0304F1
:1004800004F0004B21F0004514464FF0000A23F021
:10049000004150EA050220D054EA01021DD0C5F304
:1004A0000A570246C5F31303C1F31300C1F30A56FA
:1004B00040F4801543F48013A7EB0608101BD646C2
:1004C00008F2FD3873EB050002D308F1010801E0E2
:1004D00092185B41B8F1000F03DA00200146BDE835
:1004E000F08D00204FF48011064684460EE0171B65
:1004F00073EB050705D3121B63EB050306434CEAB8
:10050000010C49084FEA300092185B4150EA01079C
:10051000EDD152EA030012D082EA040083EA050119
:10052000084305D0101BAB4106D20122002306E090
:1005300000224FF0004302E06FF0010253101AEB6B
:1005400006004CEB085110EB0A0041EB0B01BDE833
:10055000F04D00F0DDB80EB5C10F80EAE070084440
:10056000CA07002140F233438DE80E000A460B46CD
:1005700000F0DDF803B000BD70B5C1F30A5201F020
:1005800000450024C1F3130140F2FF3341F4801110
:100590009A4201DA002070BD40F233439A42A2F23F
:1005A000334203DC524200F05AF800E090402C4302
:1005B000F1D0404270BD00F0004230F000400AD05F
:1005C000C10D01F56071C0F3160042EA0151C20885
:1005D00040071143704700200146704701F0004377
:1005E00030B421F0004150EA010206D00A0DA2F514
:1005F0006072C1F31301002A02DC30BC0020704796
:10060000440F44EAC104C100E01830BC00EBC25002
:1006100000F047B830B50B460146002020220124E7
:1006200009E021FA02F59D4205D303FA02F5491BC0
:1006300004FA02F52844151EA2F10102F1DC30BDD6
:10064000202A04DB203A00FA02F100207047914092
:10065000C2F1200320FA03F3194390407047202A87
:1006600004DB203A21FA02F00021704721FA02F35C
:10067000D040C2F120029140084319467047202A19
:1006800006DBCB17203A41FA02F043EAE07306E0BA
:1006900041FA02F3D040C2F12002914008431946CA
:1006A00070470029A8BF7047401C490008BF20F0D0
:1006B0000100704710B4B0FA80FC00FA0CF050EA68
:1006C000010404BF10BC704749B1CCF1200421FAE9
:1006D00004F411FA0CF118BF012121430843A3EBE4
:1006E0000C01CB1D4FEA00614FEA102042BF0020F1
:1006F00010BC704700EBC35010440029A4BF10BCCD
:100700007047401C490008BF20F0010010BC704732
:1007100010B5141E73F1000408DA401C41F1000109
:1007200092185B411A4301D120F0010010BD2DE960
:10073000F04D92469B4611B1B1FA81F202E0B0FA57
:1007400080F220329046FFF77BFF04460F4640EAD6
:100750000A0041EA0B0153465A46084313D011469A
:1007600053EA010019D0C8F140025046FFF777FF65
:1007700005460E46504659464246FFF761FF08437C
:1007800005D0012004E020463946BDE8F08D002068
:10079000054346EAE0762C4337430A986305E40AAA
:1007A000A0EB08000022FD0A44EA47540A3002D5B3
:1007B00000200146E9E7010510196941DDE9084516
:1007C00000196941BDE8F04DA2E72DE9F04D002385
:1007D0001A461B1A8A4103DB00200146BDE8F08D52
:1007E000C1F30A52C1F3130141F480154FF0000B1D
:1007F000D10702D100186D41521E0027044640F275
:10080000FF11384601EB620A3E4680460246002050
:100810004FF48011FFF723FFC2197141BB1846EB5B
:100820000100B4EB030C75EB000C04D3E41A65EB88
:10083000000517460E46241908F101006D41804657
:100840003428E3DDF91946EB0600091BA84103D261
:100850004FF0FF32134601E0002213461BEB070066
:1008600046EB0A51BDE8F04DFFF752BFC1F30A5203
:10087000C1F3130140F2FF3341F480119A4202DACE
:1008800000200146704740F233439A42A2F23342BD
:1008900002DC5242FFF7E3BEFFF7D2BE30B5041EC2
:1008A00071F1000404DB4FF00044404264EB0101AD
:1008B000141E73F1000405DB1C464FF00043524246
:1008C00063EB0403994208BF904230BD064C074DCC
:1008D00006E0E06840F0010394E807009847103410
:1008E000AC42F6D3FFF754FC98960008B89600087F
:1008F0000EB540F2334102910021CDE900110A46C4
:100900000B46FFF714FF03B000BD000010B5806B6D
:1009100090F83D10252906D05FF0150180F83D10B4
:1009200000F0CEFB10BD3521F8E710B5806B042137
:1009300080F83D10016C41F00201016400F0C2FB3F
:1009400010BD10B5806B00F0BCFB10BD434910B565
:10095000D1F8042322F44032C1F80423D1F804234F
:1009600043681A43C1F8042301684A6822F480727C
:100970004A6001684A68036942EA03224A600168E2
:100980004A6822F040724A6001684A6883681A43E4
:100990004A6001688A6822F400628A6001688A6895
:1009A000C3681A438A6001688A6822F070628A60AC
:1009B00001688A68036B1A438A6001688A6822F0BA
:1009C00040528A6001688A68C36A1A438A60016873
:1009D0008A6822F002028A6001688A68836942EAB2
:1009E00043028A60416A002901684A680FD042F4D4
:1009F00000624A6001684A6822F460424A60016805
:100A00004A68174C836A04EB43331A4301E022F42B
:100A100000624A600168CA6A22F47002CA62016810
:100A2000CA6A038C0F4C04EB03531A43CA62016871
:100A30008A6822F400728A6001688A68C36942EA9F
:100A400043228A6001688A6822F480628A600168B1
:100A50008A68406942EA8020886010BD0020014019
:100A600000E0FFFF0000F0FF70B504462DED048BA1
:100A70000D46D0ED058ADFED3B9A90ED049A28EE05
:100A8000A90A10EE100AFFF796FD41EC100B05F0D5
:100A9000BBFF51EC100BFFF7A1FD29EE290A08EE70
:100AA000100A10EE100AFFF786FD41EC100B05F05E
:100AB00007FFB0EE409A95ED100AF0EE609AB1EEA5
:100AC000400A10EE100AFFF776FD53EC192BFFF7E2
:100AD00061FCFFF783FD00EE100AB7EE001A84ED0B
:100AE0000F0AD5ED100A08EE081A60EEA00A40EED3
:100AF000400A80EE810A10EE100AFFF75CFD41EC1F
:100B0000100B05F041FF51EC100BFFF767FD00EEF5
:100B1000900AC4ED110A95ED100A94ED0F1A20EE1B
:100B2000000A01EE410A00EEE00A10EE100AFFF79B
:100B300042FD41EC100B05F027FF51EC100BFFF7C5
:100B40004DFD00EE100AF5EEC08A84ED100AF1EEBC
:100B500010FA03D2B1EE400A84ED100ABDEC048B0A
:100B600070BD000035FA8E3C2D489FED2C0A9FED9C
:100B70002D1A80ED0E0A80ED0F0A80ED170A80ED28
:100B8000180A80ED190A80ED1A0A80ED020AF7EEC4
:100B9000000AC0EC020ADFED241AC0ED030AC0ED22
:100BA000081A80ED091AC0ED0A0A80ED0B0AC4305C
:100BB00080ED0E0A80ED0F0A80ED170A80ED180A0D
:100BC00080ED190A80ED1A0A80ED020AC0EC020AD3
:100BD000C0ED030AC0ED081A80ED091AC0ED0A0A3B
:100BE00080ED0B0AC43080ED0E0A80ED0F0A80ED17
:100BF000170A80ED180A80ED190A80ED1A0A80EDB7
:100C0000020AC0EC020AC0ED030AC0ED081A80ED2A
:100C1000091AC0ED0A0A80ED0B0A704700000000B7
:100C2000841800206F12833BBE370637F0B50746A5
:100C3000D0F8B4000C46002670B197F8830048B98C
:100C40000025781990F8BC10384603F013FC6D1C91
:100C50000B2DF6DBC7F8B460D4F8B40000280FD031
:100C6000084F00253868401C3860601990F8C7109C
:100C7000204603F0FFFB6D1C0D2DF3DBC4F8B460C0
:100C8000F0BD00008400002010B504462DED048B5B
:100C9000A4B0014690226846FFF7C3FA9DED030A0F
:100CA000DDED050A70EE608ACDED088A9DED0F0A34
:100CB00068EE800A9DED0A0A9FED471A00EE810A50
:100CC0008DED0A0ADDED179AF0EEC00AF4EEE90A9E
:100CD000F1EE10FA05DD07F0A9FDDDED170A20EEB3
:100CE000200A8DED0A0ADDED0E0AB0EE408A9DED78
:100CF000100A20EEA89ADDED000A60EE608ADDEDB4
:100D0000190AB0EEC90AB4EEE00AF1EE10FA07DDF6
:100D1000B0EE490A07F08AFDDDED190A20EE209AAF
:100D2000B0EEC80AB4EEE90AF1EE10FA07DDB0EE53
:100D3000480A07F07BFDDDED170A20EE208ADDED85
:100D4000180AB0EEE80AB4EEE00AF1EE10FA07DD98
:100D5000B0EE680A07F06AFDDDED180A60EE208A41
:100D600039EE080A8DED1A9A8DED1B8ACDED1C8A9D
:100D700030EE280ADDED150AB4EEE00AF1EE10FAC5
:100D80000DD29DED161AB4EEC10AF1EE10FA06DD91
:100D9000FDEEC00ACDED1D0A8DED1F0A11E0B4EE87
:100DA000E00AF1EE10FA06DADDED160AB4EEE00A1A
:100DB000F1EE10FA05D8BDEEE00A8DED1D0ACDED7D
:100DC0001F0A902269462046FFF72BFA1D9824B08F
:100DD000BDEC048B10BD00006F12833B014800F096
:100DE0000FBA0000940A0020014800F009BA000080
:100DF000440A0020014800F003BA0000E40A002081
:100E000030B50468256825F4802525600468636092
:100E10008368402B036803D099600068C26030BDCE
:100E20009A600068C16030BD3EB5074C01210222C6
:100E30000094CDE9012182B20223AF21034801F0E1
:100E4000FBFBB4F900003EBD800000207C050020C3
:100E50000EB5084A022311800121CDE90023029139
:100E600082B2AF21044801F0C3FCBDE80E400A2065
:100E700001F0EAB9800000207C050020022001F08A
:100E800023BA00003C49032849691AD0022859D0E6
:100E9000012815D13948DFED3A0A3A4A90ED110A96
:100EA000914280ED0E0A90ED120A80ED0F0AC0ED1E
:100EB000100A05DAF2EE0E0A20EE200A80ED0F0A83
:100EC00070473248304AD0ED351A90ED111AD0ED06
:100ED000370A90ED130A914213DAB6EE002A61EE5A
:100EE000822A21EE022AC0ED322A80ED0E2AB0EECF
:100EF000082AC0EE822AC0ED342AC0EE022AC0EDD4
:100F0000102A234A914211DAB7EE082AC1EE822A4A
:100F1000C0ED322AC1EE022AC0ED0E2AC0EE822AAE
:100F2000C0ED342AC0EE022AC0ED102A194A9142BF
:100F3000C6DAC0ED321A80ED0E1AC0ED340A80ED2B
:100F4000100A7047144890ED110A80ED0E0A90EDDA
:100F5000120A80ED0F0A90ED130A80ED100A90ED51
:100F6000350A80ED320A90ED360A80ED330A90EDB5
:100F7000370A80ED340A7047340B0020E40D00205E
:100F8000000000000000704100007A43040F0020C0
:100F90000000164300004842B410002030B590F81D
:100FA0003C20012A19D0012280F83C200A6807233E
:100FB0000468092A13D9E5680A3A02EB4202934011
:100FC0009D43E5600B788A680A3B03EB43039A4034
:100FD0000368DC682243DA6010E0022030BD256936
:100FE00002EB420293409D4325610B788A6803EB34
:100FF00043039A4003681C6922431A614A681F230D
:10100000072A13D20468656B521E02EB82029340DA
:101010009D4365630B790A885B1E92B203EB8303E1
:101020009A4003685C6B22435A6327E004680D2AE8
:1010300012D2256BD21F02EB820293409D4325639F
:101040000B790A88DB1F92B203EB83039A40036893
:101050001C6B22431A6311E0E56A0D3A02EB82022F
:1010600093409D43E5620B790A880D3B92B203EBF6
:1010700083039A400368DC6A2243DA620F4A0368FA
:10108000934208D10B68122B05D1D2F8043343F4F4
:101090008003C2F80433036893420AD10968102917
:1010A00001D0112905D1D2F8041341F40001C2F88E
:1010B0000413002180F83C10084630BD0020014098
:1010C00070477047704710B5040003D094F83D0096
:1010D00010B104E0012010BD204600F00FF80220FE
:1010E00084F83D002046FFF731FC002020640121F8
:1010F00084F83D1084F83C0010BD000070B5064631
:101100000068144986B0884222D11348016841F42E
:10111000807101600220009003200025CDE90105C7
:1011200069460E4801F0DCF80E4C0D48C4E9000594
:10113000A5608014E560C4E904508000A0618011BE
:10114000C4E907052046656201F010F8B463A663A0
:1011500006B070BD00200140443802400004024047
:1011600010640240F409002070B5044690F83C0079
:1011700000250E46012824D0012084F83C00206878
:10118000416841F0806141602068816841F480716C
:101190008160A16B17481346C863A16B164832469D
:1011A0000864A16B154888642168A06B4C3101F07C
:1011B00015F8122084F83D0020688168C90702D024
:1011C0000CE0022070BD816841F0010181604FF4A4
:1011D000077000BF6D1CADB28542FAD9E06A20B934
:1011E0002068816841F080418160002084F83C00E3
:1011F00070BD00000D090008430900082B09000814
:101200002DE9F05FFB490746FA4DFB4E00684A1591
:10121000DFF8E093DFF8E0A3DFF8D8B39302F64CF1
:10122000483D60364FF0007C09F118090AF1180AB0
:10123000ABF1300B88422BD9EE4954392EE04845AA
:101240003BD100BF4FF008080AE0DFF8A88308F19F
:10125000300840453CD1904602E0984600E0E04628
:1012600011EA080F6FD0016849076CD5016821F0B9
:1012700004010160DF493868884265D9A04205D081
:10128000A84203D0B04201D048453AD1082257E0E5
:10129000D949A831884203D9D6495839096805E0A7
:1012A000D54948318842D549F8D94968A042C9D0C2
:1012B000A842C7D0B042C5D0C1E75045CBD05845B1
:1012C000C9D0DFF8348308F178084045C3D0BCE7C3
:1012D000DFF8248308F130084045BED0DFF81483DE
:1012E000A8F118084045B8D0DFF80C8308F1900841
:1012F0004045B2D0DFF8FC8208F148084045AED145
:10130000ABE750451CD058451AD0BB4978318842CC
:1013100016D0B8493031884212D0B74930318842AE
:101320000BD0B4491839884207D0B349903188426C
:1013300003D0B0494831884201D11A4600E06246E4
:10134000AC484C382FE099E0AB49A83188422CD901
:10135000A04205D0A84203D0B04201D0484501D1F7
:1013600008221EE050451CD058451AD0A2497831B9
:10137000884216D09F493031884212D09E49303180
:1013800088420BD09B491839884207D09A4990313E
:10139000884203D097494831884201D11A4600E07B
:1013A00062469448503802605AE093494831884276
:1013B0002BD9A04205D0A84203D0B04201D0484565
:1013C00001D108221EE050451CD058451AD08A4948
:1013D0007831884216D087493031884212D0864908
:1013E000303188420BD083491839884207D082496E
:1013F0009031884203D07F494831884201D11A4652
:1014000000E062467D48C2602AE0A04205D0A842C2
:1014100003D0B04201D0484501D108221EE050451A
:101420001CD058451AD074497831884216D0714979
:101430003031884212D07049303188420BD06D492A
:101440001839884207D06C499031884203D06949E5
:101450004831884201D11A4600E0624667488260FE
:10146000F86C40F00100F864042087F83500002093
:1014700087F83400B96C09B138468847604A5D493D
:101480003868D3114FF4800C884237D95949543900
:101490003AE0484547D190460CE0DFF8588108F122
:1014A000300840454AD100BF4FF0400802E098465E
:1014B00000E0E04611EA080F6FD0416909066CD5DB
:1014C000416921F0800141614A493868884265D903
:1014D000A0425FD0A8425DD0B0425BD0484559D011
:1014E000504509D0584507D043497831884203D048
:1014F0004049303188423AD140224BE03E49A83140
:10150000884203D93B495839096805E03A494831CE
:1015100088423A49F8D94968A042BCD0A842BAD01A
:10152000B042B8D0B5E75045BED05845BCD0DFF882
:10153000C88008F178084045B6D0AEE7DFF8B8803B
:1015400008F130084045B2D0DFF8A880A8F11808AB
:101550004045ACD0DFF8A08008F190084045A6D007
:10156000DFF8908008F148084045A2D19FE7224962
:10157000303188420BD01F491839884207D01E49A4
:101580009031884203D01B494831884201D11A4624
:1015900000E0624617484C3836E0A1E01649A83111
:1015A000884233D9A0422ED0A8422CD0B0422AD0B3
:1015B000484528D0504509D0584507D00E497831C4
:1015C000884203D00B493031884201D140221AE0D1
:1015D0000949303188420BD006491839884207D072
:1015E00005499031884203D002494831884209D1E7
:1015F0001A4608E058640240106002400060024051
:10160000010080006246F94802605BE0F8498842C8
:101610002CD9A04226D0A84224D0B04222D048459E
:1016200020D0504509D0584507D0F1493031884283
:1016300003D0EE498031884201D1402212E0EC49CA
:10164000183988420BD0E9493831884207D0E84937
:101650004831884203D0E5499831884201D11A4681
:1016600000E06246E2485838C2602BE0A04226D033
:10167000A84224D0B04222D0484520D0504509D0BD
:10168000584507D0DA493031884203D0D7498031F4
:10169000884201D1402212E0D549183988420BD046
:1016A000D2493831884207D0D1494831884203D0E5
:1016B000CE499831884201D11A4600E06246CC48B2
:1016C00058388260F86C40F00200F864042087F813
:1016D0003500002087F83400B96C09B138468847D6
:1016E000C249C44A3868503153114FF4807C4FF0DE
:1016F000807E884236D9BD49091F39E0484545D129
:1017000090460AE0DFF8E48208F18008404548D1BD
:10171000E04602E0984600E0F04611EA080F6FD07C
:10172000016889076CD5016821F002010160AF49A9
:1017300038685031884264D9A0425ED0A8425CD05B
:10174000B0425AD0484558D0504509D0584507D0E6
:10175000A7493031884203D0A4498031884239D129
:1017600062464AE0A2496031884203D99F4908395C
:10177000096804E09E4988429F49F9D94968A04216
:10178000BED0A842BCD0B042BAD0B7E75045BFD017
:101790005845BDD0DFF8588208F130084045B7D031
:1017A000B0E7DFF84C82A8F118084045B2D0DFF866
:1017B0003C8208F138084045ACD0DFF8348208F1AB
:1017C00048084045A6D0DFF8248208F19808404533
:1017D000A2D19FE78649183988420BD08349383116
:1017E000884207D082494831884203D07F499831E6
:1017F000884201D11A4600E072467C48001D2EE066
:1018000097E07B49603188422BD9A04226D0A8427C
:1018100024D0B04222D0484520D0504509D0584568
:1018200007D073493031884203D0704980318842F3
:1018300001D1624612E06E49183988420BD06B49DB
:101840003831884207D06A494831884203D0674915
:101850009831884201D11A4600E07246634802601E
:1018600059E0634988422BD9A04226D0A84224D00F
:10187000B04222D0484520D0504509D0584507D025
:101880005B493031884203D058498031884201D1C8
:10189000624612E05649183988420BD05349383114
:1018A000884207D052494831884203D04F49983185
:1018B000884201D11A4600E072464F48C2602AE0D1
:1018C000A04226D0A84224D0B04222D0484520D001
:1018D000504509D0584507D045493031884203D09A
:1018E00042498031884201D1624612E040491839AC
:1018F00088420BD03D493831884207D03C494831B5
:10190000884203D039499831884201D11A4600E013
:10191000724639488260F86C40F00400F864042094
:1019200087F83500002087F83400B96C09B13846D3
:101930008847DFF8B8C04FF4806138680CF1500C6C
:101940008A020B04604534D9DFF8A0C0ACF1040C66
:1019500039E0484552D100BF4FF010080AE0DFF8E7
:101960008C8008F18008404551D1884602E09046BD
:1019700000E098461CEA080F7ED0D0F800C05FEA6D
:101980000C7C79D5D0F800C05FEA4C384FF0310CB0
:1019900073D5DFF8588008F15008404575D9A0424A
:1019A00005D0A84203D0B04201D0484546D110210D
:1019B00068E0DFF83CC00CF1600C604506D9DFF848
:1019C0002CC0ACF1080CDCF800C007E0DFF820C048
:1019D0006045DFF824C0F6D9DCF804C0A042BBD0D3
:1019E000A842B9D0B042B7D0B3E7000008640240C3
:1019F0005860024004008000006002405045B4D0AE
:101A00005845B2D0DFF84C844045AED0A7E7DFF8A8
:101A10004484A8F148084045A9D0DFF83C844045FB
:101A2000A5D0DFF8308408F1180840459FD0DFF8D2
:101A3000288408F1600840459BD198E7504521D0A3
:101A400058451FD0DFF80C8440451BD0DFF80884D0
:101A500008F14808404515D0FE49483988420AD067
:101A6000FD49884207D0FB491831884203D0FA4922
:101A70006031884205D102E0ADE0BBE005E01146EF
:101A800000E01946F448343831E0DFF8C88308F143
:101A9000300840452DD9A04205D0A84203D0B0421D
:101AA00001D0484501D110211FE050451DD05845B7
:101AB0001BD0DFF8A083404517D0DFF89C8308F1E6
:101AC0004808404511D0E349483988420AD0E249E4
:101AD000884207D0DF491831884203D0DE4960319F
:101AE000884201D1114600E01946DB4838380160D0
:101AF00060E0DFF86083A8F1300840452DD9A042AE
:101B000005D0A84203D0B04201D0484501D11021F0
:101B10001FE050451DD058451BD0DFF838834045A5
:101B200017D0DFF8348308F14808404511D0C9497F
:101B3000483988420AD0C849884207D0C549183177
:101B4000884203D0C4496031884201D1114600E087
:101B50001946C0488838C1602CE0A04205D0A84290
:101B600003D0B04201D0484501D110211FE05045BB
:101B70001DD058451BD0DFF8DC82404517D0DFF878
:101B8000D88208F14808404511D0B2494839884206
:101B90000AD0B149884207D0AE491831884203D0F3
:101BA000AD496031884201D1114600E01946A9488B
:101BB0008838816038680168090302D487F835C025
:101BC00005E00068000302D5412087F83500396C34
:101BD00009B138468847DFF880C24FF400613868A1
:101BE0000CF1180C8A024FF0006E604570D99A4BC8
:101BF0003C3B00E1D0F800805FEAC85805D4D0F83B
:101C0000008028F00808C0F80080DFF84C823868AF
:101C100008F1180840452CD9A04205D0A84203D0AD
:101C2000B04201D0484501D110211FE050451DD0E0
:101C300058451BD0DFF81C82404517D0DFF81882CA
:101C400008F14808404511D08249483988420AD0F5
:101C50008149884207D07F491831884203D07E49A4
:101C60006031884201D1114600E019467A48343883
:101C700032E0DFF8E08108F1300840452ED9A0427B
:101C800005D0A84203D0B04201D0484501D110216F
:101C900020E050451ED058451CD0DFF8B8814045A3
:101CA00018D0DFF8B48108F14808404512D06949DE
:101CB000483988420AD06849884207D065491831B6
:101CC000884203D064496031884202D1114601E064
:101CD0008BE019466048383801606FE7DFF874819F
:101CE000A8F1300840452DD9A04205D0A84203D024
:101CF000B04201D0484501D110211FE050451DD010
:101D000058451BD0DFF84C81404517D0DFF848819B
:101D100008F14808404511D04E49483988420AD058
:101D20004D49884207D04B491831884203D04A496F
:101D30006031884201D1114600E019464548883893
:101D4000C1603BE7A04205D0A84203D0B04201D019
:101D5000484501D110211FE050451DD058451BD0EA
:101D6000DFF8F080404517D0DFF8EC8008F1480834
:101D7000404511D03749483988420AD0364988420F
:101D800007D034491831884203D033496031884242
:101D900001D1114600E019462E48883881600DE7D0
:101DA000484537D14FF020080AE0DFF8AC8008F151
:101DB0004808404537D1884602E0904600E0F046AA
:101DC00013EA080F7AD00368DB0677D503685B0354
:101DD00075D5604564D9A04205D0A84203D0B04271
:101DE00001D048453CD1202157E01A4B303398426E
:101DF00003D9194B403B1B6805E0164B303B98421A
:101E0000164BF8D95B68A042CCD0A842CAD0B042E9
:101E1000C8D0C5E75045CED05845CCD0DFF8348087
:101E20004045C8D0C1E7DFF8348008F1400840459C
:101E3000C3D0DFF824804045BFD0DFF8188008F118
:101E400018084045B9D0DFF8108008F16008404517
:101E5000B5D1B2E7886002404064024000600240B1
:101E600050451AD0584518D0BE4B984215D0BE4B9D
:101E7000984212D0BB49483988420BD0BA494839F8
:101E8000884207D0B7491831884203D0B649183183
:101E9000884201D1114600E07146B3487C382EE0FB
:101EA000B04B303398422CD9A04205D0A84203D081
:101EB000B04201D0484503D120211EE0FBE089E07B
:101EC00050451AD0584518D0A64B984215D0A64B6D
:101ED000984212D0A349483988420BD0A2494839C8
:101EE000884207D09F491831884203D09E49183153
:101EF000884201D1114600E071469B48803801605C
:101F000058E0984B303B98422AD9A04205D0A842CD
:101F100003D0B04201D0484501D120211CE05045FA
:101F20001AD0584518D08F4B984215D08E4B9842F6
:101F300012D08C49483988420BD08B4948398842A5
:101F400007D088491831884203D087491831884220
:101F500001D1114600E0714682488838C16029E00D
:101F6000A04205D0A84203D0B04201D0484501D1DB
:101F700020211CE050451AD0584518D0794B984282
:101F800015D0794B984212D07649483988420BD007
:101F900075494839884207D072491831884203D0C0
:101FA00071491831884201D1114600E071466D48EF
:101FB0008838816038680168090301D4796C03E0CE
:101FC0000068000377D5F96B002974D03846BDE866
:101FD000F05F08470368DB0503D4036823F01003B0
:101FE00003603868604529D9A04205D0A84203D0D3
:101FF000B04201D0484501D120211CE050451AD003
:10200000584518D0574B984215D0574B984212D08C
:102010005449483988420BD053494839884207D03F
:1020200050491831884203D04F491831884201D1B4
:10203000114600E071464C487C382CE0494B303367
:1020400098422AD9A04205D0A84203D0B04201D07C
:10205000484501D120211CE050451AD0584518D0E0
:10206000404B984215D0404B984212D03D494839D8
:1020700088420BD03C494839884207D03949183149
:10208000884203D038491831884201D1114600E016
:10209000714635488038016059E0324B303B9842F8
:1020A0002BD9A04205D0A84203D0B04201D0484568
:1020B00002D120211DE053E050451AD0584518D0D8
:1020C000284B984215D0284B984212D025494839C0
:1020D00088420BD024494839884207D02149183119
:1020E000884203D020491831884201D1114600E0CE
:1020F00071461C488838C16029E0A04205D0A8423A
:1021000003D0B04201D0484501D120211CE0504508
:102110001AD0584518D0134B984215D0124B9842FC
:1021200012D01049483988420BD00F4948398842AB
:1021300007D00C491831884203D00B491831884226
:1021400001D1114600E07146064888388160F86C7C
:10215000F864112087F83500002087F8340032E752
:10216000BDE8F09F886002408864024070B5D0B13D
:102170000221446A80F8351003681A6816490A403B
:10218000D0E901152943D0E9035635432943456970
:10219000294385692943C5692943056A29431143B0
:1021A000042C02D005E0012070BDD0E90B242243AD
:1021B0001143196003685969426A21F0070111430C
:1021C000042A01D1826A114359610021C1640121AD
:1021D00080F83510002070BD3F8010F070B50446C7
:1021E00090F8340001282DD0012084F8340002201A
:1021F00084F835002068056825F001050560204653
:10220000FEF7FEFD2068016841F0100101602068C2
:10221000016841F0080101602068016841F0040193
:1022200001602068416941F08001416120680168D6
:1022300041F0020101602068016841F00101016084
:10224000002070BD022070BD31B500F02BF90446AE
:1022500000F028F90099001B8842F9D338BD00002E
:102260002DE9F041054602281FD1144C144E154F9C
:10227000B4F86C00012805D12946384600F00CF965
:10228000012814D0B4F86C0002280ED12946384633
:1022900000F002F9002808D13068406A608003200D
:1022A000A4F86C00012084F86E00BDE8F08130686D
:1022B000406A20800220A4F86C00F6E7340B00206E
:1022C000F4050020000C0240044910B50A680242DF
:1022D00002D00860FFF7C4FF10BD0000143C0140AD
:1022E0002DE9F04FDFF880B100224FF001084FF0E8
:1022F000030A4FF00F090BF1040E00BF0B6808FA38
:1023000002F42340A3426FD14D68022D01D0122D5B
:102310000ED1D50800EB850CDCF820505607F70EDF
:1023200009FA07F6B5430E69BE402E43CCF820608B
:10233000066855000F790AFA05FC07F0030726EA3C
:102340000C06AF40374307604E68012E05D0022EC1
:1023500003D0112E01D0122E0ED18668CF6826EA46
:102360000C06AF40374387604668A6430C79C4F338
:102370000014944034434460C6688C6826EA0C0616
:10238000AC403443C4604C68E40066D5374C2568E3
:1023900045F480452560364C22F003052E19D6F809
:1023A000084895072F0F09FA07F5AC43314DA842AD
:1023B00001D1002529E0304DA84201D1012524E0BA
:1023C0002E4DA84201D102251FE02D4DA84201D17A
:1023D00003251AE02B4DA84201D1042515E02A4D12
:1023E000A84202D1052510E037E0284DA84201D1CE
:1023F00006250AE0264DA84201D1072505E0254D16
:10240000A84201D1082500E00925BD402543C6F8B2
:102410000858DBF800405D464E689C43F60300D543
:102420001C432C60DEF8004075464E689C43B603A2
:1024300000D51C432C600C4D08352C684E689C431D
:10244000F60200D51C432C60074D0C352C684E68F5
:102450009C43B60200D51C432C60521C102AFFF48A
:102460004DAFBDE8F08F0000003C01404438024011
:102470000030014000000240000402400008024019
:10248000000C0240001002400014024000180240FC
:10249000001C0240002002400069084000D00120DA
:1024A00070470000014800687047000000000020ED
:1024B00038B501688A69D243D20711D04A69C2F39C
:1024C00040034A684C69C2F34022C4F300158C698A
:1024D000C4F380048BB382B348698869009038BD27
:1024E0008A69D24352074A6928D4C2F3C0144A68A1
:1024F000C2F380234A694968C2F38002C1F34021D4
:102500000CB103B13AB1002AE9D00029E7D0BDE807
:10251000384001F0BFBA416A4A1C42620268097839
:102520001161418D491E4185418D0029D7D1006837
:10253000416821F48061416038BD19E0C2F3801325
:102540004A68C2F380244A694968C2F38002C1F331
:1025500040210BB104B13AB1002AEDD00029EBD0F3
:10256000BDE8384001F000BABDE8384001F04EBA8D
:1025700005B3FAB10446486820F4E060486020687A
:1025800041690091016841F0010101602068016822
:1025900021F480610160232301222449204601F0B7
:1025A00063FB0028C8D1012084F83500204600F0E4
:1025B00089F9C1E74A69DCB1C2F3C0144A68C2F3C1
:1025C00080234A694968C2F38002C1F340210CB1FB
:1025D00003B11AB1002AAFD00029ADD0418D002936
:1025E000AAD0416A4A1C426202680978116119E066
:1025F000C2F380154A68C2F380234A694C68C2F36B
:102600008002C4F340240DB103B11AB1002A93D063
:10261000002C91D0428D002A8ED00A69416A4B1C51
:1026200043620A70418D491E418585E70200100012
:1026300070477047704770472DE9F84F04460AA865
:1026400090E8600894F83500012879D1EDB1E6B141
:1026500020688069C043800772D594F8340001284F
:102660006ED04FF0010884F83480422084F83500A1
:102670000027A7632046CDF800B001F03DFA38B13D
:10268000A06B84F8347004287CD10120BDE8F88F59
:10269000DFF854A1012E18D0DFF84C912068A9F181
:1026A0003C09022E27D0416980690090032E6BD827
:1026B000012E17D0022E2BD05B4600224946204621
:1026C00001F0D2FA00285DD13BE02068016821F4D6
:1026D000806101602068416981690091016841F46D
:1026E000007101605B4600225146204601F0BCFAB1
:1026F00000286FD114E0016821F480610160206836
:10270000016841F4006101602068416980690090BE
:102710005B4600224946204601F0A6FA90BB03E042
:1027200020680069287049E02068016841F4007160
:1027300001602068006928702068006968703DE0C9
:1027400050E02068016821F4806101602068006920
:1027500005F8010B761EB6B25B46002249462046BC
:1027600001F082FA70B92068016841F400710160DB
:102770002068006905F8010B2068006905F8010B65
:10278000B61E17E026E0FFE75B46002251462046D2
:1027900001F06AFAF0B92068006905F8010B2068B9
:1027A000761EB6B24169C943490704D4006905F8E9
:1027B000010B761EB6B2002E7FF478AF2068016858
:1027C00021F4006101605B4601220849204601F0C6
:1027D0004BFA08B1032059E784F8358084F8347047
:1027E000002053E7022051E74000010002001000E2
:1027F0002DE9F84F0446DDE90A6590F83500DDF86B
:102800003090012858D1EEB1E5B120688069C0430D
:10281000800751D594F8340001284DD04FF00108BD
:1028200084F83480322084F835000027A7632046DE
:10283000CDF8009001F0D0F938B1A06B84F8347075
:10284000042831D10120BDE8F88FDFF870A04B4695
:1028500000225146204601F007FA28BB216816F8ED
:10286000010B086120686D1EADB24169C94349077B
:1028700005D435B116F8011B01616D1EADB2002DF6
:10288000E5D14B4600225146204601F0EDF958B9FA
:102890002068016841F4007101604B46012208493B
:1028A000204601F0E1F908B10320CCE784F8358037
:1028B00084F834700020C6E70220C4E780000100DD
:1028C000020010007047000002480168491C0160C6
:1028D00070470000000000200B4810B5016841F46B
:1028E00000710160016841F480610160016841F498
:1028F00080710160032000F05BF8002000F006F812
:1029000000F015F8002010BD003C024010B5044650
:1029100000F03CF94FF47A71B0FBF1F000F051FB9C
:1029200000222146501E00F023F8002010BD10B5F3
:10293000032000F03DF80022BDE810401146501E73
:1029400000F016B800F01F020121914040098000FC
:1029500000F1E020C0F88011704700F01F02012153
:1029600091404009800000F1E020C0F8001170475C
:10297000F0B40E4B1B680C46C3F30223C3F10705EA
:10298000042D00D90425191D072901D2002300E0D8
:10299000DB1E012606FA05F1491E214099409E40A2
:1029A000761E16403143F0BC01F0D0BE0CED00E0C5
:1029B000064900F0070208684FF6FF03184040EA96
:1029C0000220034A10430860704700000CED00E04D
:1029D0000000FA052DE9F047DFF8A8A105460E46EC
:1029E000DAF80000684C00F00F016748083406F080
:1029F000FF0941F28838B14254D28AF80090DAF8DF
:102A0000001001F00F01B1426FD12978890705D577
:102A10002168AA6821F0F001114321602978C907D3
:102A200028D06968012914D00068022914D08007D1
:102A300000285ADA206820F0030008432060FFF7DE
:102A400031FD0646686801280ED00228474618D096
:102A500023E000688003EBE78001E9E7FFF722FD50
:102A6000801BB84201D964E047462068C0F381006A
:102A70000128F3D16EE000BFFFF714FD801BB842C0
:102A800057D82068C0F381000228F5D162E000BF6A
:102A9000FFF708FD801BB8424BD8206810F00C0FE0
:102AA000F6D157E02978890705D52168AA6821F071
:102AB000F001114321602978C90741D069680129D3
:102AC00014D00068022914D08007002840DA20685A
:102AD00020F0030008432060FFF7E4FC0746686825
:102AE00001280ED0022818D026E031E000688003CB
:102AF000EBE78001E9E700BFFFF7D4FCC11B4145CC
:102B000017D82068C0F381000128F5D118E000BF74
:102B1000FFF7C8FCC11B41450BD82068C0F38100FA
:102B20000228F5D10CE000BFFFF7BCFCC11B4145FA
:102B300002D90320BDE8F087206810F00C0FF3D114
:102B40008AF80090DAF8000000F00F00B04201D0DF
:102B50000120EFE72878400705D52068E96820F4D0
:102B6000E050084320602878000706D520682969CE
:102B700020F4604040EAC10020600020FFF7C6FE5C
:102B80000020D7E7003C02400038024000B500F0CA
:102B900043F808490968F02292FAA2F201F0F00124
:102BA000B2FA82F2D140044A515CC840034908603D
:102BB00000BD00000838024014940008B000002056
:102BC00000B5FFF7E3FF074909684FF4E05292FAB6
:102BD000A2F201F4E051B2FA82F2D140024A515C11
:102BE000C84000BD083802401494000800B5FFF743
:102BF000CDFF074909684FF4604292FAA2F201F44E
:102C00006041B2FA82F2D140024A515CC84000BD34
:102C1000083802401494000830B51948006810F0D4
:102C20000C01184812D0184C04290ED008290DD1D7
:102C30001349091F0A6802F03F030A68550247F664
:102C4000C07204D5B4FBF3F003E0204630BDB0FB06
:102C5000F3F00B680968134092FAA2F2B2FA82F21A
:102C6000D34058434FF4403292FAA2F201F440317B
:102C7000B2FA82F2D140491C4900B0FBF1F030BDFC
:102C8000083802400024F40040787D012DE9F84F17
:102C900004460078DFF814A3C54DC0074FF00006C6
:102CA0004BD0DAF800105046C1F38101012908D059
:102CB0000068C0F3810002280AD1281D0068400284
:102CC00006D52868800338D56068002871D034E0C4
:102CD000DFF8DC9209F1020989F80060FFF7E2FBF6
:102CE000804641F2883705E0FFF7DCFBA0EB0800E7
:102CF000B8427DD828688003F6D4207989F800008E
:102D0000606868B1FFF7CEFB804605E0FFF7CAFBBD
:102D1000A0EB0800B842ECD828688003F6D50CE098
:102D2000FFF7C0FB804605E0FFF7BCFBA0EB080007
:102D3000B842DED828688003F6D420789D4F8007FB
:102D40004FF0010B45D5DAF80010504611F00C0F8A
:102D50004FF0F80909D00068C0F3810002280BD1B8
:102D60009248001F0068400206D42868800714D5E6
:102D7000E06801281DD110E0E068D8B1C7F800B0C4
:102D8000FFF790FB804605E0FFF78CFBA0EB080007
:102D90006428AED828688007F6D5286899FAA9F281
:102DA0002169B2FA82F220F0F800914008432860CD
:102DB0000FE0F8E03E60FFF775FB804606E000BFDD
:102DC000FFF770FBA0EB0800642811D82868800783
:102DD000F6D42078000729D5DFF8D09176486169CC
:102DE00009F16C0999B1C0F800B0FFF75BFB00E096
:102DF00085E0804606E000BFFFF754FBA0EB08002B
:102E000064287CD8D9F800008007F5D50EE006606C
:102E1000FFF748FB804605E0FFF744FBA0EB080006
:102E200064286CD8D9F800008007F5D420784007D2
:102E300056D55E483830016841F080510160DFF8B6
:102E40007C91D9F8001041F48071C9F80010FFF7A7
:102E500029FB804606E000BFFFF724FBA0EB08003B
:102E600064284CD8D9F80000C005F5D5DFF83C81BE
:102E700008F1680888F80060FFF714FB41F2883910
:102E8000009005E0FFF70EFB0099411A494536D83E
:102E9000D8F800008007F5D4207A88F80000A068F0
:102EA000012803D0FFF7FEFA009015E0FFF7FAFAC9
:102EB000009005E0FFF7F6FA0099411A49456AD8F3
:102EC000D8F800008007F5D50AE000BFFFF7EAFA5E
:102ED0000099411A49455ED8D8F800008007F5D41A
:102EE000A069E0B3DAF80010C1F3810102295AD0D9
:102EF00002283E6604D0FFF7D5FA04464EE04AE0C9
:102F0000FFF7D0FA064604E0FFF7CCFA801B6428EE
:102F100041D828688001F7D4D4E90710084347F660
:102F2000C07292FAA2F2616AB2FA82F29140A26A87
:102F30004FF0FF3303EB52024FF4403393FAA3F305
:102F4000B3FA83F39A40114308434FF0706292FA48
:102F5000A2F2E16AB2FA82F29140084300E020E076
:102F600040F000511148001F0160C7F860B0FFF742
:102F700099FA044605E000BFFFF794FA001B6428A5
:102F800009D828688001F7D50BE000BFFFF78AFA5F
:102F9000001B642802D90320BDE8F88F286880014F
:102FA000F4D40020F8E70120F6E7000008380240DA
:102FB0000038024000004742800E47420070004047
:102FC000704710B5401EB0F1807F01D3012010BDC5
:102FD0004FF0E02460610F21601701F0B7FB002083
:102FE000A06107202061002010BD10B5FFF7E8FFA9
:102FF00010BD7047704730B590F83820012A20D0B6
:10300000012280F83820022380F8393003685C6898
:1030100024F070045C6003685C680D682C435C609D
:1030200003689C6824F080049C6003689C6849687D
:103030000C439C6080F83920002180F83810084645
:1030400030BD022030BD10B5040003D094F8390023
:1030500010B104E0012010BD204600F00DF8022060
:1030600084F83900211D206802F010FA012084F84C
:103070003900002010BD000000B50168174885B078
:10308000814204D11648016841F0010107E014486B
:10309000144A001F914205D1016841F0020101600C
:1030A00005B000BD104A914211D1016841F4807110
:1030B0000160802000900220019000200290039087
:1030C0000920049069460948FFF70AF9E8E7084A29
:1030D0009142E5D1016841F08001E0E70000014044
:1030E000443802400004004000200040000002403C
:1030F000001C0040022180F8391001680A6842F083
:1031000001020A60012180F839100020704701682F
:10311000CA6842F00102CA600068016841F001011A
:1031200001600020704770B5044690F8380001280F
:1031300017D0012584F83850022084F8390020681F
:10314000826822F0770222F47F4282600868502869
:1031500037D00DDC202859D005DC88B3102841D1A8
:1031600051E0022070BD302853D040283AD13FE0D2
:1031700060282ED070280BD0B0F5805F03D0B0F55A
:10318000005F2FD110E02068816821F0070115E071
:10319000CB68D1E90121206802F0E3F92168886851
:1031A00040F0770088601DE0CB68D1E901212068FC
:1031B00002F0D7F92068816841F48041816011E014
:1031C0001EE0CA684968206802F094FA502120681D
:1031D00006E0CA684968206802F09DFA602120680C
:1031E00002F0C9F984F83950002084F8380070BD25
:1031F000CA684968206802F07DFA40212068EFE73C
:1032000000212068ECE710212068E9E720212068F0
:10321000E6E730212068E3E7704770B504460068B0
:1032200001694FF00005C943890715D4C168C94336
:10323000890711D4E91E0161012020762068806988
:103240008007204602D0FFF7E7FF04E000F0C4F853
:10325000204600F0A6F9257620680169C943490790
:1032600017D4C168C943490713D46FF00401016141
:10327000022020762068806910F4407F204602D02A
:10328000FFF7CAFF04E000F0A7F8204600F089F934
:10329000257620680169C943090716D4C168C94366
:1032A000090712D46FF0080101610420207620681C
:1032B000C0698007204602D0FFF7AEFF04E000F0AF
:1032C0008BF8204600F06DF9257620680169C94326
:1032D000C90617D4C168C943C90613D46FF01001D9
:1032E0000161082020762068C06910F4407F2046E4
:1032F00002D0FFF791FF04E000F06EF8204600F0E6
:1033000050F9257620680169C943C90708D1C16809
:10331000C943C90704D1891E0161204600F05EF946
:1033200020680169C943090609D4C168C94309066F
:1033300005D46FF0800101612046FFF75AFE206836
:103340000169C943490609D4C168C943490605D47E
:103350006FF040010161204600F041F920680169E9
:10336000C94389060BD4C168C943890607D46FF0E5
:10337000200101612046BDE87040FFF73BBE70BDF3
:1033800070B5044690F8380001280DD0012584F866
:103390003850022084F8390042B1042A0AD0082AA1
:1033A0000CD00C2A11D10DE0022070BD206802F073
:1033B000EBF80AE0206802F013F906E0206802F05A
:1033C00041F902E0206802F06DF984F839500020DC
:1033D00084F8380070BD0000074A0168914209D1A5
:1033E000007E012806D1486B00F57A6048630349E6
:1033F0000020086070470000000400409800002092
:1034000010B5040003D094F8390010B104E0012095
:1034100010BD204600F00CF8022084F83900211D70
:10342000206802F033F8012084F83900002010BD34
:103430007047000010B50268044631B1042908D075
:10344000082920D00C2908D121E0D06840F00200E2
:1034500002E0D06840F00400D0600122206802F051
:1034600075F80D492068884202D00C49884203D182
:10347000416C41F4004141642068016841F0010160
:103480000160002010BDD06840F00800E4E7D0687B
:1034900040F01000E0E7000000000140000401409F
:1034A00070B5044690F838000D4601280DD001266D
:1034B00084F83860022084F8390042B1042A18D018
:1034C000082A2AD00C2A4DD139E0022070BD20688C
:1034D00002F05AF82068816941F008018161206892
:1034E000816921F004018161206881692A691143A1
:1034F00011E0206802F074F82068816941F40061ED
:1035000081612068816921F480618161206881691D
:103510002A6941EA0221816124E0206802F092F8E0
:103520002068C16941F00801C1612068C16921F0CA
:103530000401C1612068C1692A69114311E0206852
:1035400002F0B0F82068C16941F40061C1612068EF
:10355000C16921F48061C1612068C1692A6941EAB9
:103560000221C16184F83960002084F8380070BD00
:1035700010B5040003D094F8390010B104E0012024
:1035800010BD204600F00CF8022084F83900211DFF
:10359000206801F07BFF012084F83900002010BD75
:1035A0007047704710B504460068012201F0CEFF55
:1035B00008492068884202D00749884203D1416CFB
:1035C00041F4004141642068016841F0010101605B
:1035D000002010BD0000014000040140704770470A
:1035E000704710B5040003D094F8390010B104E01E
:1035F000012010BD204600F021F8022084F8390097
:103600002068C16821F40051C160204602F0C4F86E
:103610002068016921F4904101612068416921F02D
:103620002A0141612068C16841F40051C160002055
:10363000E063012084F83900002010BD2DE9F04F2F
:103640000646016850484F4B00240222470585B0CA
:103650004FF0010C4FF480694FF4807A4FF4403BF7
:1036600099421DD1016841F4002101604FF440608E
:103670008DE805100820CDE9034069464348FEF770
:103680002FFE444D424805F118012860C5E9017438
:10369000C5E903496C6181E8100C28466C626BE057
:1036A000DFF8F48007233D4D414513D1016841F413
:1036B0000031016060208DE80510CDE903436946C3
:1036C0002846FEF70DFE002211462620FFF750F98E
:1036D00026202AE0DFF8C88041452BD1016841F45B
:1036E000802101604FF440708DE80510CDE903435F
:1036F00069462846FEF7F4FD2A4D254805F11801D4
:1037000018382860C5E90174C5E903496C6181E88E
:10371000100C28466C62FEF729FD756300221146E5
:103720002720AE63FFF724F92720FFF716F905B02D
:10373000BDE8F08F1C488142F9D11348001D016893
:1037400041F0100101604FF4C0608DE815000320C6
:10375000CDE9030369461548FEF7C2FD154D14482F
:1037600005F118012860C5E90174C5E903496C61D8
:1037700081E8100C28466C62FEF7F8FC7563AE63B6
:10378000D5E70000004C00404038024000080240ED
:1037900040600240440A002000440040000C024007
:1037A00000480040940A0020001001400000024040
:1037B00040640240E40A002070B5044690F83900E5
:1037C000012801D0122832D169B362B394F83800CD
:1037D00001282CD0012084F83800A162A2850025A0
:1037E000E56394F8390012281FD0222084F83900AC
:1037F000636B1048D863636B0F481864636B0F48A2
:10380000986408461346666B216802463046091DD7
:10381000FEF7E4FC2068416941F04001416184F811
:103820003850002070BD012070BD3220DEE702203C
:1038300070BD0000595700088F5700083B5700081B
:103840000B4A01680120914201D10A490DE00A4A60
:10385000914202D1094988647047094A9142FBD1DB
:1038600008494A6A521C4A620749C1F8B4007047C5
:10387000004C00401C1300200048004008160020A7
:103880000010014008000020F013002070470000E5
:103890002DE9F047044690F8390099460D46012875
:1038A00001D0222858D12DB322B394F83800012832
:1038B00052D0012684F838600027E76394F8390075
:1038C00022281AD05FF0120084F83900A284E28422
:1038D0004FF48058E08C4B46401EE084A0684FF0C7
:1038E000000240454FF08001204613D102F010F84D
:1038F00008BB04E00120BDE8F0873220E4E7288817
:103900002168C0F308004860206908B16D1C08E018
:10391000AD1C06E001F0FCFF68B9216815F8010B49
:103920004860E08C0028D5D14B460022402120463B
:1039300001F0EEFF08B10320DDE794F839003228EA
:1039400006D084F8396000BF84F838700020D2E7D0
:10395000222084F83900F7E70220CCE70148FEF77F
:10396000A7BD00007C05002010B5418D044600680D
:10397000032903D0618D02290FD004E0016821F4EE
:103980008061016020680169606A421C62620170A6
:10399000608D401E6085002010BD016841F40071FB
:1039A000016020680169606A421C62620170608D7A
:1039B000401E608520680169606A421C6262017075
:1039C000608D401E60852068416821F4407141602F
:1039D000232301220C49204600F046F908B10320B8
:1039E00010BD2068016821F40061016094F8351071
:1039F0000120422984F83500204602D0FEF718FE47
:103A0000C9E7FEF717FEC6E70200100010B5418DAA
:103A100004460068032908D90169606A421C626291
:103A20000170608D401E60852DE0022917D00329AA
:103A300015D0416821F4E061416020680169606A45
:103A4000421C62620170608D401E6085232301224A
:103A50000F49204600F008F930B1032010BD41683D
:103A600021F4806141600EE02068016821F400616A
:103A7000016094F835100120422984F83500204671
:103A800003D0FEF7D5FD002010BDFEF7D3FDFAE709
:103A90000200100010B5418D0446006841B1616A12
:103AA0004A1C626209780161608D401E60851BE0DE
:103AB000416821F4E06141602068016841F40071CF
:103AC0000160232301220B49204600F0CDF808B104
:103AD000032010BD94F835100120322984F83500F8
:103AE000204603D0FEF7A5FD002010BDFEF7A3FD84
:103AF000FAE70000020010002DE9F84F04460068C4
:103B00000F4698460168164641F4806101602068BE
:103B1000016841F4807101604FF0011900224946AB
:103B200020460A9B00F0A0F8E8BB216807F0FE00E1
:103B3000086109F1010A514620460A9A00F0DAF8B4
:103B400018B1A06B042842D031E020684169806937
:103B50000090DFF880B00022594620460A9B00F012
:103B600083F800BBF5B2B8F1010F09D02168300A23
:103B700008610022594620460A9B00F075F890B96A
:103B8000206805610022594620460A9B00F06CF827
:103B900048B92068016841F48071016000224946FB
:103BA00020460A9B00E002E000F05EF810B103201E
:103BB000BDE8F88F2168F8B240F001000861514675
:103BC00020460A9A00F096F80028BAD1F0E70120C2
:103BD000EEE70000800001002DE9F843044600688C
:103BE0000D46DDF8209001689846164641F4807134
:103BF00001604B4600224FF00111204600F034F8DE
:103C000050BB216805F0FE0008614A461549204670
:103C100000F070F828B1A06B04281DD10120BDE888
:103C2000F8832068416980690E4F00907E374B46CB
:103C300000223946204600F017F868B9F5B2B8F10D
:103C4000010F0BD02168300A08614B46002239462B
:103C5000204600F009F808B10320E0E7206805617C
:103C60000020DCE7020001002DE9F05F1E469046CF
:103C70000C460546FEF716FC81464FF0000A4FF051
:103C8000010BC4F30747B8F1000F09D024E0701C02
:103C900006D0D6B1FEF706FCA0EB0900B04214D85E
:103CA0002868012F06D0806924EA00000004000C77
:103CB0001BD0ECE74069F7E7701C0DD02EB1FEF782
:103CC000F1FBA0EB0900B04206D985F835B085F8C4
:103CD00034A00320BDE8F09F2868012F07D0806939
:103CE00024EA00000004000CE6D00020F2E740695E
:103CF000F6E700002DE9F04791460D460446FEF731
:103D0000D1FB824600274FF00108C5F3074628E0A3
:103D100020684069C043400511D42068016841F41F
:103D20000071016021686FF4806048610420A06325
:103D300084F8358084F834700120BDE8F087B9F14B
:103D4000FF3F0ED0B9F1000F05D0FEF7ABFBA0EBA3
:103D50000A01494505D984F8358084F83470032078
:103D6000EBE72068012E07D0D0F8180025EA000004
:103D70000004000CE1D0CBE74069F7E77FB50E48BF
:103D80000C490024C0E900148460046144620125E8
:103D9000C46285610562C5614561C460FDF793F940
:103DA0000920CDE90005694602940348FDF7F6F8BD
:103DB0007FBD0000002001403805002070B531486B
:103DC00086B0016841F010010160016841F0010115
:103DD0000160016841F002010160016841F00401E5
:103DE0000160016841F008010160C01300900125E5
:103DF0000024CDE90154244E694630460394FEF771
:103E00006FFA4FF401600090CDE9015469461F48F4
:103E10000394FEF765FAE8020090CDE90154694683
:103E200030460394FEF75CFAA8030090CDE90154F4
:103E3000694630460394FEF753FA68030090CDE9D3
:103E40000154694630460394FEF74AFA0095CDE9DD
:103E5000015403940E4C69462046FEF741FA0221B4
:103E60000C480291CDE9001069462046FEF738FA69
:103E7000002211460720FEF77BFD0720FEF76DFDAF
:103E800006B070BD30380240001002400000024011
:103E9000000C02400000311010B5114888B00F49E5
:103EA00001601049104A00240968B1FBF2F1C0E931
:103EB00001144FF6FF71C0E90314FFF7C4F8084876
:103EC000FFF79EFA00940194029400226946044888
:103ED0000494FFF755FA08B010BD0000001C004024
:103EE0006C060020B000002080841E0010B512482F
:103EF00088B0104901601149114A00240968B1FBDA
:103F0000F2F1491EC0E9011442F20F71C0E9031435
:103F1000FFF799F80848FFF72BFB6020CDE9000474
:103F200002940022694604480494FFF7B9FA08B0E5
:103F300010BD00000020004030060020B00000202E
:103F400080841E0010B516488EB0144901605321BC
:103F50000024C0E901144FF6FF71C0E90314FFF714
:103F600072F84FF48050079007A90D48FFF7DBF86F
:103F70000B48FFF745FA0B940BA909480C94FFF77F
:103F80003AF84FF47A60CDE9004002940022694685
:103F900003480494FFF7F4F90EB010BD000400408C
:103FA000F405002070B504002AD0022084F8350002
:103FB0002068016821F001010160FEF701FE35492A
:103FC0002368B0FBF1F25A68B0FBF1F192B222F033
:103FD0003F0289B20A435A60226813684FF6FE75A1
:103FE0002B4013602C4B62689A420BD85200B0FBF6
:103FF000F2F080B2042800D20420491C226823E099
:10400000012070BDA3685BB102EBC20303EB021297
:10401000B0FBF2F080B240F48040020506D007E029
:1040200002EB4202B0FBF2F080B2F6E740F0010092
:104030004FF4967251434FF47A72B1FBF2F1491C7E
:10404000226840F4004089B211622168C86120688A
:10405000016841F001010160226810684FF6F531F6
:1040600080B20840A18B238C194389B201431160AF
:10407000D4E903100843216888602068016841F092
:10408000010101600020A063012084F835000020B8
:1040900070BD000040420F00A08601002DE9F047EE
:1040A0008EB004464648464B444E0092444A303057
:1040B0002033122701254FF000084FF0040C4FF475
:1040C00080494FF0020AB1423DD1116841F001012F
:1040D0001160116821F001011160116841F00401C3
:1040E0001160116821F0040111602660016841F43B
:1040F00000010160186840F002001860CDE9097500
:1041000090150890CDE90B5C08A92E48FEF7E8F859
:104110006802089008A92C48FEF7E2F8CDF8048060
:10412000CDE90289CDF81080CDF81480CDF8188043
:1041300020226946201DCDF81C80FCF772F884F817
:1041400035A0224832E0224EB14231D1116841F00F
:1041500002011160116821F00201116026600168FE
:1041600041F400110160186840F002001860CDE9C8
:104170000975C0200890CDE90B5C08A91548FEF729
:10418000AFF84FF44040CDE90280CDF80490CDF86F
:104190001480CDF8188020226946201DCDF81C809F
:1041A000FCF73FF884F835A008483C38FFF7FAFEE2
:1041B0002046FFF7F7FE0EB0BDE8F087005C004038
:1041C000103802400000024000080240B8050020FC
:1041D00000540040000402402DE9F0478EB0044630
:1041E0004548454B434E0092434A30302033122716
:1041F00001254FF000084FF0040C4FF480494FF0B8
:10420000020AB1423DD1116841F00101116011680B
:1042100021F001011160116841F004011160116881
:1042200021F0040111602660016841F40001016081
:10423000186840F002001860CDE9097590150890E3
:10424000CDE90B5C08A92D48FEF74AF868020890F2
:1042500008A92B48FEF744F8CDF80480CDE902897F
:10426000CDF81080CDF81480CDF818802022694652
:10427000201DCDF81C80FBF7D4FF84F835A0214821
:1042800032E0214EB14231D1116841F0020111609A
:10429000116821F0020111602660016841F40011EB
:1042A0000160186840F002001860CDE90975C0206F
:1042B0000890CDE90B5C08A91448FEF711F84FF4FB
:1042C0004040CDE90280CDF80490CDF81480CDF8BF
:1042D000188020226946201DCDF81C80FBF7A1FF25
:1042E00084F835A007483C38FFF75CFE0EB0BDE807
:1042F000F0870000005C00401038024000000240DF
:1043000000080240B80500200054004000040240AC
:1043100000B5D1ED010A91ED100AD0ED001AD0EDF3
:10432000012A80EE806AD1ED020A90ED023A90ED0A
:10433000032AD1ED075A91ED085AD1ED094A0246F8
:10434000C0EE803AD1ED030AB5EEC06A80EE804A35
:10435000F1EE10FA09D1F5EEC03AF1EE10FA04D1FF
:10436000B5EEC04AF1EE10FA3BD026EE060A03EE97
:10437000A30A04EE040A04F0CDFB26EE006A63EE05
:10438000803A24EE004AB6EE000A21EEA21A11EE9F
:10439000A10A62EE820A03EE021A41EEC30A02EE9D
:1043A000020A63EE806A44EE416A24EE204A26EE59
:1043B000011A06EE404A9FED2C0A03EEE01A82ED48
:1043C0000B0A82ED0C0A82ED0D0AD2ED0E0A9FED6A
:1043D000270A20EE800A40EE265A00EE045A40EEEC
:1043E000014ADFED230A25EEA00A25EE201A64EE2D
:1043F000A00A62EEC03A43EE413A42EE603A33EE32
:10440000A14A61EE803A43EE203A42EE413A73EE21
:10441000A24A61EE813A42EEE03A61EEA00A42EE33
:10442000810A42EE003A43EE400A24EE040A73EE9B
:10443000833A04EEA40A70EE821A03EEA30A01EE98
:10444000A10A04F067FB24EE001A64EE800A23EE52
:10445000802A21EE800A82ED001AC2ED010A82ED67
:10446000022A82ED030A00BD000000003333B33F8F
:104470000000003B70B590F8805000220424012316
:10448000062D08D2DFE805F0030812171C3CFF29AF
:1044900001D180F8803070BDFF2904D15FF00201A6
:1044A00080F8801070BD80F8802070BDC91E80F833
:1044B00082100321F4E70029F5D180F8804070BD17
:1044C00090F8824044B110F8812F0A4400F8012985
:1044D00001710521017070BD90F88140214411F0F7
:1044E000FF0180F8811004D0C0F8882080F8812076
:1044F000D9E700F8802FC3708168C0E9022170BD40
:1045000090F881200A4480F8812080F8851080F896
:104510008040D0F88820B0F9841040F8221010F8BC
:10452000821F891E00F8061B0168491C016070BDCE
:104530001FB50A460A24012303A98DE81A0010F8C2
:104540005C1BFEF779F89DF80C0004B010BD00006C
:1045500070B504463B21FFF7EBFF2B4D3C21687003
:104560002046FFF7E5FF2870B5F900003D2100EE79
:10457000100A2046B8EEC00A84ED010AFFF7D8FF02
:1045800068703E212046FFF7D3FF2870B5F9000080
:104590003F2100EE100A2046B8EEC00A84ED020A60
:1045A000FFF7C6FF687040212046FFF7C1FF287063
:1045B000B5F90000D4ED010A00EE100A9FED131AC0
:1045C000B8EEC02A94ED040A70EEC00A00EE810A2B
:1045D00084ED010AD4ED021AD4ED050A71EEE01A59
:1045E00041EE810AC4ED020AD4ED061A32EE612AC8
:1045F00042EE011AC4ED031A84ED040AC4ED050A63
:10460000C4ED061A70BD000088000020D16B2B3E5F
:1046100070B504464321FFF78BFF3B4D4421687082
:104620002046FFF785FF2870B5F90000452100EE10
:10463000100A2046B8EEC00A84ED0A0AFFF778FF98
:10464000687046212046FFF773FF2870B5F9000017
:10465000472100EE100A2046B8EEC00A84ED0B0A8E
:10466000FFF766FF687048212046FFF761FF28705A
:10467000B5F9000094ED0D1A00EE100A2348F8EE8B
:10468000C00A94ED0A0A30EE410A84ED0A0A94ED5C
:104690000B1AD4ED0E1A31EE611A84ED0B1AD4ED1B
:1046A0000F1A70EEE10AF0EEC01A11EE901ADFED6B
:1046B000181AC4ED0C0A814201DCB0EE610AB0EEBA
:1046C000C12A12EE101A84ED0A0A814201DCB0EE12
:1046D000611AB0EEE02A12EE101A84ED0B1A814234
:1046E00001DCF0EE610ADFED0B1AC4ED0C0A20EEDE
:1046F000210A84ED070A21EE210A84ED080A20EE42
:10470000A10A84ED090A70BD880000200000F04174
:10471000000000000B808B3A17B583B00A460A24CC
:10472000012305A98DE81A0010F85C1BFEF760F85C
:1047300006B010BD10B50446FFF70AFF2046FFF78C
:1047400067FF2046BDE8104001F0A8BA0907090E2E
:10475000002806DA00F00F0000F1E02080F8141DB8
:10476000704700F1E02080F80014704710B5034650
:104770000220FCF787FB0748406DB0F17E5F04D054
:104780009FED050A83ED1F0A10BDBDE810401846D5
:10479000FCF77ABA5C15002000000000754810B5DF
:1047A0000368764C5B1C03607348D4ED0F0A744BAE
:1047B00090ED010A30EE600A82ED1F0AD3ED1F0A68
:1047C0009FED700AD0ED101A20EE801AC1EE210A7A
:1047D0009FED6D1A60EE811AC2ED1F1AD0ED020A2C
:1047E00094ED101A70EEC10AC2ED1E0AD3ED1E0A36
:1047F00090ED102A60EE800A80EE821ADFED630AE7
:1048000021EE202A82ED1E2A90ED031AD4ED112A02
:1048100031EE621A82ED201A93ED201AD0ED102AA3
:1048200021EE001A81EE220A20EE200A82ED200AF3
:10483000D2ED000A9FED561A42EE010AC2ED000ABF
:1048400092ED010A01EE810A82ED010AD2ED0A1A07
:1048500092ED042A70EEE11A31EE822ADFED4D1A54
:1048600062EE212AC2ED022A92ED0B2A92ED053A60
:1048700030EE422A32EE032A22EE212A82ED032A6A
:1048800092ED063A02EE813A82ED063AD2ED073A0F
:1048900042EE013AC2ED073A92ED0C1A92ED0E4A41
:1048A00033EE411A31EE041A21EE214A82ED084A14
:1048B00092ED0D1A33EEC11AD2ED0F4A364831EEA1
:1048C000241A21EE211AF0EEC41A11EE904A82ED5C
:1048D000091AF0EE081A844203DA83EE214A82EDC7
:1048E000064AB0EEC11A11EE104A844203DA83EE92
:1048F000A11A82ED071A92ED061A002482ED0C1A15
:1049000092ED071A82ED0D1AC2ED0A0A82ED0B0A2A
:10491000C2ED042A82ED052A52F8A40F9FED1F0A6A
:10492000401C42F87C0943F8A84F02ED090A012017
:1049300018601B48D467D0ED000AB8EEE01AF8EE14
:10494000E00A03ED181A90ED011A1648F8EEC11AA4
:1049500043ED171AC0ED050AF8EEC10AC0ED290AA9
:1049600080ED030A80ED270A80ED4B0A81F8834031
:1049700010BD00009C000020C41400206412002020
:10498000C8170020C3F51C410000C8C20000C8427F
:104990006F12833B250D6E3F6F12833B00000000BA
:1049A000F0130020B41000200FB41C489FED1D1A16
:1049B000A0F5907190ED050AA0F1900280ED060A35
:1049C0009DED060AB1EE400A80ED050A91ED050A5B
:1049D00081ED060A9DED050AB1EE400A81ED050A5A
:1049E00092ED050A82ED060A9DED040A82ED050AA4
:1049F000DDED1F0A9FED0A0A60EE800AC1ED000A94
:104A0000DDED200A60EE810AC2ED000ADDED210A2B
:104A100020EE800A80ED000A04B07047C40C00202C
:104A2000E12E65C2E12E65420648074A016B9142BC
:104A300005DAC06C0549884201D901207047002081
:104A4000704700005C150020010070420000E0C0CB
:104A50000648074A016B914205DAC06C0549884255
:104A600001DD012070470020704700005C15002028
:104A70000000A0420000E04030B5828B8389002115
:104A8000A2F5FA64A34217DD848D151905F5FA65C0
:104A90009D4211D99A1A00EE102AF8EEC00A00EED3
:104AA000104AB8EE401A80EE810ADFEDC60A20EE09
:104AB000200A80ED0C0A00E00121428B4389A2F517
:104AC000FA64B6EE000ADFEDC00AA34217DD448D9A
:104AD000151905F5FA659D4211D99A1A01EE102AA9
:104AE000F8EEC11A01EE104AB8EE412A81EE821AA0
:104AF00031EE401A21EE201A80ED0F1A00E0491C19
:104B0000C28BC389A2F5FA64A34219DDC48D1519BD
:104B100005F5FA659D4213D99A1A01EE102AF8EEAE
:104B2000C11A01EE104AB8EE412A81EE821A31EE26
:104B3000401ADFEDA61A21EE211A80ED111A00E0CD
:104B4000491C028B0389A2F5FA64A34219DD048D86
:104B5000151905F5FA659D4213D99A1A01EE102A26
:104B6000F8EEC11A01EE104AB8EE412A81EE821A1F
:104B700031EE400AB3EE041A20EE010A80ED130A6A
:104B800000E0491C828A8388A2F5FA64A34213DDFF
:104B9000848C151905F5FA659D420DD99A1A00EE17
:104BA000102AB8EEC01A00EE104AB8EE400AC1EE64
:104BB000001AC0ED151A00E0491C028A0388A2F50C
:104BC000FA64A34213DD048C151905F5FA659D42BC
:104BD0000DD99A1A00EE102AB8EEC01A00EE104A4B
:104BE000B8EE400AC1EE001AC0ED171A00E0491CE9
:104BF000428A4388A2F5FA64A34213DD448C151956
:104C000005F5FA659D420DD99A1A00EE102AB8EE04
:104C1000C01A00EE104AB8EE400AC1EE001AC0ED0C
:104C2000181A00E0491CC28AC388A2F5FA64A3429C
:104C300013DDC48C151905F5FA659D420DD99A1A34
:104C400000EE102AB8EEC01A00EE104AB8EE400A84
:104C5000C1EE001AC0ED191A00E0491C0022042917
:104C60000ED990F86C10491CC9B280F86C10042958
:104C700008D9022180F86B10052180F86C1003E040
:104C800080F86C2080F86B20416D4FF07C5291428F
:104C900001DD012100E0002100EE101AB8EE400A0B
:104CA00080ED150A016E914201DD012100E0002135
:104CB00000EE101AB8EE400A80ED160A90ED130AC5
:104CC000B0EEC01A11EE101A9FED411AB1F1804FEB
:104CD00001DCB0EE410A80ED130AB0EEC00A10EE1E
:104CE000101A3C4A914209DDB2EE040A03F09EFD1F
:104CF000D0ED131A20EE210A80ED130A90ED0C0A74
:104D0000354A10EE101A914204DD90ED0D0A80ED47
:104D10000C0A06E0B5EEC00AF1EE10FA01D880EDFB
:104D20000C1A90ED0F0A2D49B0EEC01A11EE102AA0
:104D30008A4205DD03F07AFD20EE200A80ED0F0A9D
:104D400090ED110AB0EEC01A11EE102A8A4205DD6C
:104D500003F06CFD20EE200A80ED110AD0ED0C0A64
:104D600090ED0D0ADFED1E1A70EEC00A00EEA10AEA
:104D700080ED0C0A90ED0F1AD0ED100A31EE601A9A
:104D800041EE210AC0ED0F0A90ED112A90ED121AA2
:104D900032EE412A02EE211A80ED111AD0ED132ACB
:104DA00090ED142A72EEC22A02EEA12A80ED132A97
:104DB00080ED0D0AC0ED100A80ED121A80ED142A64
:104DC00030BD00000000C84300002042000020C2A7
:104DD00000000000000020410000C8430000204205
:104DE000B290C53E70B596B0044601297ED1002030
:104DF0005D4A014606AD0EAE45F8202046F820106B
:104E0000401C0828F8DB012084F86A0057A160489C
:104E100001F016F900F0C5FD40F2DC50FDF714FA80
:104E200017E05C4901F1AC0004F048F95FF00000C4
:104E300056F8202034F810108A4201DA46F8201083
:104E400055F820208A4201DD45F82010401C082832
:104E5000EEDB94F86A000128E3D0002004EB400266
:104E600035F82010118236F82030401C591A118470
:104E70000828F3DB208B02ADE38BA28B618B85E8E6
:104E80000F00E18AA08ACDE90001638A228A42A14B
:104E90003F4801F0D5F800F084FD208DE38DA28D10
:104EA000618D85E80F00E18CA08CCDE90001638C59
:104EB000228C43A1364801F0C3F800F072FDB4F92A
:104EC00010100E20FBF7C4FFB4F912101020FBF7EE
:104ED000BFFFB4F914101220FBF7BAFFB4F9161093
:104EE0001420FBF7B5FFB4F9181000E039E01620E4
:104EF000FBF7AEFFB4F91A101820FBF7A9FFB4F9BD
:104F00001C101A20FBF7A4FFB4F91E101C20FBF79D
:104F10009FFFB4F920101E20FBF79AFFB4F922106E
:104F20002020FBF795FFB4F924102220FBF790FF17
:104F3000B4F926102420FBF78BFFB4F928102620A3
:104F4000FBF786FFB4F92A102820FBF781FFB4F99C
:104F50002C102A20FBF77CFFB4F92E102C20FBF735
:104F600077FF16B070BD000020A1070052432063F8
:104F7000616C69623A28666F7220456E6420706CBD
:104F8000656173652073656E6420277327290000AF
:104F9000741600205C1500206368616E6E656C20DD
:104FA0006F66667365743A25642C25642C25642C21
:104FB00025642C25642C25642C25642C25640D0087
:104FC0006368616E6E656C207363616C65203A2561
:104FD000642C25642C25642C25642C25642C2564E4
:104FE0002C25642C25640D0010B50446FFF7FAFE4D
:104FF0002046BDE8104000F001B8000010B504469E
:1050000086B00E20FBF710FF20821020FBF70CFF6C
:1050100060821220FBF708FFA0821420FBF704FF38
:10502000E0821620FBF700FF20831820FBF7FCFE30
:1050300060831A20FBF7F8FEA0831C20FBF7F4FE28
:10504000E0831E20FBF7F0FE20842020FBF7ECFE1F
:1050500060842220FBF7E8FEA0842420FBF7E4FE16
:10506000E0842620FBF7E0FE20852820FBF7DCFE0D
:1050700060852A20FBF7D8FEA0852C20FBF7D4FE04
:10508000E085208B0DF1080CE38BA28B618B8CE803
:105090000F00E18AA08ACDE90001638A228A0EA16D
:1050A000184800F0CDFF00F07CFC208D0DF1080CBD
:1050B000E38DA28D618D8CE80F00E18CA08CCDE991
:1050C0000001638C228C10A10E4800F0B9FF06B0DD
:1050D000BDE8104000F065BC52433A0D6368616E54
:1050E0006E656C206F66667365743A25642C256462
:1050F0002C25642C25642C25642C25642C25642CFB
:1051000025640D00741600206368616E6E656C2066
:105110007363616C65203A25642C25642C25642C0E
:1051200025642C25642C25642C25642C25640D0015
:105130000FB4B2EE0E1ADDED130A1848DFED181A9F
:1051400080EE810AD0ED030A164A30EE200A80ED87
:10515000030AD0ED0C0A30EE601AC1EE210AC0ED50
:10516000010A80ED0C0AB0EEE00A10EE101A91422E
:1051700001DD0121816010EE101A914201DC002155
:10518000816009489DED0F0A80ED030A9DED110A2B
:10519000903080ED030A04B070470000C40C00207A
:1051A0006F12833B00002042A40B00202DE9F00F7A
:1051B0004D484F4A4FF000084189C24600EE101A90
:1051C0004A49B8EE400AD1ED430A30EE600ABCEE1F
:1051D000C00A82ED000AC389D1ED1F0A00EE103A21
:1051E000B8EE400A30EE200ABCEEC00A82ED010A99
:1051F0008189093991600189D16041881161818873
:105200005161C18891610088D0613A4801239B4671
:1052100080F80280C37080F8078002F14801C479E9
:1052200001F80480641CE4B2C471192CF7D380F82F
:1052300006800F240C70C37180F804804FEA0209C5
:1052400080F8058090F804C059F82C408279072A2C
:1052500004D980F80680C279521CC2714379C5799D
:1052600024FA03F202F0010782794E5D97403E4333
:105270004E55521C82715B1CDAB242710B2AE5D387
:105280000CF1010C0CF0FF020271102AD8D3D9F8EE
:1052900040304FF48062934203D3CB7D43F001034F
:1052A000CB75D9F84400904203D3C87D40F002008A
:1052B000C875BBF1000F03D0C87D40F00400C8756D
:1052C000BAF1000F03D0C87D40F00800C87581F81E
:1052D0001880BDE8F00F0649012319224831A1F5D5
:1052E0008470FEF7D5BA00005C150020040F002082
:1052F000A80700200800002010B52B489FED290AC0
:105300002A4B80ED100A80ED110A03F1900483ED21
:105310000F0A03F5907284ED0F0A02F57C7082ED9E
:105320000F0A80ED0F0A80ED330A83ED0A0A84ED3F
:105330000A0A82ED0A0A80ED0A0A80ED2E0A80ED43
:105340001B0A80ED3F0A0021416780ED1F0AC0F86B
:10535000041180ED430AA0F53470416780ED1F0A07
:105360008167134841608160C160D2ED050AC2EDDA
:10537000030AC2ED0C0AC2ED210AD3ED050AC3ED02
:10538000210AD4ED050AC4ED210A41610949D1ED94
:10539000050AC0ED040A02F5107080ED1F0A80EDC9
:1053A000430A10BD00000000A41D0020A40B002033
:1053B00050000020340B002010B5FDF785FABDE841
:1053C0001040FDF712BE000030B5164891B00168DC
:1053D00041F0805101601448016841F4404101608E
:1053E00001200390022406200490009400250694D6
:1053F0001020CDE907504FF4A870CDE9090404202E
:105400000B906846FDF742FC0CA90D2081E83100A5
:105410004FF4A0500F90109005210CA8FDF7DAFA78
:1054200011B030BD403802400070004010480168A3
:1054300041F4700101600F48016841F00101016011
:105440000C4A00210832116002680B4B1A400260BE
:10545000031D0A4A1A60026822F48022026005488D
:105460000C3001600249580680390860704700001E
:1054700088ED00E000380240FFFFF6FE1030002407
:105480000148FDF7CABE0000F4050020F0B502682F
:10549000234B244D244E254F254C4FF0804C9842F1
:1054A00009D0604507D0A84205D0B04203D0B84229
:1054B00001D0A04204D122F0700E4A6842EA0E02E6
:1054C00098421BD0604519D0A84217D0B04215D0E1
:1054D000B84213D0A04211D0164DA8420ED0164D9E
:1054E000A8420BD0154DA84208D0154DA84205D0B2
:1054F000144DA84202D0144DA84203D122F44075A5
:10550000CA682A4302608A68C2620A688262984254
:1055100001D0A04201D10969016301214161F0BDBF
:10552000000001400004004000080040000C004062
:105530000004014000400140004401400048014097
:1055400000180040001C00400020004010B501235E
:10555000046A8B409C430462036A8A4013430362DB
:1055600010BD10B5846842EA032224F47F440A4344
:105570002243826010BD826822F070020A4342F02A
:10558000070181607047000030B5026A22F0010215
:105590000262026A436884690D6824F0730425433B
:1055A00022F002048A6822430B4CA04202D00B4C2A
:1055B000A0420BD122F00804CA6823F440732243AE
:1055C0004C6922F004021C438B69234343608561CC
:1055D00049684163026230BD00000140000401409F
:1055E00030B5026A22F010020262026A43688469DE
:1055F0000D6824F4E64444EA05248D6822F0200274
:1056000042EA05120D4DA84202D00D4DA8420ED11E
:10561000CD6822F0800242EA05124D6923F440630E
:1056200043EA85038D6922F0400243EA8503436023
:10563000846149688163026230BD0000000001405E
:105640000004014030B5026A22F480720262036AEB
:105650004268C46923F4007324F073050C682C437A
:105660008D6843EA05230D4DA84202D00C4DA84297
:105670000ED1CD6823F4006343EA05234D6922F47B
:10568000405242EA05128D6923F4806342EA051212
:105690004260C4614968C163036230BD00000140DB
:1056A0000004014030B5026A22F480520262046AAA
:1056B0004268C3690D6823F4E64343EA05238D6815
:1056C00024F4005444EA0534084DA84202D0084DA1
:1056D000A84204D14D6922F4804242EA8512426018
:1056E000C36149680164046230BD000000000140EC
:1056F0000004014010B5036A046A24F00104046246
:10570000846924F0F00444EA021423F00A020A43F4
:105710008461026210BD10B5036A23F010030362B6
:105720008369046A23F4704343EA023224F0A0033D
:1057300043EA01118261016210BD10B5806B002146
:10574000C185C184012180F83910C16B41F010017D
:10575000C163FDF745FF10BD10B50146806B0968B8
:105760000968C9050ED40021C18501684A6922F083
:1057700040024A6190F83910322906D05FF00101E9
:1057800080F83910FEF75CF810BD1221F8E710B56B
:10579000806BFEF77BF810BD2DE9F04101680446EF
:1057A000086920F44052E068104308612268D0681C
:1057B00049F20C6188432369A168E569194363696B
:1057C0002B4319430143D1602168486920F440729A
:1057D000A06910434861E26964263225B2F5004FA2
:1057E00049494A4822681DD0824201D08A426AD182
:1057F000FDF7FCF900EBC00101EB00106168B04659
:105800008900B0FBF1F1B1FBF8F6FDF7EFF900EB21
:10581000C00101EB001061688900B0FBF1F7FDF7F2
:10582000E5F969E0824201D08A4219D1FDF7DEF93B
:1058300000EBC00101EB00106168B0464900B0FB0D
:10584000F1F1B1FBF8F6FDF7D1F900EBC00101EB86
:10585000001061684900B0FBF1F7FDF7C7F918E0E7
:10586000FDF7AEF900EBC00101EB00106168B04636
:105870004900B0FBF1F1B1FBF8F6FDF7A1F900EB3F
:10588000C00101EB001061684900B0FBF1F7FDF7C2
:1058900097F900EBC00101EB001061685FEA41017C
:1058A000B0FBF1F1B1FBF8F06FF01801484307EBE2
:1058B000800005EB0011B1FBF8F0216866F31F10C2
:1058C0008860BDE8F081FDF77BF900EBC00101EBDA
:1058D00000106168B0468900B0FBF1F1B1FBF8F649
:1058E000FDF76EF900EBC00101EB00106168890063
:1058F000B0FBF1F7FDF764F900EBC00101EB00101C
:1059000061688900CCE700000014014000100140EC
:105910002DE9F0471D4690460E460446FCF7C2FDB1
:1059200007465FEA08004FF000094FF0010808D071
:1059300030E0681C05D095B1FCF7B4FDC01BA8424F
:105940000DD82068006836EA0000F2D127E0681C14
:1059500020D025B1FCF7A6FDC01BA8421AD92068AB
:10596000C16821F08001C1602068C16821F0200178
:10597000C1602068C16821F48071C16020684169FC
:1059800021F00101416184F8398084F838900320C6
:10599000BDE8F0872068006836EA0000D7D0002014
:1059A000F6E7704770B504462DED0C8BB7EE009A04
:1059B000B0EE008AF0EE498A0D46B0EE680A90ED2E
:1059C00001BAD0ED029A6BEE0B0A49EEA90A00EE7D
:1059D000C80A10EE100AFAF7EEFD94ED000AD4EDB5
:1059E000030A41EC1A0B20EE0B0A09EEA00A20EE86
:1059F000080A10EE100AFAF7DEFD41EC100BB0EECB
:105A00004A1AF0EE6A1A00F063FE9FED99AB51EC72
:105A1000100B53EC1A2BFAF7BDFC9FED97BB53EC20
:105A20001B2BFAF729FDFAF7D9FD606194ED000A06
:105A3000D4ED020A94ED011A20EE200AD4ED030AF7
:105A400000EEC10A20EE080A10EE100AFAF7B3FDC4
:105A500041EC100B00F020FB53EC1A2B51EC100B17
:105A6000FAF798FC53EC1B2BFAF706FDFAF7B6FD94
:105A7000206194ED02DAD4ED039A2DEE0D0A09EEC1
:105A8000A90A40EE488A18EE900AFAF794FD94EDC0
:105A9000000AD4ED010A41EC1C0B20EE290A00EEAD
:105AA0008D0A20EE080A10EE100AFAF784FD41EC88
:105AB000100BB0EE4C1AF0EE6C1A00F009FE53EC2D
:105AC0001A2B51EC100BFAF765FC53EC1B2BFAF771
:105AD000D3FCFAF783FD00EE100A694984ED060A4B
