:020000040800F2
:10000000D81700209D010008A5010008A7010008DD
:10001000A9010008AB010008AD01000800000000C4
:10002000000000000000000000000000AF01000818
:10003000B101000800000000B3010008D5760008F7
:10004000B7010008B7010008B7010008B7010008B0
:10005000B7010008B7010008B701000875110008D2
:10006000B7010008B7010008B7010008B701000890
:10007000B7010008E1100008B7010008B701000847
:10008000B7010008B7010008B7010008B701000870
:10009000B7010008B7010008B7010008B701000860
:1000A000B7010008B7010008B7010008B701000850
:1000B0009D770008A9770008B70100088D40000867
:1000C000B7010008B7010008B7010008B701000830
:1000D000B7010008B7010008B7010008B701000820
:1000E000B7010008B7010008B7010008B701000810
:1000F000B7010008B7010008B7010008B701000800
:10010000B7010008B7010008B7010008B7010008EF
:10011000B7010008B7010008B7010008B7010008DF
:10012000B7010008B7010008ED100008B70100088A
:10013000B7010008B7010008B7010008B7010008BF
:10014000B7010008B7010008B7010008B7010008AF
:10015000B7010008B7010008B7010008B70100089F
:10016000B7010008B7010008B7010008B70100088F
:10017000B7010008B7010008B7010008000000003F
:10018000B7010008B7010008DFF80CD000F0EAFB67
:100190000048004745B70008D817002006488047A8
:1001A00006480047FEE7FEE7FEE7FEE7FEE7FEE75C
:1001B000FEE7FEE7FEE7FEE7497700088901000851
:1001C0002DE9F05F0546002092469B46884606468C
:1001D000814640241BE0284641464746224600F01F
:1001E00072FA53465A46C01A914110D31146184626
:1001F000224600F059FA2D1A67EB01084F462246B5
:100200000120002100F050FA17EB00094E41201E9A
:10021000A4F10104DFDC484631462A464346BDE8E6
:10022000F09F40EA01039B0703D009E008C9121FB1
:1002300008C0042AFAD203E011F8013B00F8013BA0
:10024000521EF9D270472DE9FE4F804681EA030025
:10025000C00F0C46009021F0004123F00045B8EBA0
:100260000200A94105D24046214690461C460B4655
:10027000024623F00040104347D0270DC7F30A0081
:10028000C3F30A510290401A019040286BDAC3F37D
:10029000130040F4801B0098924620B10023D2EB5B
:1002A000030A63EB0B0B01985946C0F1400250461C
:1002B00000F0FAF906460D4650465946019A00F0FC
:1002C00012FA10EB08006141002487EA115284EA17
:1002D000E7731A4340D0009A62B3019A012A4FEAA9
:1002E000075215DC001B61EB02014FF0004202EAED
:1002F0000752CDE90042001C41F5801132462B46E1
:1003000000F049FA03B0BDE8F08F40462146F9E716
:10031000001B61EB0201001C41F5801300185B41DA
:100320002018A2F5001747EB030140EAD570B61973
:100330006D4111E06D084FEA360645EAC0754FEA97
:100340000752001B61EB0201001C41F580114908B6
:100350004FEA30000019514132462B4603B0BDE848
:10036000F04F00F009BA0098012240000023D0EBC2
:10037000020263EBE073009821464FEAE074B8EBA9
:10038000000061EB0401E9E783F000435BE781F0E3
:10039000004158E72DE9FE4F81EA030404F00044D0
:1003A00021F0004100944FF0000B23F0004350EA8D
:1003B00001045ED052EA03045BD0C3F30A54C1F3D4
:1003C0000A552C44A4F2F3340194A0FB0254C1F367
:1003D000130141F48011C3F3130343F4801301FBB1
:1003E000024400FB034E840A970A44EA815447EA18
:1003F0008357A4FB076802958D0A05FB07854FEA22
:10040000932C04FB0C542705029D4FEA065847EA3B
:100410001637B5EB08056EEB070C870E920E47EA10
:10042000811742EA8312A7FB0201B6EB0B0164EBD2
:1004300000042B0D43EA0C335E1844EB1C50DA46E3
:100440005146E7FB0201C5F313044FEA0B3343EABD
:1004500014534FEA0432019C43EA0603A4F10C044E
:100460000294009CCDE900B400F095F903B0BDE81A
:10047000F08F00200146F9E72DE9F04D81EA0304F1
:1004800004F0004B21F0004514464FF0000A23F021
:10049000004150EA050220D054EA01021DD0C5F304
:1004A0000A570246C5F31303C1F31300C1F30A56FA
:1004B00040F4801543F48013A7EB0608101BD646C2
:1004C00008F2FD3873EB050002D308F1010801E0E2
:1004D00092185B41B8F1000F03DA00200146BDE835
:1004E000F08D00204FF48011064684460EE0171B65
:1004F00073EB050705D3121B63EB050306434CEAB8
:10050000010C49084FEA300092185B4150EA01079C
:10051000EDD152EA030012D082EA040083EA050119
:10052000084305D0101BAB4106D20122002306E090
:1005300000224FF0004302E06FF0010253101AEB6B
:1005400006004CEB085110EB0A0041EB0B01BDE833
:10055000F04D00F011B930B404469623080021464E
:1005600004D0B62330BC002200F0D8B820460021C9
:10057000F8E70EB5C10F80EAE0700844CA07002111
:1005800040F233438DE80E000A460B4600F003F9B3
:1005900003B000BD0EB540F2334102910021CDE918
:1005A00000110A460B4600F0F6F803B000BD70B526
:1005B000C1F30A5201F000450024C1F3130140F2D7
:1005C000FF3341F480119A4201DA002070BD40F2FD
:1005D00033439A42A2F2334203DC524200F073F8F2
:1005E00000E090402C43F1D0404270BD00F000424A
:1005F00030F000400AD0C10D01F56071C0F3160063
:1006000042EA0151C20840071143704700200146E9
:100610007047000030B5041E71F1000404DB4FF098
:100620000044404264EB0101141E73F1000405DB39
:100630001C464FF00043524263EB04038B4208BF59
:10064000824230BD01F0004330B421F0004150EA55
:10065000010206D00A0DA2F56072C1F31301002A4F
:1006600002DC30BC00207047440F44EAC104C100E2
:10067000E01830BC00EBC25000F047B830B50B4674
:10068000014600202022012409E021FA02F59D42C2
:1006900005D303FA02F5491B04FA02F52844151E96
:1006A000A2F10102F1DC30BD202A04DB203A00FA7D
:1006B00002F1002070479140C2F1200320FA03F3B9
:1006C000194390407047202A04DB203A21FA02F0B7
:1006D0000021704721FA02F3D040C2F1200291407C
:1006E000084319467047202A06DBCB17203A41FA07
:1006F00002F043EAE07306E041FA02F3D040C2F1AF
:10070000200291400843194670470029A8BF70474E
:10071000401C490008BF20F00100704710B4B0FA37
:1007200080FC00FA0CF050EA010404BF10BC7047D2
:1007300049B1CCF1200421FA04F411FA0CF118BFEC
:10074000012121430843A3EB0C01CB1D4FEA0061BB
:100750004FEA102042BF002010BC704700EBC3508E
:1007600010440029A4BF10BC7047401C490008BFBA
:1007700020F0010010BC704710B5141E73F1000486
:1007800008DA401C41F1000192185B411A4301D183
:1007900020F0010010BD2DE9F04D92469B4611B1AD
:1007A000B1FA81F202E0B0FA80F220329046FFF70F
:1007B0007BFF04460F4640EA0A0041EA0B0153461C
:1007C0005A46084313D0114653EA010019D0C8F124
:1007D00040025046FFF777FF05460E465046594601
:1007E0004246FFF761FF084305D0012004E02046A0
:1007F0003946BDE8F08D0020054346EAE0762C43FB
:1008000037430A986305E40AA0EB08000022FD0ABA
:1008100044EA47540A3002D500200146E9E70105C1
:1008200010196941DDE9084500196941BDE8F04D3D
:10083000A2E770B521F0004303430CD0C1F30A5581
:100840000024D5EB040564EB0403D617AD1AB341BD
:1008500002DB0020014670BD201841EB025170BD43
:100860002DE9F04D00231A461B1A8A4103DB0020B4
:100870000146BDE8F08DC1F30A52C1F3130141F402
:1008800080154FF0000BD10702D100186D41521EA8
:100890000027044640F2FF11384601EB620A3E464B
:1008A0008046024600204FF48011FFF70CFFC2196A
:1008B0007141BB1846EB0100B4EB030C75EB000C67
:1008C00004D3E41A65EB000517460E46241908F117
:1008D00001006D4180463428E3DDF91946EB06003E
:1008E000091BA84103D24FF0FF32134601E000225A
:1008F00013461BEB070046EB0A51BDE8F04DFFF72E
:100900003BBFC1F30A52C1F3130140F2FF3341F47C
:1009100080119A4202DA00200146704740F23343C8
:100920009A42A2F2334202DC5242FFF7CCBEFFF7FA
:10093000BBBE000030B5041E71F1000404DB4FF0B3
:100940000044404264EB0101141E73F1000405DB16
:100950001C464FF00043524263EB0403994208BF28
:10096000904230BD064C074D06E0E06840F00103C0
:1009700094E8070098471034AC42F6D3FFF708FC20
:1009800000C8000820C8000810B5806B90F83D1022
:10099000252906D05FF0150180F83D1000F060FDBC
:1009A00010BD3521F8E710B5806B042180F83D10AB
:1009B000016C41F00201016400F054FD10BD10B55E
:1009C000806B00F04EFD10BD434910B5D1F80423F3
:1009D00022F44032C1F80423D1F8042343681A43B7
:1009E000C1F8042301684A6822F480724A600168F1
:1009F0004A68036942EA03224A6001684A6822F0B1
:100A000040724A6001684A6883681A434A60016814
:100A10008A6822F400628A6001688A68C3681A439F
:100A20008A6001688A6822F070628A6001688A6858
:100A3000036B1A438A6001688A6822F040528A6018
:100A400001688A68C36A1A438A6001688A6822F06A
:100A500002028A6001688A68836942EA43028A6006
:100A6000416A002901684A680FD042F400624A6076
:100A700001684A6822F460424A6001684A68174C7B
:100A8000836A04EB43331A4301E022F400624A60B4
:100A90000168CA6A22F47002CA620168CA6A038CD9
:100AA0000F4C04EB03531A43CA6201688A6822F4AC
:100AB00000728A6001688A68C36942EA43228A60D8
:100AC00001688A6822F480628A6001688A684069E5
:100AD00042EA8020886010BD0020014000E0FFFF56
:100AE0000000F0FF70B504462DED048B0D46D0EDEF
:100AF000058ADFED3B9A90ED049A28EEA90A10EEE4
:100B0000100AFFF773FD41EC100B08F01DFF51ECCC
:100B1000100BFFF797FD29EE290A08EE100A10EED8
:100B2000100AFFF763FD41EC100B08F069FEB0EE10
:100B3000409A95ED100AF0EE609AB1EE400A10EE80
:100B4000100AFFF753FD53EC192BFFF723FCFFF7B7
:100B500079FD00EE100AB7EE001A84ED0F0AD5ED0C
:100B6000100A08EE081A60EEA00A40EE400A80EE75
:100B7000810A10EE100AFFF739FD41EC100B08F066
:100B8000A3FE51EC100BFFF75DFD00EE900AC4EDE3
:100B9000110A95ED100A94ED0F1A20EE000A01EEED
:100BA000410A00EEE00A10EE100AFFF71FFD41ECCB
:100BB000100B08F089FE51EC100BFFF743FD00EE1F
:100BC000100AF5EEC08A84ED100AF1EE10FA03D295
:100BD000B1EE400A84ED100ABDEC048B70BD00003C
:100BE00035FA8E3C2D489FED2C0A9FED2D1A80ED95
:100BF0000E0A80ED0F0A80ED170A80ED180A80EDCD
:100C0000190A80ED1A0A80ED020AF7EE000AC0EC1C
:100C1000020ADFED241AC0ED030AC0ED081A80EDC8
:100C2000091AC0ED0A0A80ED0B0AC43080ED0E0AE5
:100C300080ED0F0A80ED170A80ED180A80ED190A81
:100C400080ED1A0A80ED020AC0EC020AC0ED030A28
:100C5000C0ED081A80ED091AC0ED0A0A80ED0B0AF2
:100C6000C43080ED0E0A80ED0F0A80ED170A80ED8A
:100C7000180A80ED190A80ED1A0A80ED020AC0EC0C
:100C8000020AC0ED030AC0ED081A80ED091AC0ED92
:100C90000A0A80ED0B0A704700000000880F002050
:100CA0006F12833BBE37063730B50546D0F8B40027
:100CB00000280FD095F8830048B90024281990F82F
:100CC000B810284604F0DEFA641C0B2CF6DB00207A
:100CD000C5F8B40030BD000030B4224DDFED220A6B
:100CE000002295ED010A1E4B4FF40064B8EE401A45
:100CF0000229C1EE201A1BD0B2EE071A71EE611A5A
:100D0000F5EEC01AF1EE10FA0EDDB8EE400AC0EEB4
:100D1000201ADFED160A31EE610A00BF20EE200A2C
:100D2000BCEEC00A10EE102A904213D2012212E04B
:100D3000B2EE081A71EE611AF5EEC01AF1EE10FA71
:100D4000F2DDB8EE400AC0EE201ADFED090A31EEFE
:100D5000610AE3E70022214630BC184601F075BD68
:100D600000000240040000200000584300004843F7
:100D70000000C84210B504462DED048BA4B0014616
:100D80008C226846FFF74DFA9DED030ADDED050A5A
:100D900070EE608ACDED088A9DED0F0A68EE800A3C
:100DA0009DED0A0A9FED471A00EE810A8DED0A0AB1
:100DB000DDED179AF0EEC00AF4EEE90AF1EE10FA52
:100DC00005DD0AF035FBDDED170A20EE200A8DED7A
:100DD0000A0ADDED0E0AB0EE408A9DED100A20EE03
:100DE000A89ADDED000A60EE608ADDED190AB0EE2A
:100DF000C90AB4EEE00AF1EE10FA07DDB0EE490AD6
:100E00000AF016FBDDED190A20EE209AB0EEC80AB2
:100E1000B4EEE90AF1EE10FA07DDB0EE480A0AF086
:100E200007FBDDED170A20EE208ADDED180AB0EE93
:100E3000E80AB4EEE00AF1EE10FA07DDB0EE680A57
:100E40000AF0F6FADDED180A60EE208A39EE080A9B
:100E50008DED1A9A8DED1B8ACDED1C8A30EE280A95
:100E6000DDED150AB4EEE00AF1EE10FA0DD29DEDBB
:100E7000161AB4EEC10AF1EE10FA06DDFDEEC00A54
:100E8000CDED1D0A8DED1F0A11E0B4EEE00AF1EE82
:100E900010FA06DADDED160AB4EEE00AF1EE10FA09
:100EA00005D8BDEEE00A8DED1D0ACDED1F0A8C229E
:100EB00069462046FFF7B5F91D9824B0BDEC048BB8
:100EC00010BD00006F12833B2DE9F041704D714F52
:100ED000002650B101282ED100F0C4F90121DFED28
:100EE0006E0A6E4C286850B32EE06A49286891ED6E
:100EF0000C0A012802D0D5ED020A0BE02E606E60CC
:100F0000D5ED030AF8EEE00A70EEC00AFDEEE00A45
:100F1000C5ED020AB8EEE01A30EE011AB5EEC01ABD
:100F2000F1EE10FA09DBF8EEE00A30EE200ABDEE31
:100F3000C00A85ED030ABDE8F081EE60FBE7296099
:100F4000E868A067C4ED030A5448D7F858C0544A6B
:100F5000544B8C38B3EE092AFBEE092ABCF17E5FB4
:100F60002BD0C4ED030A00BF97ED0C0ADFF838E17F
:100F700010EE10CA9FED4D3A4D4FF44518DAD0ED02
:100F8000051A95ED041A31EE611A11EE10CA84EDBE
:100F9000031A944501DB84ED032AE2689A4201D3E7
:100FA000C4ED032A11EE902ABA4201DB84ED033A24
:100FB0006A68BAB1012A1DD052E090ED050A9FED92
:100FC0003D1A31EE400A10EE10CA84ED030A944532
:100FD00001DB84ED032AD4F80CC09C45C4D3C4EDD6
:100FE000032AC1E710EE102A334B1A44334B9A42BE
:100FF00036D2696010EE101A2F4A9FED311AD24393
:10100000914204DA30EE410A9FED2E1A07E010EE0D
:10101000101AB94208DD30EE410AB6EE001A20EE91
:10102000010A84ED030A01E0C4ED030A264AE168DF
:10103000914204DB9FED250A84ED030A04E0244A73
:10104000914201D384ED033A90ED050A10EE100AA7
:10105000B84205DB9FED1F1A31EE400A84ED030A0A
:101060001D481E49C06B884208DD94ED030AB5EEA9
:10107000C00AF1EE10FA01DBC4ED030A0748FFF7DE
:1010800079FED4E91D0140183FF557AFE86052E7FB
:1010900024000020D40D00200000000038060020AD
:1010A0000000C8410000C8C100002042000048C242
:1010B00000007A430000C842FFFFE9BCFFFF630065
:1010C000000048439A99193F0000484200004842F6
:1010D000000048C200007A43A003002000009643AD
:1010E000014800F05DBA000000030020014800F054
:1010F00057BA00005003002030B50468256825F475
:1011000080252560046863608368402B036803D0F2
:1011100099600068C26030BD9A600068C16030BDEF
:101120003EB5074C012102220094CDE9012182B293
:101130000223AF21034801F02DFEB4F900003EBDAB
:1011400054000020C80000200EB5084A0223118078
:101150000121CDE90023029182B2AF21044801F0C0
:10116000F5FEBDE80E400A2001F03EBA5400002012
:10117000C8000020022001F077BA00002DE9F041FC
:10118000DFED370A05462DED068B20EE208A174647
:101190000C4618EE100AFFF729FA41EC100B08F084
:1011A0002FFBB0EE409AF0EE609AE068FFF71EFA6F
:1011B00053EC192BFFF7EEF841EC190B18EE100A5F
:1011C000FFF714FA41EC100B07F08EFCB0EE40AACA
:1011D000F0EE60AAE868FFF709FA53EC1A2BFFF764
:1011E000D9F853EC192BFFF72EF8FFF72BFA064628
:1011F00018EE100AFFF7FAF941EC100B08F000FBAB
:10120000B0EE409AF0EE609AE868FFF7EFF953EC21
:10121000192BFFF7BFF841EC190B18EE100AFFF776
:10122000E5F941EC100B07F05FFCB0EE408AF0EE00
:10123000608AE068FFF7DAF953EC182BFFF7AAF899
:1012400053EC192BFFF7A0F8FFF7FCF997ED030A11
:10125000EE60E06087ED030ABDEC068BBDE8F0812F
:1012600035FA8E3C2E4910B52E4B4A69F2EE0E0A25
:10127000E0B1012819D101F18C009A4290ED110AD8
:1012800080ED0E0A90ED120A80ED0F0A90ED131A10
:1012900080ED101A09DA244AC168914201D89942B6
:1012A00003DD20EE200A80ED0F0A10BD1C481F4C04
:1012B000D0ED110A90ED121A90ED130AA24209DA4C
:1012C000C1ED0E0ADFED1A1A61EE211AC1ED0F1AF7
:1012D00081ED100A1748824205DDC1ED0E0A81ED4D
:1012E0000F1A81ED100A0E48B2EE0E1A9A42D0ED96
:1012F000121A21EE811A05DAC1ED0E0A81ED0F1ADC
:1013000081ED100AC8689842CFDA0B488242CCDAE5
:10131000C1ED0E0A81ED0F1A81ED100A10BD00001B
:10132000AC0500200000A0400000A0C00000A041CB
:10133000CDCC4C3F0000C8410000704130B590F862
:101340003C20012A19D0012280F83C200A6807239A
:101350000468092A13D9E5680A3A02EB420293406D
:101360009D43E5600B788A680A3B03EB43039A4090
:101370000368DC682243DA6010E0022030BD256992
:1013800002EB420293409D4325610B788A6803EB90
:1013900043039A4003681C6922431A614A681F2369
:1013A000072A13D20468656B521E02EB8202934037
:1013B0009D4365630B790A885B1E92B203EB83033E
:1013C0009A4003685C6B22435A6327E004680D2A45
:1013D00012D2256BD21F02EB820293409D432563FC
:1013E0000B790A88DB1F92B203EB83039A400368F0
:1013F0001C6B22431A6311E0E56A0D3A02EB82028C
:1014000093409D43E5620B790A880D3B92B203EB52
:1014100083039A400368DC6A2243DA620F4A036856
:10142000934208D10B68122B05D1D2F8043343F450
:101430008003C2F80433036893420AD10968102973
:1014400001D0112905D1D2F8041341F40001C2F8EA
:101450000413002180F83C10084630BD00200140F4
:1014600070477047704710B5040003D094F83D00F2
:1014700010B104E0012010BD204600F00FF802205A
:1014800084F83D002046FFF79FFA002020640121E8
:1014900084F83D1084F83C0010BD000070B506468D
:1014A0000068144986B0884222D11348016841F48B
:1014B000807101600220009003200025CDE9010524
:1014C00069460E4801F0DCF80E4C0D48C4E90005F1
:1014D000A5608014E560C4E904508000A06180111B
:1014E000C4E907052046656201F010F8B463A663FD
:1014F00006B070BD002001404438024000040240A4
:1015000010640240B002002070B5044690F83C0020
:1015100000250E46012824D0012084F83C002068D4
:10152000416841F0806141602068816841F48071C8
:101530008160A16B17481346C863A16B16483246F9
:101540000864A16B154888642168A06B4C3101F0D8
:1015500015F8122084F83D0020688168C90702D080
:101560000CE0022070BD816841F0010181604FF400
:10157000077000BF6D1CADB28542FAD9E06A20B990
:101580002068816841F080418160002084F83C003F
:1015900070BD000089090008BF090008A7090008FC
:1015A0002DE9F05FFB490746FA4DFB4E00684A15EE
:1015B000DFF8E093DFF8E0A3DFF8D8B39302F64C4E
:1015C000483D60364FF0007C09F118090AF1180A0D
:1015D000ABF1300B88422BD9EE4954392EE0484507
:1015E0003BD100BF4FF008080AE0DFF8A88308F1FC
:1015F000300840453CD1904602E0984600E0E04685
:1016000011EA080F6FD0016849076CD5016821F015
:1016100004010160DF493868884265D9A04205D0DD
:10162000A84203D0B04201D048453AD1082257E041
:10163000D949A831884203D9D6495839096805E003
:10164000D54948318842D549F8D94968A042C9D01E
:10165000A842C7D0B042C5D0C1E75045CBD058450D
:10166000C9D0DFF8348308F178084045C3D0BCE71F
:10167000DFF8248308F130084045BED0DFF814833A
:10168000A8F118084045B8D0DFF80C8308F190089D
:101690004045B2D0DFF8FC8208F148084045AED1A1
:1016A000ABE750451CD058451AD0BB497831884229
:1016B00016D0B8493031884212D0B749303188420B
:1016C0000BD0B4491839884207D0B34990318842C9
:1016D00003D0B0494831884201D11A4600E0624641
:1016E000AC484C382FE099E0AB49A83188422CD95E
:1016F000A04205D0A84203D0B04201D0484501D154
:1017000008221EE050451CD058451AD0A249783115
:10171000884216D09F493031884212D09E493031DC
:1017200088420BD09B491839884207D09A4990319A
:10173000884203D097494831884201D11A4600E0D7
:1017400062469448503802605AE0934948318842D2
:101750002BD9A04205D0A84203D0B04201D04845C1
:1017600001D108221EE050451CD058451AD08A49A4
:101770007831884216D087493031884212D0864964
:10178000303188420BD083491839884207D08249CA
:101790009031884203D07F494831884201D11A46AE
:1017A00000E062467D48C2602AE0A04205D0A8421F
:1017B00003D0B04201D0484501D108221EE0504577
:1017C0001CD058451AD074497831884216D07149D6
:1017D0003031884212D07049303188420BD06D4987
:1017E0001839884207D06C499031884203D0694942
:1017F0004831884201D11A4600E06246674882605B
:10180000F86C40F00100F864042087F835000020EF
:1018100087F83400B96C09B138468847604A5D4999
:101820003868D3114FF4800C884237D9594954395C
:101830003AE0484547D190460CE0DFF8588108F17E
:10184000300840454AD100BF4FF0400802E09846BA
:1018500000E0E04611EA080F6FD0416909066CD537
:10186000416921F0800141614A493868884265D95F
:10187000A0425FD0A8425DD0B0425BD0484559D06D
:10188000504509D0584507D043497831884203D0A4
:101890004049303188423AD140224BE03E49A8319C
:1018A000884203D93B495839096805E03A4948312B
:1018B00088423A49F8D94968A042BCD0A842BAD077
:1018C000B042B8D0B5E75045BED05845BCD0DFF8DF
:1018D000C88008F178084045B6D0AEE7DFF8B88098
:1018E00008F130084045B2D0DFF8A880A8F1180808
:1018F0004045ACD0DFF8A08008F190084045A6D064
:10190000DFF8908008F148084045A2D19FE72249BE
:10191000303188420BD01F491839884207D01E4900
:101920009031884203D01B494831884201D11A4680
:1019300000E0624617484C3836E0A1E01649A8316D
:10194000884233D9A0422ED0A8422CD0B0422AD00F
:10195000484528D0504509D0584507D00E49783120
:10196000884203D00B493031884201D140221AE02D
:101970000949303188420BD006491839884207D0CE
:1019800005499031884203D002494831884209D143
:101990001A4608E0586402401060024000600240AD
:1019A000010080006246F94802605BE0F849884225
:1019B0002CD9A04226D0A84224D0B04222D04845FB
:1019C00020D0504509D0584507D0F14930318842E0
:1019D00003D0EE498031884201D1402212E0EC4927
:1019E000183988420BD0E9493831884207D0E84994
:1019F0004831884203D0E5499831884201D11A46DE
:101A000000E06246E2485838C2602BE0A04226D08F
:101A1000A84224D0B04222D0484520D0504509D019
:101A2000584507D0DA493031884203D0D749803150
:101A3000884201D1402212E0D549183988420BD0A2
:101A4000D2493831884207D0D1494831884203D041
:101A5000CE499831884201D11A4600E06246CC480E
:101A600058388260F86C40F00200F864042087F86F
:101A70003500002087F83400B96C09B13846884732
:101A8000C249C44A3868503153114FF4807C4FF03A
:101A9000807E884236D9BD49091F39E0484545D185
:101AA00090460AE0DFF8E48208F18008404548D11A
:101AB000E04602E0984600E0F04611EA080F6FD0D9
:101AC000016889076CD5016821F002010160AF4906
:101AD00038685031884264D9A0425ED0A8425CD0B8
:101AE000B0425AD0484558D0504509D0584507D043
:101AF000A7493031884203D0A4498031884239D186
:101B000062464AE0A2496031884203D99F490839B8
:101B1000096804E09E4988429F49F9D94968A04272
:101B2000BED0A842BCD0B042BAD0B7E75045BFD073
:101B30005845BDD0DFF8588208F130084045B7D08D
:101B4000B0E7DFF84C82A8F118084045B2D0DFF8C2
:101B50003C8208F138084045ACD0DFF8348208F107
:101B600048084045A6D0DFF8248208F1980840458F
:101B7000A2D19FE78649183988420BD08349383172
:101B8000884207D082494831884203D07F49983142
:101B9000884201D11A4600E072467C48001D2EE0C2
:101BA00097E07B49603188422BD9A04226D0A842D9
:101BB00024D0B04222D0484520D0504509D05845C5
:101BC00007D073493031884203D070498031884250
:101BD00001D1624612E06E49183988420BD06B4938
:101BE0003831884207D06A494831884203D0674972
:101BF0009831884201D11A4600E07246634802607B
:101C000059E0634988422BD9A04226D0A84224D06B
:101C1000B04222D0484520D0504509D0584507D081
:101C20005B493031884203D058498031884201D124
:101C3000624612E05649183988420BD05349383170
:101C4000884207D052494831884203D04F499831E1
:101C5000884201D11A4600E072464F48C2602AE02D
:101C6000A04226D0A84224D0B04222D0484520D05D
:101C7000504509D0584507D045493031884203D0F6
:101C800042498031884201D1624612E04049183908
:101C900088420BD03D493831884207D03C49483111
:101CA000884203D039499831884201D11A4600E070
:101CB000724639488260F86C40F00400F8640420F1
:101CC00087F83500002087F83400B96C09B1384630
:101CD0008847DFF8B8C04FF4806138680CF1500CC9
:101CE0008A020B04604534D9DFF8A0C0ACF1040CC3
:101CF00039E0484552D100BF4FF010080AE0DFF844
:101D00008C8008F18008404551D1884602E0904619
:101D100000E098461CEA080F7ED0D0F800C05FEAC9
:101D20000C7C79D5D0F800C05FEA4C384FF0310C0C
:101D300073D5DFF8588008F15008404575D9A042A6
:101D400005D0A84203D0B04201D0484546D1102169
:101D500068E0DFF83CC00CF1600C604506D9DFF8A4
:101D60002CC0ACF1080CDCF800C007E0DFF820C0A4
:101D70006045DFF824C0F6D9DCF804C0A042BBD02F
:101D8000A842B9D0B042B7D0B3E70000086402401F
:101D90005860024004008000006002405045B4D00A
:101DA0005845B2D0DFF84C844045AED0A7E7DFF805
:101DB0004484A8F148084045A9D0DFF83C84404558
:101DC000A5D0DFF8308408F1180840459FD0DFF82F
:101DD000288408F1600840459BD198E7504521D000
:101DE00058451FD0DFF80C8440451BD0DFF808842D
:101DF00008F14808404515D0FE49483988420AD0C4
:101E0000FD49884207D0FB491831884203D0FA497E
:101E10006031884205D102E0ADE0BBE005E011464B
:101E200000E01946F448343831E0DFF8C88308F19F
:101E3000300840452DD9A04205D0A84203D0B04279
:101E400001D0484501D110211FE050451DD0584513
:101E50001BD0DFF8A083404517D0DFF89C8308F142
:101E60004808404511D0E349483988420AD0E24940
:101E7000884207D0DF491831884203D0DE496031FB
:101E8000884201D1114600E01946DB48383801602C
:101E900060E0DFF86083A8F1300840452DD9A0420A
:101EA00005D0A84203D0B04201D0484501D110214D
:101EB0001FE050451DD058451BD0DFF83883404502
:101EC00017D0DFF8348308F14808404511D0C949DC
:101ED000483988420AD0C849884207D0C5491831D4
:101EE000884203D0C4496031884201D1114600E0E4
:101EF0001946C0488838C1602CE0A04205D0A842ED
:101F000003D0B04201D0484501D110211FE0504517
:101F10001DD058451BD0DFF8DC82404517D0DFF8D4
:101F2000D88208F14808404511D0B2494839884262
:101F30000AD0B149884207D0AE491831884203D04F
:101F4000AD496031884201D1114600E01946A948E7
:101F50008838816038680168090302D487F835C081
:101F600005E00068000302D5412087F83500396C90
:101F700009B138468847DFF880C24FF400613868FD
:101F80000CF1180C8A024FF0006E604570D99A4B24
:101F90003C3B00E1D0F800805FEAC85805D4D0F897
:101FA000008028F00808C0F80080DFF84C8238680C
:101FB00008F1180840452CD9A04205D0A84203D00A
:101FC000B04201D0484501D110211FE050451DD03D
:101FD00058451BD0DFF81C82404517D0DFF8188227
:101FE00008F14808404511D08249483988420AD052
:101FF0008149884207D07F491831884203D07E4901
:102000006031884201D1114600E019467A483438DF
:1020100032E0DFF8E08108F1300840452ED9A042D7
:1020200005D0A84203D0B04201D0484501D11021CB
:1020300020E050451ED058451CD0DFF8B8814045FF
:1020400018D0DFF8B48108F14808404512D069493A
:10205000483988420AD06849884207D06549183112
:10206000884203D064496031884202D1114601E0C0
:102070008BE019466048383801606FE7DFF87481FB
:10208000A8F1300840452DD9A04205D0A84203D080
:10209000B04201D0484501D110211FE050451DD06C
:1020A00058451BD0DFF84C81404517D0DFF84881F8
:1020B00008F14808404511D04E49483988420AD0B5
:1020C0004D49884207D04B491831884203D04A49CC
:1020D0006031884201D1114600E0194645488838F0
:1020E000C1603BE7A04205D0A84203D0B04201D076
:1020F000484501D110211FE050451DD058451BD047
:10210000DFF8F080404517D0DFF8EC8008F1480890
:10211000404511D03749483988420AD0364988426B
:1021200007D034491831884203D03349603188429E
:1021300001D1114600E019462E48883881600DE72C
:10214000484537D14FF020080AE0DFF8AC8008F1AD
:102150004808404537D1884602E0904600E0F04606
:1021600013EA080F7AD00368DB0677D503685B03B0
:1021700075D5604564D9A04205D0A84203D0B042CD
:1021800001D048453CD1202157E01A4B30339842CA
:1021900003D9194B403B1B6805E0164B303B984276
:1021A000164BF8D95B68A042CCD0A842CAD0B04246
:1021B000C8D0C5E75045CED05845CCD0DFF83480E4
:1021C0004045C8D0C1E7DFF8348008F140084045F9
:1021D000C3D0DFF824804045BFD0DFF8188008F175
:1021E00018084045B9D0DFF8108008F16008404574
:1021F000B5D1B2E78860024040640240006002400E
:1022000050451AD0584518D0BE4B984215D0BE4BF9
:10221000984212D0BB49483988420BD0BA49483954
:10222000884207D0B7491831884203D0B6491831DF
:10223000884201D1114600E07146B3487C382EE057
:10224000B04B303398422CD9A04205D0A84203D0DD
:10225000B04201D0484503D120211EE0FBE089E0D7
:1022600050451AD0584518D0A64B984215D0A64BC9
:10227000984212D0A349483988420BD0A249483924
:10228000884207D09F491831884203D09E491831AF
:10229000884201D1114600E071469B4880380160B8
:1022A00058E0984B303B98422AD9A04205D0A8422A
:1022B00003D0B04201D0484501D120211CE0504557
:1022C0001AD0584518D08F4B984215D08E4B984253
:1022D00012D08C49483988420BD08B494839884202
:1022E00007D088491831884203D08749183188427D
:1022F00001D1114600E0714682488838C16029E06A
:10230000A04205D0A84203D0B04201D0484501D137
:1023100020211CE050451AD0584518D0794B9842DE
:1023200015D0794B984212D07649483988420BD063
:1023300075494839884207D072491831884203D01C
:1023400071491831884201D1114600E071466D484B
:102350008838816038680168090301D4796C03E02A
:102360000068000377D5F96B002974D03846BDE8C2
:10237000F05F08470368DB0503D4036823F010030C
:1023800003603868604529D9A04205D0A84203D02F
:10239000B04201D0484501D120211CE050451AD05F
:1023A000584518D0574B984215D0574B984212D0E9
:1023B0005449483988420BD053494839884207D09C
:1023C00050491831884203D04F491831884201D111
:1023D000114600E071464C487C382CE0494B3033C4
:1023E00098422AD9A04205D0A84203D0B04201D0D9
:1023F000484501D120211CE050451AD0584518D03D
:10240000404B984215D0404B984212D03D49483934
:1024100088420BD03C494839884207D039491831A5
:10242000884203D038491831884201D1114600E072
:10243000714635488038016059E0324B303B984254
:102440002BD9A04205D0A84203D0B04201D04845C4
:1024500002D120211DE053E050451AD0584518D034
:10246000284B984215D0284B984212D0254948391C
:1024700088420BD024494839884207D02149183175
:10248000884203D020491831884201D1114600E02A
:1024900071461C488838C16029E0A04205D0A84296
:1024A00003D0B04201D0484501D120211CE0504565
:1024B0001AD0584518D0134B984215D0124B984259
:1024C00012D01049483988420BD00F494839884208
:1024D00007D00C491831884203D00B491831884283
:1024E00001D1114600E07146064888388160F86CD9
:1024F000F864112087F83500002087F8340032E7AF
:10250000BDE8F09F886002408864024070B5D0B199
:102510000221446A80F8351003681A6816490A4097
:10252000D0E901152943D0E90356354329434569CC
:10253000294385692943C5692943056A294311430C
:10254000042C02D005E0012070BDD0E90B24224309
:102550001143196003685969426A21F00701114368
:10256000042A01D1826A114359610021C164012109
:1025700080F83510002070BD3F8010F070B5044623
:1025800090F8340001282DD0012084F83400022076
:1025900084F835002068056825F0010505602046AF
:1025A000FEF7AAFD2068016841F010010160206873
:1025B000016841F0080101602068016841F00401F0
:1025C00001602068416941F0800141612068016833
:1025D00041F0020101602068016841F001010160E1
:1025E000002070BD022070BD31B500F033F9044603
:1025F00000F030F90099001B8842F9D338BD000083
:102600002DE9F041054602281FD1144C144E154FF8
:10261000B4F86400012805D12946384600F00CF9C9
:10262000012814D0B4F8640002280ED12946384697
:1026300000F002F9002808D13068406A6080032069
:10264000A4F86400012084F86600BDE8F0813068D9
:10265000406A20800220A4F86400F6E7A00300206E
:1026600040010020000C0240044910B50A680242F3
:1026700002D00860FFF7C4FF10BD0000143C014009
:102680002DE9F04FDFF880B100224FF001084FF044
:10269000030A4FF00F090BF1040E00BF0B6808FA94
:1026A00002F42340A3426FD14D68022D01D0122DB8
:1026B0000ED1D50800EB850CDCF820505607F70E3C
:1026C00009FA07F6B5430E69BE402E43CCF82060E8
:1026D000066855000F790AFA05FC07F0030726EA99
:1026E0000C06AF40374307604E68012E05D0022E1E
:1026F00003D0112E01D0122E0ED18668CF6826EAA3
:102700000C06AF40374387604668A6430C79C4F394
:102710000014944034434460C6688C6826EA0C0672
:10272000AC403443C4604C68E40066D5374C25683F
:1027300045F480452560364C22F003052E19D6F865
:10274000084895072F0F09FA07F5AC43314DA84209
:1027500001D1002529E0304DA84201D1012524E016
:102760002E4DA84201D102251FE02D4DA84201D1D6
:1027700003251AE02B4DA84201D1042515E02A4D6E
:10278000A84202D1052510E037E0284DA84201D12A
:1027900006250AE0264DA84201D1072505E0254D72
:1027A000A84201D1082500E00925BD402543C6F80F
:1027B0000858DBF800405D464E689C43F60300D5A0
:1027C0001C432C60DEF8004075464E689C43B603FF
:1027D00000D51C432C600C4D08352C684E689C437A
:1027E000F60200D51C432C60074D0C352C684E6852
:1027F0009C43B60200D51C432C60521C102AFFF4E7
:102800004DAFBDE8F08F0000003C0140443802406D
:102810000030014000000240000402400008024075
:10282000000C024000100240001402400018024058
:10283000001C0240002002400069084000D0012036
:10284000704742694A40426170470AB181617047EE
:102850000904FBE701480068704700000000002001
:1028600038B501688A69D243D20711D04A69C2F3E8
:1028700040034A684C69C2F34022C4F300158C69D6
:10288000C4F380048BB382B348698869009038BD73
:102890008A69D24352074A6928D4C2F3C0144A68ED
:1028A000C2F380234A694968C2F38002C1F3402120
:1028B0000CB103B13AB1002AE9D00029E7D0BDE854
:1028C000384001F017BD416A4A1C4262026809782B
:1028D0001161418D491E4185418D0029D7D1006884
:1028E000416821F48061416038BD19E0C2F3801372
:1028F0004A68C2F380244A694968C2F38002C1F37E
:1029000040210BB104B13AB1002AEDD00029EBD03F
:10291000BDE8384001F0C0BBBDE8384001F00EBC56
:1029200005B3FAB10446486820F4E06048602068C6
:1029300041690091016841F001010160206801686E
:1029400021F480610160232301222449204601F003
:10295000BBFD0028C8D1012084F83500204600F0D6
:1029600089FBC1E74A69DCB1C2F3C0144A68C2F30B
:1029700080234A694968C2F38002C1F340210CB147
:1029800003B11AB1002AAFD00029ADD0418D002982
:10299000AAD0416A4A1C426202680978116119E0B2
:1029A000C2F380154A68C2F380234A694C68C2F3B7
:1029B0008002C4F340240DB103B11AB1002A93D0B0
:1029C000002C91D0428D002A8ED00A69416A4B1C9E
:1029D00043620A70418D491E418585E7020010005F
:1029E00010B5040003D094F8350010B104E00120C4
:1029F00010BD204600F014FB022084F8350020684A
:102A0000016821F00101016000F0B2FC3249226846
:102A1000B0FBF1F15160314A6368934206D94FF43B
:102A2000967359434FF47A73B1FBF3F12368491C51
:102A30001962616891420BD84900B0FBF1F2C2F310
:102A40000B02042A01D204201AE0B0FBF1F017E0D7
:102A5000A36893B301EBC10202EB0112B0FBF2F2E7
:102A600042F4804212052FD043B301EBC10202EBC6
:102A70000111B0FBF1F040F4804000BF40F4004091
:102A80002168C861D4E90701084321680860D4E9D6
:102A90000310084321688860D4E9050108432168D0
:102AA000C8602068016841F0010101600020A06356
:102AB000012084F83500002010BD00E006E001EBA5
:102AC0004102B0FBF2F2CDE70120D9E701EB410171
:102AD000B0FBF1F0D2E7000040420F00A0860100F9
:102AE00010210148FFF7ADBE000002407047000012
:102AF0002DE9F84F044690F83500DDF828B01E4661
:102B00001546012870D1E5B1DEB120688069C04367
:102B1000800769D594F83400012865D04FF001088A
:102B200084F83480222084F835000027A7635A46B1
:102B3000204601F047FB38B1A06B84F834700428BC
:102B40007DD10120BDE8F88FDFF860A1012E1DD0F6
:102B50002068DFF85891022E0168A9F13C092BD0BA
:102B600041F4806101602068416980690090032E12
:102B70006BD8012E17D0022E2AD05B460022494680
:102B8000204601F0A1FC002859D13AE020680168F4
:102B900021F48061016020684169816900910168C8
:102BA00041F4007101605B4600225146204601F06D
:102BB0008BFC00286FD113E021F480610160206854
:102BC000016841F4006101602068416980690090FA
:102BD0005B4600224946204601F076FC78BB04E0C3
:102BE0002068006928704AE05DE02068016841F4CF
:102BF00000710160206800692870206800696870B1
:102C00003DE02068016821F480610160206800696E
:102C100005F8010B761EB6B25B46002249462046F7
:102C200001F052FC58B92068016841F4007101605C
:102C30002068006905F8010B2068006901E02AE0BE
:102C400003E005F8010BB61E15E05B460022514675
:102C5000204601F039FCF0B92068006905F8010B45
:102C60002068761EB6B24169C943490704D4006999
:102C700005F8010B761EB6B2002E7FF478AF2068FF
:102C8000016821F4006101605B4601220849204689
:102C900001F01AFC08B1032054E784F8358084F869
:102CA000347000204EE702204CE700004000010095
:102CB000020010002DE9F84F044690F83500DDF8C9
:102CC00028A01D46164601285BD1E6B1DDB120687B
:102CD0008069C043800754D594F83400012850D04F
:102CE0004FF0010884F83480122084F83500002762
:102CF000A7635246204601F0C3FA38B1A06B84F8AE
:102D00003470042835D10120BDE8F88F206841696E
:102D10008069DFF8749000905346002249462046AF
:102D200001F0D2FB28BB216816F8010B086120686E
:102D30006D1EADB24169C943490705D435B116F8D6
:102D4000011B01616D1EADB2002DE5D1534600227D
:102D50004946204601F0B8FB58B92068016841F4A3
:102D600000710160534601220849204601F0ACFB86
:102D700008B10320C8E784F8358084F83470002057
:102D8000C2E70220C0E7000080000100020010003E
:102D9000704770472DE9F84F04460AA890E860088C
:102DA00094F83500012879D1EDB1E6B12068806949
:102DB000C043800772D594F8340001286ED04FF0DC
:102DC000010884F83480422084F835000027A76386
:102DD0002046CDF800B001F0BFFA38B1A06B84F8FE
:102DE000347004287CD10120BDE8F88FDFF854A1AD
:102DF000012E18D0DFF84C912068A9F13C09022E71
:102E000027D0416980690090032E6BD8012E17D01E
:102E1000022E2BD05B4600224946204601F054FB8F
:102E200000285DD13BE02068016821F480610160E9
:102E30002068416981690091016841F40071016075
:102E40005B4600225146204601F03EFB00286FD130
:102E500014E0016821F4806101602068016841F498
:102E60000061016020684169806900905B46002232
:102E70004946204601F028FB90BB03E0206800692A
:102E8000287049E02068016841F400710160206801
:102E9000006928702068006968703DE050E0206893
:102EA000016821F4806101602068006905F8010B68
:102EB000761EB6B25B4600224946204601F004FB6E
:102EC00070B92068016841F40071016020680069F0
:102ED00005F8010B2068006905F8010BB61E17E024
:102EE00026E0FFE75B4600225146204601F0ECFA5F
:102EF000F0B92068006905F8010B2068761EB6B2AB
:102F00004169C943490704D4006905F8010B761EDD
:102F1000B6B2002E7FF478AF2068016821F400611A
:102F200001605B4601220849204601F0CDFA08B154
:102F3000032059E784F8358084F83470002053E783
:102F4000022051E740000100020010002DE9F84F77
:102F50000446DDE90A6590F83500DDF83090012877
:102F600058D1EEB1E5B120688069C043800751D5E2
:102F700094F8340001284DD04FF0010884F83480D3
:102F8000322084F835000027A7632046CDF8009052
:102F900001F052FA38B1A06B84F83470042831D1B2
:102FA0000120BDE8F88FDFF870A04B4600225146A3
:102FB000204601F089FA28BB216816F8010B086148
:102FC00020686D1EADB24169C943490705D435B1CA
:102FD00016F8011B01616D1EADB2002DE5D14B4607
:102FE00000225146204601F06FFA58B92068016866
:102FF00041F4007101604B4601220849204601F06E
:1030000063FA08B10320CCE784F8358084F8347083
:103010000020C6E70220C4E7800001000200100083
:1030200000B50068104985B088421AD10F48016880
:1030300041F400110160C020009012200190012095
:103040000290002003900420049069460848FFF78E
:1030500017FB002211461F2000F062F81F2000F02D
:1030600054F805B000BD0000005400404038024054
:10307000000402407047000002480168491C0160DA
:1030800070470000000000200B4810B5016841F4B3
:1030900000710160016841F480610160016841F4E0
:1030A00080710160032000F05BF8002000F006F85A
:1030B00000F015F8002010BD003C024010B5044699
:1030C00000F03CF94FF47A71B0FBF1F000F051FBE5
:1030D00000222146501E00F023F8002010BD10B53C
:1030E000032000F03DF80022BDE810401146501EBC
:1030F00000F016B800F01F02012191404009800045
:1031000000F1E020C0F88011704700F01F0201219B
:1031100091404009800000F1E020C0F800117047A4
:10312000F0B40E4B1B680C46C3F30223C3F1070532
:10313000042D00D90425191D072901D2002300E020
:10314000DB1E012606FA05F1491E214099409E40EA
:10315000761E16403143F0BC02F001BA0CED00E0DF
:10316000064900F0070208684FF6FF03184040EADE
:103170000220034A10430860704700000CED00E095
:103180000000FA052DE9F047DFF8A8A105460E4634
:10319000DAF80000684C00F00F016748083406F0C8
:1031A000FF0941F28838B14254D28AF80090DAF827
:1031B000001001F00F01B1426FD12978890705D5C0
:1031C0002168AA6821F0F001114321602978C9071C
:1031D00028D06968012914D00068022914D080071A
:1031E00000285ADA206820F0030008432060FFF727
:1031F00031FB0646686801280ED00228474618D0E1
:1032000023E000688003EBE78001E9E7FFF722FB9A
:10321000801BB84201D964E047462068C0F38100B2
:103220000128F3D16EE000BFFFF714FB801BB8420A
:1032300057D82068C0F381000228F5D162E000BFB2
:10324000FFF708FB801BB8424BD8206810F00C0F2A
:10325000F6D157E02978890705D52168AA6821F0B9
:10326000F001114321602978C90741D0696801291B
:1032700014D00068022914D08007002840DA2068A2
:1032800020F0030008432060FFF7E4FA074668686F
:1032900001280ED0022818D026E031E00068800313
:1032A000EBE78001E9E700BFFFF7D4FAC11B414516
:1032B00017D82068C0F381000128F5D118E000BFBD
:1032C000FFF7C8FAC11B41450BD82068C0F3810045
:1032D0000228F5D10CE000BFFFF7BCFAC11B414545
:1032E00002D90320BDE8F087206810F00C0FF3D15D
:1032F0008AF80090DAF8000000F00F00B04201D028
:103300000120EFE72878400705D52068E96820F418
:10331000E050084320602878000706D52068296916
:1033200020F4604040EAC10020600020FFF7C6FEA4
:103330000020D7E7003C02400038024000B500F012
:1033400043F808490968F02292FAA2F201F0F0016C
:10335000B2FA82F2D140044A515CC8400349086085
:1033600000BD000008380240F4C400086C000020D2
:1033700000B5FFF7E3FF074909684FF4E05292FAFE
:10338000A2F201F4E051B2FA82F2D140024A515C59
:10339000C84000BD08380240F4C4000800B5FFF77B
:1033A000CDFF074909684FF4604292FAA2F201F496
:1033B0006041B2FA82F2D140024A515CC84000BD7D
:1033C00008380240F4C4000830B51948006810F00D
:1033D0000C01184812D0184C04290ED008290DD120
:1033E0001349091F0A6802F03F030A68550247F6AD
:1033F000C07204D5B4FBF3F003E0204630BDB0FB4F
:10340000F3F00B680968134092FAA2F2B2FA82F262
:10341000D34058434FF4403292FAA2F201F44031C3
:10342000B2FA82F2D140491C4900B0FBF1F030BD44
:10343000083802400024F40040787D012DE9F84F5F
:1034400004460078DFF814A3C54DC0074FF000060E
:103450004BD0DAF800105046C1F38101012908D0A1
:103460000068C0F3810002280AD1281D00684002CC
:1034700006D52868800338D56068002871D034E00C
:10348000DFF8DC9209F1020989F80060FFF7E2F940
:10349000804641F2883705E0FFF7DCF9A0EB080031
:1034A000B8427DD828688003F6D4207989F80000D6
:1034B000606868B1FFF7CEF9804605E0FFF7CAF90A
:1034C000A0EB0800B842ECD828688003F6D50CE0E1
:1034D000FFF7C0F9804605E0FFF7BCF9A0EB080054
:1034E000B842DED828688003F6D420789D4F800744
:1034F0004FF0010B45D5DAF80010504611F00C0FD3
:103500004FF0F80909D00068C0F3810002280BD100
:103510009248001F0068400206D42868800714D52E
:10352000E06801281DD110E0E068D8B1C7F800B00C
:10353000FFF790F9804605E0FFF78CF9A0EB080053
:103540006428AED828688007F6D5286899FAA9F2C9
:103550002169B2FA82F220F0F80091400843286015
:103560000FE0F8E03E60FFF775F9804606E000BF27
:10357000FFF770F9A0EB0800642811D828688007CD
:10358000F6D42078000729D5DFF8D0917648616914
:1035900009F16C0999B1C0F800B0FFF75BF900E0E0
:1035A00085E0804606E000BFFFF754F9A0EB080075
:1035B00064287CD8D9F800008007F5D50EE00660B5
:1035C000FFF748F9804605E0FFF744F9A0EB080053
:1035D00064286CD8D9F800008007F5D4207840071B
:1035E00056D55E483830016841F080510160DFF8FF
:1035F0007C91D9F8001041F48071C9F80010FFF7F0
:1036000029F9804606E000BFFFF724F9A0EB080087
:1036100064284CD8D9F80000C005F5D5DFF83C8106
:1036200008F1680888F80060FFF714F941F288395A
:10363000009005E0FFF70EF90099411A494536D888
:10364000D8F800008007F5D4207A88F80000A06838
:10365000012803D0FFF7FEF8009015E0FFF7FAF815
:10366000009005E0FFF7F6F80099411A49456AD83D
:10367000D8F800008007F5D50AE000BFFFF7EAF8A8
:103680000099411A49455ED8D8F800008007F5D462
:10369000A069E0B3DAF80010C1F3810102295AD021
:1036A00002283E6604D0FFF7D5F804464EE04AE013
:1036B000FFF7D0F8064604E0FFF7CCF8801B64283B
:1036C00041D828688001F7D4D4E90710084347F6A9
:1036D000C07292FAA2F2616AB2FA82F29140A26AD0
:1036E0004FF0FF3303EB52024FF4403393FAA3F34E
:1036F000B3FA83F39A40114308434FF0706292FA91
:10370000A2F2E16AB2FA82F29140084300E020E0BE
:1037100040F000511148001F0160C7F860B0FFF78A
:1037200099F8044605E000BFFFF794F8001B6428F1
:1037300009D828688001F7D50BE000BFFFF78AF8A9
:10374000001B642802D90320BDE8F88F2868800197
:10375000F4D40020F8E70120F6E700000838024022
:103760000038024000004742800E4742007000408F
:10377000704710B5401EB0F1807F01D3012010BD0D
:103780004FF0E02460610F21601701F0E8FE002097
:10379000A06107202061002010BD10B5FFF7E8FFF1
:1037A00010BD7047704730B590F83820012A20D0FE
:1037B000012280F83820022380F8393003685C68E1
:1037C00024F070045C6003685C680D682C435C60E6
:1037D00003689C6824F080049C6003689C684968C6
:1037E0000C439C6080F83920002180F8381008468E
:1037F00030BD022030BD10B5040003D094F839006C
:1038000010B104E0012010BD204600F00DF80220A8
:1038100084F83900211D206803F0CCFF012084F8D2
:103820003900002010BD000070B502680024204956
:103830000225204886B0B2F1804F06D01E4B9A4236
:103840001BD1086840F0020030E00A6842F0010233
:103850000A6022210091CDE901540126CDE90346F9
:103860006946FEF70DFF4FF440600090CDE901542A
:10387000CDE90346694611480EE0114B9A420FD13B
:103880000A6842F480720A6080210091CDE90154F7
:103890000921CDE903416946FEF7F2FE06B070BD8D
:1038A00008488242FAD1086840F080000860F5E7D5
:1038B0004038024000000240000400400004024082
:1038C00000200040001C0040022180F839100168EF
:1038D0000A6842F001020A60012180F839100020D4
:1038E00070470168CA6842F00102CA600068016856
:1038F00041F0010101600020704770B5044690F866
:103900003800012817D0012584F83850022084F8A7
:1039100039002068826822F0770222F47F428260B8
:103920000868502837D00DDC202859D005DC88B332
:10393000102841D151E0022070BD302853D04028DA
:103940003AD13FE060282ED070280BD0B0F5805FD0
:1039500003D0B0F5005F2FD110E02068816821F01E
:10396000070115E0CB68D1E90121206803F08DFF44
:103970002168886840F0770088601DE0CB68D1E955
:103980000121206803F081FF2068816841F48041B3
:10399000816011E01EE0CA684968206804F03EF8C2
:1039A0005021206806E0CA684968206804F047F89A
:1039B0006021206803F073FF84F83950002084F8F8
:1039C000380070BDCA684968206804F027F84021B3
:1039D0002068EFE700212068ECE710212068E9E784
:1039E00020212068E6E730212068E3E7704770B5C2
:1039F0000446006801694FF00005C943890715D4E2
:103A0000C168C943890711D4E91E016101202076EC
:103A1000206880698007204602D0FFF7E7FF04E0B6
:103A200000F0C4F8204600F0A6F925762068016968
:103A3000C943490717D4C168C943490713D46FF074
:103A400004010161022020762068806910F4407F23
:103A5000204602D0FFF7CAFF04E000F0A7F8204696
:103A600000F089F9257620680169C943090716D451
:103A7000C168C943090712D46FF00801016104202D
:103A800020762068C0698007204602D0FFF7AEFF8D
:103A900004E000F08BF8204600F06DF925762068F0
:103AA0000169C943C90617D4C168C943C90613D4FB
:103AB0006FF010010161082020762068C06910F4C1
:103AC000407F204602D0FFF791FF04E000F06EF83F
:103AD000204600F050F9257620680169C943C907DE
:103AE00008D1C168C943C90704D1891E01612046B4
:103AF00000F05EF920680169C943090609D4C1686C
:103B0000C943090605D46FF0800101612046FFF723
:103B100048FE20680169C943490609D4C168C94300
:103B2000490605D46FF040010161204600F041F9DB
:103B300020680169C94389060BD4C168C943890655
:103B400007D46FF0200101612046BDE87040FFF707
:103B500029BE70BD70B5044690F8380001280DD01C
:103B6000012584F83850022084F8390042B1042A33
:103B70000AD0082A0CD00C2A11D10DE0022070BD09
:103B8000206803F095FE0AE0206803F0BDFE06E021
:103B9000206803F0EBFE02E0206803F017FF84F8D2
:103BA0003950002084F8380070BD0000074A0168D1
:103BB000914209D1007E012806D1486B00F57A6058
:103BC000486303490020086070470000000400407B
:103BD0006800002010B5040003D094F8390010B13B
:103BE00004E0012010BD204600F00CF8022084F80B
:103BF0003900211D206803F0DDFD012084F8390023
:103C0000002010BD7047000010B50268044631B1B5
:103C1000042908D0082920D00C2908D121E0D06837
:103C200040F0020002E0D06840F00400D0600122C1
:103C3000206803F01FFE0D492068884202D00C491D
:103C4000884203D1416C41F400414164206801681D
:103C500041F001010160002010BDD06840F0080073
:103C6000E4E7D06840F01000E0E700000000014009
:103C70000004014070B5044690F838000D46012854
:103C80000DD0012684F83860022084F8390042B152
:103C9000042A18D0082A2AD00C2A4DD139E0022053
:103CA00070BD206803F004FE2068816941F00801BE
:103CB00081612068816921F0040181612068816946
:103CC0002A69114311E0206803F01EFE2068816913
:103CD00041F4006181612068816921F48061816122
:103CE000206881692A6941EA0221816124E0206813
:103CF00003F03CFE2068C16941F00801C161206801
:103D0000C16921F00401C1612068C1692A691143B8
:103D100011E0206803F05AFE2068C16941F4006197
:103D2000C1612068C16921F48061C1612068C169F5
:103D30002A6941EA0221C16184F83960002084F8CF
:103D4000380070BD10B5040003D094F8390010B1EC
:103D500004E0012010BD204600F00CF8022084F899
:103D60003900211D206803F025FD012084F8390069
:103D7000002010BD7047704710B50446006801224E
:103D800003F078FD08492068884202D0074988423C
:103D900003D1416C41F4004141642068016841F065
:103DA00001010160002010BD00000140000401403D
:103DB00070477047704710B5040003D094F839007D
:103DC00010B104E0012010BD204600F021F80220CF
:103DD00084F839002068C16821F40051C160204690
:103DE00003F06EFE2068016921F4904101612068B2
:103DF000416921F02A0141612068C16841F4005104
:103E0000C1600020E063012084F83900002010BD6B
:103E10002DE9F041064602682B4B022000240121C7
:103E2000870686B04FF480789A4221D1274A1368DA
:103E300043F4002313604FF4406201AB009283E827
:103E400013000820049069462148FEF719FC224D12
:103E500020482860C5E901740015C5E903406C617C
:103E6000C5E906484FF44030C5E90804284623E078
:103E70001A4B9A4224D1154A121D136843F01003BD
:103E800013604FF4C06201AB009283E81300072077
:103E9000049069461248FEF7F3FB134D1148286061
:103EA000C5E90174EC602C616C61C5E906484FF40A
:103EB0008030C5E908042846FEF728FB7563AE6329
:103EC00006B0BDE8F0810000004C004040380240E0
:103ED0000008024040600240000300200010014042
:103EE00000000240406402405003002070B50446C8
:103EF00090F83900012801D0122832D169B362B399
:103F000094F8380001282CD0012084F83800A162F0
:103F1000A2850025E56394F8390012281FD02220DD
:103F200084F83900636B1048D863636B0F481864DA
:103F3000636B0F48986408461346666B2168024617
:103F40003046091DFEF71AFB2068416941F0400127
:103F5000416184F83850002070BD012070BD3220CE
:103F6000DEE7022070BD0000817A0008B77A000801
:103F7000637A000800680B4A0121904203D10A4885
:103F8000C0F8B4107047094A9042FBD1084801704C
:103F9000084800787328F5D10749002081F86A00A5
:103FA00070470000004C0040240B0020001001402E
:103FB0005800002059000020D40D00207047000058
:103FC0002DE9F047044690F8390099460D4601283E
:103FD00001D0222858D12DB322B394F838000128FB
:103FE00052D0012684F838600027E76394F839003E
:103FF00022281AD05FF0120084F83900A284E284EB
:104000004FF48058E08C4B46401EE084A0684FF08F
:10401000000240454FF08001204613D103F00CFE12
:1040200008BB04E00120BDE8F0873220E4E72888DF
:104030002168C0F308004860206908B16D1C08E0E1
:10404000AD1C06E003F0F8FD68B9216815F8010B16
:104050004860E08C0028D5D14B4600224021204604
:1040600003F0EAFD08B10320DDE794F839003228B7
:1040700006D084F8396000BF84F838700020D2E799
:10408000222084F83900F7E70220CCE70148FEF748
:10409000E7BB0000C800002010B5418D0446006851
:1040A000032903D0618D02290FD004E0016821F4B7
:1040B0008061016020680169606A421C626201706F
:1040C000608D401E6085002010BD016841F40071C4
:1040D000016020680169606A421C62620170608D43
:1040E000401E608520680169606A421C626201703E
:1040F000608D401E60852068416821F440714160F8
:10410000232301220C49204600F0DEF908B10320E8
:1041100010BD2068016821F40061016094F8351039
:104120000120422984F83500204602D0FEF7D8FC51
:10413000C9E7FEF72DFEC6E70200100010B5418D5D
:1041400004460068032908D90169606A421C62625A
:104150000170608D401E60852DE0022917D0032973
:1041600015D0416821F4E061416020680169606A0E
:10417000421C62620170608D401E60852323012213
:104180000F49204600F0A0F930B1032010BD41686E
:1041900021F4806141600EE02068016821F4006133
:1041A000016094F835100120422984F8350020463A
:1041B00003D0FEF795FC002010BDFEF7E9FDFAE7FD
:1041C000020010002DE9F843044600680D469146B0
:1041D000016841F4806101602068016841F48071E8
:1041E000016013464FF0011700223946204600F0C7
:1041F0006BF998BB206907F10108B0F5804F10D02A
:104200000620216800EAD51646F0F00008614A460B
:10421000F91D204600F09EF938B1A06B04282CD07F
:104220001CE0E8B240F001001DE02168E8B208613E
:104230004A464146204600F08DF90028EDD120681D
:10424000416981690091016841F4807101604B46C8
:1042500000223946204600F037F910B10320BDE8AE
:10426000F88346F0F100216808614A46414620463D
:1042700000F070F90028D0D1F1E70120EFE700004D
:1042800070B5044600680D461646016841F4807119
:104290000160134600224FF00111204600F014F98E
:1042A00098B92069B0F5804F11D00620216800EA46
:1042B000D51040F0F000086132460D49204600F06C
:1042C00049F938B1A06B042810D0032070BD05F067
:1042D000FE0000E0E8B22168086105493246891F06
:1042E000204600F037F90028ECD170BD012070BDE8
:1042F0000800010010B5418D0446006841B1616AB3
:104300004A1C626209780161608D401E60851BE075
:10431000416821F4E06141602068016841F4007166
:104320000160232301220B49204600F0CDF808B19B
:10433000032010BD94F835100120322984F835008F
:10434000204603D0FEF7D2FB002010BDFEF721FD72
:10435000FAE70000020010002DE9F84F044600685B
:104360000F4698460168164641F480610160206856
:10437000016841F4807101604FF001190022494643
:1043800020460A9B00F0A0F8E8BB216807F0FE0079
:10439000086109F1010A514620460A9A00F0DAF84C
:1043A00018B1A06B042842D031E0206841698069CF
:1043B0000090DFF880B00022594620460A9B00F0AA
:1043C00083F800BBF5B2B8F1010F09D02168300ABB
:1043D00008610022594620460A9B00F075F890B902
:1043E000206805610022594620460A9B00F06CF8BF
:1043F00048B92068016841F4807101600022494693
:1044000020460A9B00E002E000F05EF810B10320B5
:10441000BDE8F88F2168F8B240F00100086151460C
:1044200020460A9A00F096F80028BAD1F0E7012059
:10443000EEE70000800001002DE9F8430446006823
:104440000D46DDF8209001689846164641F48071CB
:1044500001604B4600224FF00111204600F034F875
:1044600050BB216805F0FE0008614A461549204608
:1044700000F070F828B1A06B04281DD10120BDE820
:10448000F8832068416980690E4F00907E374B4663
:1044900000223946204600F017F868B9F5B2B8F1A5
:1044A000010F0BD02168300A08614B4600223946C3
:1044B000204600F009F808B10320E0E72068056114
:1044C0000020DCE7020001002DE9F05F1E46904667
:1044D0000C460546FEF7BEF981464FF0000A4FF044
:1044E000010BC4F30747B8F1000F09D024E0701C9A
:1044F00006D0D6B1FEF7AEF9A0EB0900B04214D851
:104500002868012F06D0806924EA00000004000C0E
:104510001BD0ECE74069F7E7701C0DD02EB1FEF719
:1045200099F9A0EB0900B04206D985F835B085F8B5
:1045300034A00320BDE8F09F2868012F07D08069D0
:1045400024EA00000004000CE6D00020F2E74069F5
:10455000F6E700002DE9F04791460D460446FEF7C8
:1045600079F9824600274FF00108C5F3074628E095
:1045700020684069C043400511D42068016841F4B7
:104580000071016021686FF4806048610420A063BD
:1045900084F8358084F834700120BDE8F087B9F1E3
:1045A000FF3F0ED0B9F1000F05D0FEF753F9A0EB95
:1045B0000A01494505D984F8358084F83470032010
:1045C000EBE72068012E07D0D0F8180025EA00009C
:1045D0000004000CE1D0CBE74069F7E72DE9F0419A
:1045E0002D4C0E46010020682C4A00F101002C4F92
:1045F0004FF000054FF40048206005D01E2301292C
:1046000013D002292FD125E02D2190FBF1F301FBDE
:10461000130129B9792803DD41461046FEF711F947
:104620002068B0F5C47F0EDC1DE090FBF3F103FBC6
:10463000110129B93D2803DD41461046FEF701F975
:104640002068D1280FDD002241463846FEF7FDF8EC
:10465000256008E090FBF3F103FB110018B9414617
:104660001046FEF7EEF80F4890F87E100E4801292C
:1046700005D0BDE8F04100221021FEF7E6B80A217E
:1046800096FBF1F1890704D1BDE8F0411021FEF756
:10469000D8B8BDE8F08100000400002000100240FE
:1046A00000040240540D00200000024010B50446F2
:1046B0002DED068B90ED160A9FED288A80ED170AE6
:1046C00090ED130A20EE080A10EE100AFBF78EFF99
:1046D0009FED23AB41EC100BB0EE4A1AF0EE6A1AD4
:1046E00004F072FAB0EE409A94ED120AF0EE609A7D
:1046F000B8EEC00A20EE080A10EE100AFBF776FFAB
:1047000041EC100BB0EE4A1AF0EE6A1A04F05CFAB3
:104710009FED158B51EC100B53EC182BFBF73AFE69
:1047200053EC192BFBF7A8FE53EC182BFBF72CFED0
:1047300041EC180B206DFBF759FF53EC182BFBF7DE
:1047400029FEFBF77FFF00EE100ADFED090A80EE7D
:10475000201A84ED161ABDEC068B10BD00401C46D5
:10476000EBE2361AC05BC83F000000000088C3407F
:10477000000082422DE9FF47044690F838100320DC
:1047800001254FF0000903AE4FF47A7804F1640775
:1047900007296DD2DFE801F00416411C3E404400B9
:1047A000CDE9006501234822EE213846CDF8088086
:1047B000FEF7CCFB14F8380F401C207084F82890CA
:1047C000BDE8FF87022084F8380084F86090F7E79E
:1047D000CDE9006001230022EE21CDF808803846A3
:1047E000FEF7D8FA9DF80D109DF80C00012301EB9F
:1047F000002100EB012044F81C0FCDE90065582290
:10480000EE213846CDF80880FEF7A0FB207F401C43
:104810002077D5E7052000E0062084F83800CFE7B0
:10482000CDE9006001230022CDF80880EE21384652
:10483000FEF7B0FA9DF80D109DF80C0001EB002179
:1048400000EB01202062204600F03CF8CDE9006535
:1048500001234822EE213846CDF80880FEF776FB8A
:104860002046FFF723FF84F8385084F86050A7E70C
:1048700084F83890A4E700002DE9FF47054600249E
:1048800003AE4FF47A774FF002084FF0A00900F121
:10489000640A00BF09EB4400CDE9006882B201233D
:1048A000EE2150460297FEF775FA9DF80D009DF82F
:1048B0000C1000EB012045F82400641C072CE9DBF8
:1048C000BDE8FF872DE9F0410446006A616949426D
:1048D00000EB0120C11705460E46C4E90C01FBF7A9
:1048E0003AFE00EE900A9FED290A20EE801AD4EDE0
:1048F000060AF8EEE00A20EE800A61EE000A9FED5B
:10490000240AB4EE001A00EE810ABDEEC00A84ED5E
:104910000F0A2269A2FB057CD31703FB05C002FB2B
:104920000600790A41EAC051A06880030A1822648F
:10493000E36828463146A3FB00564FEAE37707FBBE
:10494000006003FB01004FEA805141EA9520616855
:104950004FEA4131401860644FEAE07300EB535076
:10496000E1694FEAE0204FEAE17301EB93514FEA2E
:10497000A12100FB01F0A0EB02004FEAE07100EB87
:10498000D1404FEA6030A064BDE8F0810000803A79
:104990000000FA442DE9F04704462DED048B84B065
:1049A000DFED438A434FB0EE689AB0EE688A5EE06E
:1049B00000208DF80E008DF80D008DF80C004FF0E2
:1049C000010803AE4FF47A750096CDE9018504F134
:1049D000640043464822EE218246FEF7B7FA0A20D9
:1049E000FDF702FE4FF003090096CDE90195012382
:1049F0000022EE215046FEF7CDF99DF80D109DF8EE
:104A00000C00012301EB002100EB0120E061009686
:104A1000CDE901855822EE215046FEF797FA0A208B
:104A2000FDF7E2FD0096CDE9019501230022EE217C
:104A30005046FEF7AFF99DF80D109DF80C0001EB04
:104A4000002100EB012020622046FFF73BFF94EDA0
:104A5000120AB8EEC00A30EE099A94ED0F0AB8EEC9
:104A6000C00A70EE288AB7EE000A38EE008A18EE07
:104A7000100AB8429CDBDFED100A9FED101A89EE98
:104A8000200AC8EE810A9FED0E1A84ED130ABDEECE
:104A9000C00A70EE810AC4ED140A84ED150AE069BB
:104AA0006062206AA06204B0BDEC048BBDE8F087B0
:104AB00000000000000048420000484200409C45C1
:104AC0000080884370B504460D462A226430FBF707
:104AD000A8FB688DA4F88E00092205F12C0104F1D1
:104AE0009000FBF79EFB95F8350084F89900A86BC1
:104AF000C4F89C002046FFF7BFFE2046BDE870408A
:104B0000FFF748BF7FB50E480C490024C0E90014E8
:104B10008460046144620125C46285610562C561E7
:104B20004561C460FCF79FFC0920CDE9000569469A
:104B300002940348FCF702FC7FBD00000020014006
:104B40008400002030B5234885B0016841F0100191
:104B50000160016841F001010160016841F002015A
:104B60000160016841F004010160016841F0080141
:104B70000160C013009001250024CDE9015469466D
:104B800015480394FDF77CFD4FF401600090CDE9DA
:104B90000154694611480394FDF772FD0095CDE973
:104BA000015403940E4C69462046FDF769FD02212D
:104BB0000C480291CDE9001069462046FDF760FDE2
:104BC000002211460720FEF7ABFA0720FEF79DFAF8
:104BD00005B030BD303802400010024000000240F5
:104BE000000C02400000311010B5114888B00F4988
:104BF00001601049104A00240968B1FBF2F1C0E9D4
:104C000001144FF6FF71C0E90314FEF7F4FD0848E4
:104C1000FEF7E0FF009401940294002269460448E4
:104C20000494FEF797FF08B010BD0000001C004080
:104C3000B80100206C00002080841E0010B51248CE
:104C400088B0104901601149114A00240968B1FB7C
:104C5000F2F1491EC0E9011442F20F71C0E90314D8
:104C6000FEF7C9FD0848FFF76DF86020CDE90004A4
:104C700002940022694604480494FEF7FBFF08B042
:104C800010BD0000002000407C0100206C000020CE
:104C900080841E0010B51C488EB04FF08041002467
:104CA000C0E900148460C4600461FEF7A4FD4FF401
:104CB0008050079007A91448FEF71FFE1248FFF71F
:104CC00041F83020CDE90B040BA90F48FEF76BFD2E
:104CD0006020CDE900040294002269460A48049449
:104CE000FEF7C8FF042269460748FEF7C3FF082203
:104CF00069460548FEF7BEFF0C2269460248FEF7EA
:104D0000B9FF0EB010BD00000401002010B5164818
:104D10008EB01449016053210024C0E901144FF6FC
:104D2000FF71C0E90314FEF766FD4FF48050079051
:104D300007A90D48FEF7E1FD0B48FEF74BFF0B946A
:104D40000BA909480C94FEF72EFD4FF47A60CDE9CB
:104D5000004002940022694603480494FEF7FAFEDC
:104D60000EB010BD000400404001002070B50400EA
:104D70002AD0022084F835002068016821F0010162
:104D80000160FEF7F5FA35492368B0FBF1F25A6885
:104D9000B0FBF1F192B222F03F0289B20A435A60AD
:104DA000226813684FF6FE752B4013602C4B626827
:104DB0009A420BD85200B0FBF2F080B2042800D225
:104DC0000420491C226823E0012070BDA3685BB168
:104DD00002EBC20303EB0212B0FBF2F080B240F42C
:104DE0008040020506D007E002EB4202B0FBF2F081
:104DF00080B2F6E740F001004FF4967251434FF451
:104E00007A72B1FBF2F1491C226840F4004089B289
:104E100011622168C8612068016841F001010160E8
:104E2000226810684FF6F53180B20840A18B238CC0
:104E3000194389B201431160D4E903100843216882
:104E400088602068016841F0010101600020A063D2
:104E5000012084F83500002070BD000040420F00A2
:104E6000A08601002DE9F04F8DB00546009249481B
:104E7000484ADFF81CB101230024DFF818A13030C4
:104E8000203212279E034FF0040C4FF002095945BF
:104E90001CD1DAF8008048F00208CAF80080DAF87D
:104EA000008028F00208CAF80080C5F800B0016848
:104EB00041F400110160106840F002001060CDE97B
:104EC0000973C020089008A933481FE0DFF8CCB070
:104ED000594523D1DAF8008048F02008CAF800804C
:104EE000DAF8008028F02008CAF80080C5F800B081
:104EF000016841F480010160106840F020001060FA
:104F0000CDE9097303200890254808A9CDE90B3C99
:104F1000FDF7B6FBCDE90246019428E0DFF8848076
:104F200041452FD1C5F80080016841F400010160BE
:104F3000106840F001001060106840F0040010603C
:104F4000CDE909734FF480700890CDE90B3C08A9B6
:104F50001548FDF795FB4FF40070089008A9134819
:104F6000FDF78EFB4FF44040CDE9024001960494DA
:104F70000594069420226946281D0794FBF751F9F1
:104F800085F835902846FFF7F1FE0DB0BDE8F08FAB
:104F90000054004010380240000402400058004015
:104FA00000140240005C0040000002400008024083
:104FB00000B5D1ED010A91ED100AD0ED001AD0ED47
:104FC000012A80EE806AD1ED020A90ED023A90ED5E
:104FD000032AD1ED075A91ED085AD1ED094A02464C
:104FE000C0EE803AD1ED030AB5EEC06A80EE804A89
:104FF000F1EE10FA09D1F5EEC03AF1EE10FA04D153
:10500000B5EEC04AF1EE10FA3BD026EE060A03EEEA
:10501000A30A04EE040A06F07FFB26EE006A63EEA4
:10502000803A24EE004AB6EE000A21EEA21A11EEF2
:10503000A10A62EE820A03EE021A41EEC30A02EEF0
:10504000020A63EE806A44EE416A24EE204A26EEAC
:10505000011A06EE404A9FED2C0A03EEE01A82ED9B
:105060000B0A82ED0C0A82ED0D0AD2ED0E0A9FEDBD
:10507000270A20EE800A40EE265A00EE045A40EE3F
:10508000014ADFED230A25EEA00A25EE201A64EE80
:10509000A00A62EEC03A43EE413A42EE603A33EE85
:1050A000A14A61EE803A43EE203A42EE413A73EE75
:1050B000A24A61EE813A42EEE03A61EEA00A42EE87
:1050C000810A42EE003A43EE400A24EE040A73EEEF
:1050D000833A04EEA40A70EE821A03EEA30A01EEEC
:1050E000A10A06F019FB24EE001A64EE800A23EEF2
:1050F000802A21EE800A82ED001AC2ED010A82EDBB
:10510000022A82ED030A00BD000000003333B33FE2
:105110006F12033B70B5CC1701EB9476D117A0EB5F
:10512000A60502EB917205EBA20403EBD37100EB31
:10513000A60604EB610306EBA200224CA0EB610083
:10514000A5EBA205A6EBA202A5EB610502EB6102AD
:10515000C4E90830C4E90A524FF4FF618B4200DB16
:105160002162884200DB61628D4200DBA1628A42DB
:1051700000DBE162216A4FF47A70814200DC206238
:10518000616A814200DC6062A16A814200DCA06247
:10519000E16A814200DCE06202220B48216A01F0F0
:1051A00063FB01220848616A01F05EFB04220648A5
:1051B000A16A01F059FBE16ABDE870400322024890
:1051C00001F052BB240000200401002000221146FF
:1051D0008318521C83F89010202AF9DB80F8B11054
:1051E000022280F8B21080F8B320FF2300F8903F2D
:1051F00043708270C17070470FB400232DE9F041F5
:1052000000F1920508AA6C1C15E000BF32F8041BDF
:1052100090F8B26077180E0A374480F8B27090F8B0
:10522000B370795590F8B3100E5590F8B310891CEF
:1052300080F8B3105B1C9DF81C108B42E6DBBDE8C8
:10524000F0015DF814FB000010B5044690F8B300BF
:1052500004F19202411C84F8921094F8B2100123D8
:10526000C943491C815494F8B32004F190010448C7
:10527000D21CFEF7A5FE2046BDE81040FFF7A6BFF2
:10528000F401002070B590F880500022042401231E
:10529000062D08D2DFE805F0030812171C3CFF2991
:1052A00001D180F8803070BDFF2904D15FF0020188
:1052B00080F8801070BD80F8802070BDC91E80F815
:1052C00082100321F4E70029F5D180F8804070BDF9
:1052D00090F8824044B110F8812F0A4400F8012967
:1052E00001710521017070BD90F88140214411F0D9
:1052F000FF0180F8811004D0C0F8882080F8812058
:10530000D9E700F8802FC3708168C0E9022170BD21
:1053100090F881200A4480F8812080F8851080F878
:105320008040D0F88820B0F9841040F8221010F89E
:10533000821F891E00F8061B0168491C016070BDB0
:105340001FB50A464FF47A74012303A98DE81A00A9
:1053500010F85C1BFDF71EFD9DF80C0004B010BD9D
:1053600070B504463B21FFF7EBFF2B4D3C216870E5
:105370002046FFF7E5FF2870B5F900003D2100EE5B
:10538000100A2046B8EEC00A84ED010AFFF7D8FFE4
:1053900068703E212046FFF7D3FF2870B5F9000062
:1053A0003F2100EE100A2046B8EEC00A84ED020A42
:1053B000FFF7C6FF687040212046FFF7C1FF287045
:1053C000B5F90000D4ED010A00EE100A9FED131AA2
:1053D000B8EEC02A94ED040A70EEC00A00EE810A0D
:1053E00084ED010AD4ED021AD4ED050A71EEE01A3B
:1053F00041EE810AC4ED020AD4ED061A32EE612AAA
:1054000042EE011AC4ED031A84ED040AC4ED050A44
:10541000C4ED061A70BD000056000020D16B2B3E73
:1054200070B504464321FFF78BFF3B4D4421687064
:105430002046FFF785FF2870B5F90000452100EEF2
:10544000100A2046B8EEC00A84ED0A0AFFF778FF7A
:10545000687046212046FFF773FF2870B5F90000F9
:10546000472100EE100A2046B8EEC00A84ED0B0A70
:10547000FFF766FF687048212046FFF761FF28703C
:10548000B5F9000094ED0D1A00EE100A2348F8EE6D
:10549000C00A94ED0A0A30EE410A84ED0A0A94ED3E
:1054A0000B1AD4ED0E1A31EE611A84ED0B1AD4EDFD
:1054B0000F1A70EEE10AF0EEC01A11EE901ADFED4D
:1054C000181AC4ED0C0A814201DCB0EE610AB0EE9C
:1054D000C12A12EE101A84ED0A0A814201DCB0EEF4
:1054E000611AB0EEE02A12EE101A84ED0B1A814216
:1054F00001DCF0EE610ADFED0B1AC4ED0C0A20EEC0
:10550000210A84ED070A21EE210A84ED080A20EE23
:10551000A10A84ED090A70BD560000200000F04188
:10552000000000000B808B3A17B583B00A464FF499
:105530007A74012305A98DE81A0010F85C1BFDF7A9
:1055400005FD06B010BD10B50446FFF709FF204663
:10555000FFF766FF2046BDE8104002F03DBD090799
:10556000090E002806DA00F00F0000F1E02080F8B4
:10557000141D704700F1E02080F80014704700000F
:105580000FB400232DE9F04100F13F0508AA6C1C7F
:1055900015E000BF32F8041B90F87B6077180E0A04
:1055A000374480F87B7090F87C70795590F87C10C7
:1055B0000E5590F87C10891C80F87C105B1C9DF8BF
:1055C0001C108B42E6DBBDE8F0015DF814FB0A22FB
:1055D00091FBF2F302FB1311072901D100F036B859
:1055E0007047002211468318521C83F83D10202A70
:1055F000F9DB80F87A10022280F87B1080F87C209A
:10560000FF2300F83D3F43708270C17070470FB4B4
:105610002A2270B5044605A9149DFAF702FEBDF8CA
:105620003E006085092210A904F12C00FAF7F9FD6B
:105630009DF8490084F835001398A06384F83C5025
:10564000204670BC5DF814EBFFF7CBBF38B50446BD
:1056500000F02AF894F87C0004F13F02411C84F821
:105660003F1094F87B100125C943491C81540095D3
:1056700094F83C102023921E2046FDF71BFB30B10E
:1056800084F87E502046BDE83840FFF7AABF009559
:1056900094F83C10012304F17D022046FDF728FA1E
:1056A000002084F87E00EDE72DE9F04782462DEDDD
:1056B000088B90B0B3EE0EAAF3EE04AAB6EE00BAD1
:1056C00090F87D00F54DDFEDF6BAF2EE0E9AB0EEF1
:1056D000089AB2EE048ADFEDF38AF34C47287DD0B6
:1056E00044DC2946F2EE043A91ED170A20EE233A03
:1056F000B0EE080A63EE000AFDEEE01AD1ED180ADA
:1057000060EEA30A20EE801AFDEEC12A91ED191A6F
:1057100021EE234A24EE000ABDEEC02A9FEDE00AE6
:10572000A0F12100232823EE000ABDEEC01A20EECE
:10573000A30AFDEEC00AB2EE0E0A24EE000ABDEE88
:10574000C00A5AD2DFE800F0EF59EEEDEC59595992
:1057500059595959EB5959EAA7AEB5BCC3E9E8E71D
:10576000E65959F259FB59E35559710070286FD029
:1057700018DC632860D00CDC5D286AD004DC522879
:105780006BD05B2839D1BAE0602872D06228F9D199
:1057900099E1652842D0672839D0682874D06F28ED
:1057A000F0D1C8E1DFEDBF0ABC4971380E2891ED98
:1057B000181A91ED170A61EE201A91ED191A20EED0
:1057C000200A61EE200AB0EE081ABDEEC00A21EEF2
:1057D000811AFDEEE00ABDEEC11A00E010E0B0D281
:1057E000DFE800F0EE42ED4B0B0BEC0B0B31EB0B5B
:1057F000EAE9607810B100206070BBE10120FBE7AE
:10580000A07810B10020A070B4E10120FBE7E0789F
:1058100010B10020E070ADE10120FBE7207910B16C
:1058200000202071A6E10120FBE7E07910B1002003
:10583000E0719FE10120FBE7207A10B10020207287
:1058400098E10120FBE7A07A28B10020A07291E145
:105850006AE14AE001E00120F8E7A07910B10020F8
:10586000A07187E10120FBE7607920B10020607121
:1058700080E133E008E00120F9E7A07F10B10020CB
:10588000A07777E10120FBE7607A10B10020607219
:1058900070E10120FBE7E07A10B10020E07269E1DD
:1058A0000120FBE7207B10B10020207362E1012082
:1058B000FBE7607B10B1002060735BE10120FBE738
:1058C000A07B10B10020A07354E10120FBE7E07B36
:1058D00010B10020E0734DE10120FBE7207C10B106
:1058E0000020207446E10120FBE794F8220020B15B
:1058F0005FF0000084F822003CE10120FAE794F810
:10590000240088B15FF0000084F8240032E13BE01D
:1059100015E00BE0E5E0EBE0F1E0F7E0DAE0FCE0D9
:105920007BE05DE041E01EE00120EDE794F8270018
:1059300018B1002084F827001CE10120FAE794F850
:10594000280028B15FF0000084F8280010B111E1B0
:105950000120F9E7CDED061ACDED072A8DED082AD5
:1059600006A90820ACE0607C18B10020607410B17A
:1059700000E10120FAE78DED061ACDED070A8DED65
:10598000080A06A900209BE0A07C18B10020A074A2
:1059900010B1EFE00120FAE78DED061ACDED070A10
:1059A0008DED080A06A901208AE0E07C48B10020BC
:1059B000E07440B1DEE041E053E066E0D3E0C4E0F3
:1059C000C7E00120F4E723EE0A1A06A90220BDEE83
:1059D000C11A8DED061ACDED070A8DED080A6FE0AC
:1059E000207D18B10020207510B1C3E00120FAE736
:1059F000CDED061AD5ED0F0A06A9032080EEAA0AFE
:105A000030EE0B0A20EE080A20EE090ABDEEC00AAD
:105A10008DED070A8DED082A52E0607D18B1002057
:105A2000607510B1A6E00120FAE7CDED061ACDEDC4
:105A3000072A8DED082A06A9042041E0A07D18B1AF
:105A40000020A07510B195E00120FAE78DED060A5F
:105A5000BDEEE10A06A905208DED070ACDED080A85
:105A60002EE094F8210028B15FF0000084F82100B6
:105A700010B17FE00120F9E78DED060A8DED071AE0
:105A8000CDED080A06A906201AE094F8230068B1B3
:105A90005FF0000084F8230050B16BE0D40D0020CB
:105AA000000020420000C842200D00200120F1E744
:105AB0008DED060A8DED071ACDED080A06A907201F
:105AC00001F010FD56E0607F10B10020607751E0DA
:105AD0000120FBE7E07D10B10020E0754AE00120E5
